{
  "contractName": "BearNBearToken",
  "abi": [
    {
      "inputs": [
        {
          "internalType": "string",
          "name": "name",
          "type": "string"
        },
        {
          "internalType": "string",
          "name": "symbol",
          "type": "string"
        },
        {
          "internalType": "address",
          "name": "nctAddress",
          "type": "address"
        },
        {
          "internalType": "uint256",
          "name": "saleStartTimestamp",
          "type": "uint256"
        },
        {
          "internalType": "uint256",
          "name": "maxSupply",
          "type": "uint256"
        },
        {
          "internalType": "uint256",
          "name": "base_price",
          "type": "uint256"
        }
      ],
      "stateMutability": "nonpayable",
      "type": "constructor"
    },
    {
      "anonymous": false,
      "inputs": [
        {
          "indexed": true,
          "internalType": "address",
          "name": "owner",
          "type": "address"
        },
        {
          "indexed": true,
          "internalType": "address",
          "name": "approved",
          "type": "address"
        },
        {
          "indexed": true,
          "internalType": "uint256",
          "name": "tokenId",
          "type": "uint256"
        }
      ],
      "name": "Approval",
      "type": "event"
    },
    {
      "anonymous": false,
      "inputs": [
        {
          "indexed": true,
          "internalType": "address",
          "name": "owner",
          "type": "address"
        },
        {
          "indexed": true,
          "internalType": "address",
          "name": "operator",
          "type": "address"
        },
        {
          "indexed": false,
          "internalType": "bool",
          "name": "approved",
          "type": "bool"
        }
      ],
      "name": "ApprovalForAll",
      "type": "event"
    },
    {
      "anonymous": false,
      "inputs": [
        {
          "indexed": true,
          "internalType": "uint256",
          "name": "tokenIndex",
          "type": "uint256"
        },
        {
          "indexed": false,
          "internalType": "uint256",
          "name": "BNBAmount",
          "type": "uint256"
        }
      ],
      "name": "BNBClaim",
      "type": "event"
    },
    {
      "anonymous": false,
      "inputs": [
        {
          "indexed": true,
          "internalType": "uint256",
          "name": "tokenIndex",
          "type": "uint256"
        },
        {
          "indexed": false,
          "internalType": "string",
          "name": "newDescription",
          "type": "string"
        }
      ],
      "name": "DescriptionChange",
      "type": "event"
    },
    {
      "anonymous": false,
      "inputs": [
        {
          "indexed": true,
          "internalType": "uint256",
          "name": "tokenIndex",
          "type": "uint256"
        },
        {
          "indexed": false,
          "internalType": "string",
          "name": "newName",
          "type": "string"
        }
      ],
      "name": "NameChange",
      "type": "event"
    },
    {
      "anonymous": false,
      "inputs": [
        {
          "indexed": true,
          "internalType": "address",
          "name": "previousOwner",
          "type": "address"
        },
        {
          "indexed": true,
          "internalType": "address",
          "name": "newOwner",
          "type": "address"
        }
      ],
      "name": "OwnershipTransferred",
      "type": "event"
    },
    {
      "anonymous": false,
      "inputs": [
        {
          "indexed": true,
          "internalType": "address",
          "name": "from",
          "type": "address"
        },
        {
          "indexed": true,
          "internalType": "address",
          "name": "to",
          "type": "address"
        },
        {
          "indexed": true,
          "internalType": "uint256",
          "name": "tokenId",
          "type": "uint256"
        }
      ],
      "name": "Transfer",
      "type": "event"
    },
    {
      "inputs": [],
      "name": "BNBDistribution",
      "outputs": [
        {
          "internalType": "uint256",
          "name": "",
          "type": "uint256"
        }
      ],
      "stateMutability": "view",
      "type": "function"
    },
    {
      "inputs": [],
      "name": "BNB_DISTRIBUTION_TIMESTAMP",
      "outputs": [
        {
          "internalType": "uint256",
          "name": "",
          "type": "uint256"
        }
      ],
      "stateMutability": "view",
      "type": "function"
    },
    {
      "inputs": [],
      "name": "DECAY_COMMUNITY_TAKE_HOME_RATE_THRESHOLD",
      "outputs": [
        {
          "internalType": "uint256",
          "name": "",
          "type": "uint256"
        }
      ],
      "stateMutability": "view",
      "type": "function"
    },
    {
      "inputs": [],
      "name": "DESCRIPTION_CHANGE_PRICE",
      "outputs": [
        {
          "internalType": "uint256",
          "name": "",
          "type": "uint256"
        }
      ],
      "stateMutability": "view",
      "type": "function"
    },
    {
      "inputs": [],
      "name": "IPFS_PROVENANCE",
      "outputs": [
        {
          "internalType": "string",
          "name": "",
          "type": "string"
        }
      ],
      "stateMutability": "view",
      "type": "function"
    },
    {
      "inputs": [],
      "name": "MAX_NFT_SUPPLY",
      "outputs": [
        {
          "internalType": "uint256",
          "name": "",
          "type": "uint256"
        }
      ],
      "stateMutability": "view",
      "type": "function"
    },
    {
      "inputs": [],
      "name": "NAME_CHANGE_PRICE",
      "outputs": [
        {
          "internalType": "uint256",
          "name": "",
          "type": "uint256"
        }
      ],
      "stateMutability": "view",
      "type": "function"
    },
    {
      "inputs": [],
      "name": "NCT_BONUS_END_TIMESTAMP",
      "outputs": [
        {
          "internalType": "uint256",
          "name": "",
          "type": "uint256"
        }
      ],
      "stateMutability": "view",
      "type": "function"
    },
    {
      "inputs": [],
      "name": "REVEAL_TIMESTAMP",
      "outputs": [
        {
          "internalType": "uint256",
          "name": "",
          "type": "uint256"
        }
      ],
      "stateMutability": "view",
      "type": "function"
    },
    {
      "inputs": [],
      "name": "SALE_START_TIMESTAMP",
      "outputs": [
        {
          "internalType": "uint256",
          "name": "",
          "type": "uint256"
        }
      ],
      "stateMutability": "view",
      "type": "function"
    },
    {
      "inputs": [],
      "name": "communityTakeHomeRate",
      "outputs": [
        {
          "internalType": "uint256",
          "name": "",
          "type": "uint256"
        }
      ],
      "stateMutability": "view",
      "type": "function"
    },
    {
      "inputs": [],
      "name": "communityTakeHomeRateUpdatedAt",
      "outputs": [
        {
          "internalType": "uint256",
          "name": "",
          "type": "uint256"
        }
      ],
      "stateMutability": "view",
      "type": "function"
    },
    {
      "inputs": [],
      "name": "depreciationDecayRatePerDay",
      "outputs": [
        {
          "internalType": "uint256",
          "name": "",
          "type": "uint256"
        }
      ],
      "stateMutability": "view",
      "type": "function"
    },
    {
      "inputs": [],
      "name": "owner",
      "outputs": [
        {
          "internalType": "address",
          "name": "",
          "type": "address"
        }
      ],
      "stateMutability": "view",
      "type": "function"
    },
    {
      "inputs": [],
      "name": "renounceOwnership",
      "outputs": [],
      "stateMutability": "nonpayable",
      "type": "function"
    },
    {
      "inputs": [],
      "name": "startingIndex",
      "outputs": [
        {
          "internalType": "uint256",
          "name": "",
          "type": "uint256"
        }
      ],
      "stateMutability": "view",
      "type": "function"
    },
    {
      "inputs": [],
      "name": "startingIndexBlock",
      "outputs": [
        {
          "internalType": "uint256",
          "name": "",
          "type": "uint256"
        }
      ],
      "stateMutability": "view",
      "type": "function"
    },
    {
      "inputs": [
        {
          "internalType": "bytes4",
          "name": "interfaceId",
          "type": "bytes4"
        }
      ],
      "name": "supportsInterface",
      "outputs": [
        {
          "internalType": "bool",
          "name": "",
          "type": "bool"
        }
      ],
      "stateMutability": "view",
      "type": "function"
    },
    {
      "inputs": [
        {
          "internalType": "address",
          "name": "newOwner",
          "type": "address"
        }
      ],
      "name": "transferOwnership",
      "outputs": [],
      "stateMutability": "nonpayable",
      "type": "function"
    },
    {
      "inputs": [
        {
          "internalType": "address",
          "name": "owner",
          "type": "address"
        }
      ],
      "name": "balanceOf",
      "outputs": [
        {
          "internalType": "uint256",
          "name": "",
          "type": "uint256"
        }
      ],
      "stateMutability": "view",
      "type": "function"
    },
    {
      "inputs": [
        {
          "internalType": "uint256",
          "name": "tokenId",
          "type": "uint256"
        }
      ],
      "name": "ownerOf",
      "outputs": [
        {
          "internalType": "address",
          "name": "",
          "type": "address"
        }
      ],
      "stateMutability": "view",
      "type": "function"
    },
    {
      "inputs": [],
      "name": "name",
      "outputs": [
        {
          "internalType": "string",
          "name": "",
          "type": "string"
        }
      ],
      "stateMutability": "view",
      "type": "function"
    },
    {
      "inputs": [],
      "name": "symbol",
      "outputs": [
        {
          "internalType": "string",
          "name": "",
          "type": "string"
        }
      ],
      "stateMutability": "view",
      "type": "function"
    },
    {
      "inputs": [
        {
          "internalType": "address",
          "name": "owner",
          "type": "address"
        },
        {
          "internalType": "uint256",
          "name": "index",
          "type": "uint256"
        }
      ],
      "name": "tokenOfOwnerByIndex",
      "outputs": [
        {
          "internalType": "uint256",
          "name": "",
          "type": "uint256"
        }
      ],
      "stateMutability": "view",
      "type": "function"
    },
    {
      "inputs": [],
      "name": "totalSupply",
      "outputs": [
        {
          "internalType": "uint256",
          "name": "",
          "type": "uint256"
        }
      ],
      "stateMutability": "view",
      "type": "function"
    },
    {
      "inputs": [
        {
          "internalType": "uint256",
          "name": "index",
          "type": "uint256"
        }
      ],
      "name": "tokenByIndex",
      "outputs": [
        {
          "internalType": "uint256",
          "name": "",
          "type": "uint256"
        }
      ],
      "stateMutability": "view",
      "type": "function"
    },
    {
      "inputs": [
        {
          "internalType": "uint256",
          "name": "index",
          "type": "uint256"
        }
      ],
      "name": "tokenNameByIndex",
      "outputs": [
        {
          "internalType": "string",
          "name": "",
          "type": "string"
        }
      ],
      "stateMutability": "view",
      "type": "function"
    },
    {
      "inputs": [
        {
          "internalType": "uint256",
          "name": "index",
          "type": "uint256"
        }
      ],
      "name": "tokenDescriptionByIndex",
      "outputs": [
        {
          "internalType": "string",
          "name": "",
          "type": "string"
        }
      ],
      "stateMutability": "view",
      "type": "function"
    },
    {
      "inputs": [
        {
          "internalType": "uint256",
          "name": "index",
          "type": "uint256"
        }
      ],
      "name": "tokenNCTGeneratingMultiplierByIndex",
      "outputs": [
        {
          "internalType": "uint256",
          "name": "",
          "type": "uint256"
        }
      ],
      "stateMutability": "view",
      "type": "function"
    },
    {
      "inputs": [
        {
          "internalType": "string",
          "name": "nameString",
          "type": "string"
        }
      ],
      "name": "isNameReserved",
      "outputs": [
        {
          "internalType": "bool",
          "name": "",
          "type": "bool"
        }
      ],
      "stateMutability": "view",
      "type": "function"
    },
    {
      "inputs": [
        {
          "internalType": "uint256",
          "name": "index",
          "type": "uint256"
        }
      ],
      "name": "isMintedWithBonusNCT",
      "outputs": [
        {
          "internalType": "bool",
          "name": "",
          "type": "bool"
        }
      ],
      "stateMutability": "view",
      "type": "function"
    },
    {
      "inputs": [],
      "name": "initGrantedNCT",
      "outputs": [
        {
          "internalType": "uint256",
          "name": "",
          "type": "uint256"
        }
      ],
      "stateMutability": "view",
      "type": "function"
    },
    {
      "inputs": [],
      "name": "initNFTPrice",
      "outputs": [
        {
          "internalType": "uint256",
          "name": "",
          "type": "uint256"
        }
      ],
      "stateMutability": "view",
      "type": "function"
    },
    {
      "inputs": [],
      "name": "initNCTMultiplier",
      "outputs": [
        {
          "internalType": "uint256",
          "name": "",
          "type": "uint256"
        }
      ],
      "stateMutability": "view",
      "type": "function"
    },
    {
      "inputs": [],
      "name": "pokeCommunityTakeHomeRate",
      "outputs": [],
      "stateMutability": "nonpayable",
      "type": "function"
    },
    {
      "inputs": [
        {
          "internalType": "uint256",
          "name": "numberOfNfts",
          "type": "uint256"
        }
      ],
      "name": "mintNFT",
      "outputs": [],
      "stateMutability": "payable",
      "type": "function"
    },
    {
      "inputs": [],
      "name": "finalizeStartingIndexAndBNBDistribution",
      "outputs": [],
      "stateMutability": "nonpayable",
      "type": "function"
    },
    {
      "inputs": [
        {
          "internalType": "uint256",
          "name": "tokenId",
          "type": "uint256"
        }
      ],
      "name": "claimBNB",
      "outputs": [],
      "stateMutability": "nonpayable",
      "type": "function"
    },
    {
      "inputs": [
        {
          "internalType": "uint256",
          "name": "tokenId",
          "type": "uint256"
        },
        {
          "internalType": "string",
          "name": "newName",
          "type": "string"
        }
      ],
      "name": "changeName",
      "outputs": [],
      "stateMutability": "nonpayable",
      "type": "function"
    },
    {
      "inputs": [
        {
          "internalType": "uint256",
          "name": "tokenId",
          "type": "uint256"
        },
        {
          "internalType": "string",
          "name": "newDescription",
          "type": "string"
        }
      ],
      "name": "changeDescription",
      "outputs": [],
      "stateMutability": "nonpayable",
      "type": "function"
    },
    {
      "inputs": [],
      "name": "withdraw",
      "outputs": [],
      "stateMutability": "nonpayable",
      "type": "function"
    },
    {
      "inputs": [
        {
          "internalType": "address",
          "name": "to",
          "type": "address"
        },
        {
          "internalType": "uint256",
          "name": "tokenId",
          "type": "uint256"
        }
      ],
      "name": "approve",
      "outputs": [],
      "stateMutability": "nonpayable",
      "type": "function"
    },
    {
      "inputs": [
        {
          "internalType": "uint256",
          "name": "tokenId",
          "type": "uint256"
        }
      ],
      "name": "getApproved",
      "outputs": [
        {
          "internalType": "address",
          "name": "",
          "type": "address"
        }
      ],
      "stateMutability": "view",
      "type": "function"
    },
    {
      "inputs": [
        {
          "internalType": "address",
          "name": "operator",
          "type": "address"
        },
        {
          "internalType": "bool",
          "name": "approved",
          "type": "bool"
        }
      ],
      "name": "setApprovalForAll",
      "outputs": [],
      "stateMutability": "nonpayable",
      "type": "function"
    },
    {
      "inputs": [
        {
          "internalType": "address",
          "name": "owner",
          "type": "address"
        },
        {
          "internalType": "address",
          "name": "operator",
          "type": "address"
        }
      ],
      "name": "isApprovedForAll",
      "outputs": [
        {
          "internalType": "bool",
          "name": "",
          "type": "bool"
        }
      ],
      "stateMutability": "view",
      "type": "function"
    },
    {
      "inputs": [
        {
          "internalType": "address",
          "name": "from",
          "type": "address"
        },
        {
          "internalType": "address",
          "name": "to",
          "type": "address"
        },
        {
          "internalType": "uint256",
          "name": "tokenId",
          "type": "uint256"
        }
      ],
      "name": "transferFrom",
      "outputs": [],
      "stateMutability": "nonpayable",
      "type": "function"
    },
    {
      "inputs": [
        {
          "internalType": "address",
          "name": "from",
          "type": "address"
        },
        {
          "internalType": "address",
          "name": "to",
          "type": "address"
        },
        {
          "internalType": "uint256",
          "name": "tokenId",
          "type": "uint256"
        }
      ],
      "name": "safeTransferFrom",
      "outputs": [],
      "stateMutability": "nonpayable",
      "type": "function"
    },
    {
      "inputs": [
        {
          "internalType": "address",
          "name": "from",
          "type": "address"
        },
        {
          "internalType": "address",
          "name": "to",
          "type": "address"
        },
        {
          "internalType": "uint256",
          "name": "tokenId",
          "type": "uint256"
        },
        {
          "internalType": "bytes",
          "name": "_data",
          "type": "bytes"
        }
      ],
      "name": "safeTransferFrom",
      "outputs": [],
      "stateMutability": "nonpayable",
      "type": "function"
    },
    {
      "inputs": [
        {
          "internalType": "string",
          "name": "str",
          "type": "string"
        }
      ],
      "name": "validateName",
      "outputs": [
        {
          "internalType": "bool",
          "name": "",
          "type": "bool"
        }
      ],
      "stateMutability": "pure",
      "type": "function"
    },
    {
      "inputs": [
        {
          "internalType": "string",
          "name": "str",
          "type": "string"
        }
      ],
      "name": "toLower",
      "outputs": [
        {
          "internalType": "string",
          "name": "",
          "type": "string"
        }
      ],
      "stateMutability": "pure",
      "type": "function"
    }
  ],
  "bytecode": "0x6080604052600160025562278d006003540160045562278d0080600354010160055562278d008062278d00600354010101600655614301600755670b1a2bc2ec50000060085562015180600354016009556000600a553480156200006257600080fd5b50604051620060f2380380620060f2833981810160405260c08110156200008857600080fd5b8101908080516040519392919084640100000000821115620000a957600080fd5b83820191506020820185811115620000c057600080fd5b8251866001820283011164010000000082111715620000de57600080fd5b8083526020830192505050908051906020019080838360005b8381101562000114578082015181840152602081019050620000f7565b50505050905090810190601f168015620001425780820380516001836020036101000a031916815260200191505b50604052602001805160405193929190846401000000008211156200016657600080fd5b838201915060208201858111156200017d57600080fd5b82518660018202830111640100000000821117156200019b57600080fd5b8083526020830192505050908051906020019080838360005b83811015620001d1578082015181840152602081019050620001b4565b50505050905090810190601f168015620001ff5780820380516001836020036101000a031916815260200191505b50604052602001805190602001909291908051906020019092919080519060200190929190805190602001909291905050506000620002436200041660201b60201c565b9050806000806101000a81548173ffffffffffffffffffffffffffffffffffffffff021916908373ffffffffffffffffffffffffffffffffffffffff1602179055508073ffffffffffffffffffffffffffffffffffffffff16600073ffffffffffffffffffffffffffffffffffffffff167f8be0079c531659141344cd1fd0a4f28419497f9722a3daafe3b4186f6b6457e060405160405180910390a350620002f96301ffc9a760e01b6200041e60201b60201c565b85601890805190602001906200031192919062000527565b5084601990805190602001906200032a92919062000527565b5083601a60006101000a81548173ffffffffffffffffffffffffffffffffffffffff021916908373ffffffffffffffffffffffffffffffffffffffff16021790555081600781905550806002819055508260038190555062278d006003540160048190555062278d0080600354010160058190555062278d008062278d006003540101016006819055506201518060035401600981905550620003da6380ac58cd60e01b6200041e60201b60201c565b620003f2639325454260e01b6200041e60201b60201c565b6200040a63780e9d6360e01b6200041e60201b60201c565b505050505050620005cd565b600033905090565b63ffffffff60e01b817bffffffffffffffffffffffffffffffffffffffffffffffffffffffff19161415620004bb576040517f08c379a000000000000000000000000000000000000000000000000000000000815260040180806020018281038252601c8152602001807f4552433136353a20696e76616c696420696e746572666163652069640000000081525060200191505060405180910390fd5b6001806000837bffffffffffffffffffffffffffffffffffffffffffffffffffffffff19167bffffffffffffffffffffffffffffffffffffffffffffffffffffffff1916815260200190815260200160002060006101000a81548160ff02191690831515021790555050565b828054600181600116156101000203166002900490600052602060002090601f016020900481019282601f106200056a57805160ff19168380011785556200059b565b828001600101855582156200059b579182015b828111156200059a5782518255916020019190600101906200057d565b5b509050620005aa9190620005ae565b5090565b5b80821115620005c9576000816000905550600101620005af565b5090565b615b1580620005dd6000396000f3fe6080604052600436106102c95760003560e01c80636d52241811610175578063a42a9fcd116100dc578063c7fff83111610095578063de6a06ed1161006f578063de6a06ed14611353578063e36d649814611425578063e985e9c514611450578063f2fde38b146114d7576102c9565b8063c7fff831146112d2578063cb774d47146112fd578063d9c26d9914611328576102c9565b8063a42a9fcd1461101c578063b25d095c14611047578063b5077f4414611072578063b88d4fde1461109d578063c39cbef1146111af578063c3f10a0f14611281576102c9565b8063926427441161012e5780639264274414610cb75780639416b42314610ce5578063946807fd14610e2657806395d89b4114610e515780639ffdb65a14610ee1578063a22cb46514610fbf576102c9565b80636d52241814610acc57806370a0823114610b80578063715018a614610be55780637478e94414610bfc5780638da5cb5b14610c2757806390678ae214610c68576102c9565b80632ab32ce91161023457806342842e0e116101ed57806354b6f161116101c757806354b6f161146109e65780635bbeabbd14610a115780636352211e14610a3c57806364e7356614610aa1576102c9565b806342842e0e146108f15780634caf30101461096c5780634f6ccce714610997576102c9565b80632ab32ce9146106d15780632f745c59146107855780633ccfd60b146107f45780633d34f2951461080b5780633f186eb6146108365780633f4af71214610861576102c9565b80630e5c1d0a116102865780630e5c1d0a146104bc57806315b56d10146104f757806318160ddd146105d557806318e20a381461060057806323b872dd1461062b57806327b3f755146106a6576102c9565b806301ffc9a7146102ce57806305d37f2b1461033e57806306f9cf761461035557806306fdde031461036c578063081812fc146103fc578063095ea7b314610461575b600080fd5b3480156102da57600080fd5b50610326600480360360208110156102f157600080fd5b8101908080357bffffffffffffffffffffffffffffffffffffffffffffffffffffffff19169060200190929190505050611528565b60405180821515815260200191505060405180910390f35b34801561034a57600080fd5b50610353611590565b005b34801561036157600080fd5b5061036a611754565b005b34801561037857600080fd5b5061038161191f565b6040518080602001828103825283818151815260200191508051906020019080838360005b838110156103c15780820151818401526020810190506103a6565b50505050905090810190601f1680156103ee5780820380516001836020036101000a031916815260200191505b509250505060405180910390f35b34801561040857600080fd5b506104356004803603602081101561041f57600080fd5b81019080803590602001909291905050506119c1565b604051808273ffffffffffffffffffffffffffffffffffffffff16815260200191505060405180910390f35b34801561046d57600080fd5b506104ba6004803603604081101561048457600080fd5b81019080803573ffffffffffffffffffffffffffffffffffffffff16906020019092919080359060200190929190505050611a5c565b005b3480156104c857600080fd5b506104f5600480360360208110156104df57600080fd5b8101908080359060200190929190505050611ba0565b005b34801561050357600080fd5b506105bd6004803603602081101561051a57600080fd5b810190808035906020019064010000000081111561053757600080fd5b82018360208201111561054957600080fd5b8035906020019184600183028401116401000000008311171561056b57600080fd5b91908080601f016020809104026020016040519081016040528093929190818152602001838380828437600081840152601f19601f820116905080830192505050505050509192919290505050611dda565b60405180821515815260200191505060405180910390f35b3480156105e157600080fd5b506105ea611e62565b6040518082815260200191505060405180910390f35b34801561060c57600080fd5b50610615611e73565b6040518082815260200191505060405180910390f35b34801561063757600080fd5b506106a46004803603606081101561064e57600080fd5b81019080803573ffffffffffffffffffffffffffffffffffffffff169060200190929190803573ffffffffffffffffffffffffffffffffffffffff16906020019092919080359060200190929190505050611e79565b005b3480156106b257600080fd5b506106bb611eef565b6040518082815260200191505060405180910390f35b3480156106dd57600080fd5b5061070a600480360360208110156106f457600080fd5b8101908080359060200190929190505050611ef5565b6040518080602001828103825283818151815260200191508051906020019080838360005b8381101561074a57808201518184015260208101905061072f565b50505050905090810190601f1680156107775780820380516001836020036101000a031916815260200191505b509250505060405180910390f35b34801561079157600080fd5b506107de600480360360408110156107a857600080fd5b81019080803573ffffffffffffffffffffffffffffffffffffffff16906020019092919080359060200190929190505050611faa565b6040518082815260200191505060405180910390f35b34801561080057600080fd5b50610809612005565b005b34801561081757600080fd5b50610820612134565b6040518082815260200191505060405180910390f35b34801561084257600080fd5b5061084b612163565b6040518082815260200191505060405180910390f35b34801561086d57600080fd5b5061087661216a565b6040518080602001828103825283818151815260200191508051906020019080838360005b838110156108b657808201518184015260208101905061089b565b50505050905090810190601f1680156108e35780820380516001836020036101000a031916815260200191505b509250505060405180910390f35b3480156108fd57600080fd5b5061096a6004803603606081101561091457600080fd5b81019080803573ffffffffffffffffffffffffffffffffffffffff169060200190929190803573ffffffffffffffffffffffffffffffffffffffff16906020019092919080359060200190929190505050612186565b005b34801561097857600080fd5b506109816121a6565b6040518082815260200191505060405180910390f35b3480156109a357600080fd5b506109d0600480360360208110156109ba57600080fd5b81019080803590602001909291905050506121b6565b6040518082815260200191505060405180910390f35b3480156109f257600080fd5b506109fb6121d9565b6040518082815260200191505060405180910390f35b348015610a1d57600080fd5b50610a266121e9565b6040518082815260200191505060405180910390f35b348015610a4857600080fd5b50610a7560048036036020811015610a5f57600080fd5b81019080803590602001909291905050506121ef565b604051808273ffffffffffffffffffffffffffffffffffffffff16815260200191505060405180910390f35b348015610aad57600080fd5b50610ab6612226565b6040518082815260200191505060405180910390f35b348015610ad857600080fd5b50610b0560048036036020811015610aef57600080fd5b810190808035906020019092919050505061222c565b6040518080602001828103825283818151815260200191508051906020019080838360005b83811015610b45578082015181840152602081019050610b2a565b50505050905090810190601f168015610b725780820380516001836020036101000a031916815260200191505b509250505060405180910390f35b348015610b8c57600080fd5b50610bcf60048036036020811015610ba357600080fd5b81019080803573ffffffffffffffffffffffffffffffffffffffff1690602001909291905050506122e1565b6040518082815260200191505060405180910390f35b348015610bf157600080fd5b50610bfa6123b6565b005b348015610c0857600080fd5b50610c1161253c565b6040518082815260200191505060405180910390f35b348015610c3357600080fd5b50610c3c6126d9565b604051808273ffffffffffffffffffffffffffffffffffffffff16815260200191505060405180910390f35b348015610c7457600080fd5b50610ca160048036036020811015610c8b57600080fd5b8101908080359060200190929190505050612702565b6040518082815260200191505060405180910390f35b610ce360048036036020811015610ccd57600080fd5b810190808035906020019092919050505061271f565b005b348015610cf157600080fd5b50610dab60048036036020811015610d0857600080fd5b8101908080359060200190640100000000811115610d2557600080fd5b820183602082011115610d3757600080fd5b80359060200191846001830284011164010000000083111715610d5957600080fd5b91908080601f016020809104026020016040519081016040528093929190818152602001838380828437600081840152601f19601f820116905080830192505050505050509192919290505050612ad7565b6040518080602001828103825283818151815260200191508051906020019080838360005b83811015610deb578082015181840152602081019050610dd0565b50505050905090810190601f168015610e185780820380516001836020036101000a031916815260200191505b509250505060405180910390f35b348015610e3257600080fd5b50610e3b612c53565b6040518082815260200191505060405180910390f35b348015610e5d57600080fd5b50610e66612c59565b6040518080602001828103825283818151815260200191508051906020019080838360005b83811015610ea6578082015181840152602081019050610e8b565b50505050905090810190601f168015610ed35780820380516001836020036101000a031916815260200191505b509250505060405180910390f35b348015610eed57600080fd5b50610fa760048036036020811015610f0457600080fd5b8101908080359060200190640100000000811115610f2157600080fd5b820183602082011115610f3357600080fd5b80359060200191846001830284011164010000000083111715610f5557600080fd5b91908080601f016020809104026020016040519081016040528093929190818152602001838380828437600081840152601f19601f820116905080830192505050505050509192919290505050612cfb565b60405180821515815260200191505060405180910390f35b348015610fcb57600080fd5b5061101a60048036036040811015610fe257600080fd5b81019080803573ffffffffffffffffffffffffffffffffffffffff169060200190929190803515159060200190929190505050613003565b005b34801561102857600080fd5b506110316131b9565b6040518082815260200191505060405180910390f35b34801561105357600080fd5b5061105c613339565b6040518082815260200191505060405180910390f35b34801561107e57600080fd5b50611087613345565b6040518082815260200191505060405180910390f35b3480156110a957600080fd5b506111ad600480360360808110156110c057600080fd5b81019080803573ffffffffffffffffffffffffffffffffffffffff169060200190929190803573ffffffffffffffffffffffffffffffffffffffff169060200190929190803590602001909291908035906020019064010000000081111561112757600080fd5b82018360208201111561113957600080fd5b8035906020019184600183028401116401000000008311171561115b57600080fd5b91908080601f016020809104026020016040519081016040528093929190818152602001838380828437600081840152601f19601f82011690508083019250505050505050919291929050505061334b565b005b3480156111bb57600080fd5b5061127f600480360360408110156111d257600080fd5b8101908080359060200190929190803590602001906401000000008111156111f957600080fd5b82018360208201111561120b57600080fd5b8035906020019184600183028401116401000000008311171561122d57600080fd5b91908080601f016020809104026020016040519081016040528093929190818152602001838380828437600081840152601f19601f8201169050808301925050505050505091929192905050506133c3565b005b34801561128d57600080fd5b506112ba600480360360208110156112a457600080fd5b8101908080359060200190929190505050613a9b565b60405180821515815260200191505060405180910390f35b3480156112de57600080fd5b506112e7613ac5565b6040518082815260200191505060405180910390f35b34801561130957600080fd5b50611312613acb565b6040518082815260200191505060405180910390f35b34801561133457600080fd5b5061133d613ad1565b6040518082815260200191505060405180910390f35b34801561135f57600080fd5b506114236004803603604081101561137657600080fd5b81019080803590602001909291908035906020019064010000000081111561139d57600080fd5b8201836020820111156113af57600080fd5b803590602001918460018302840111640100000000831117156113d157600080fd5b91908080601f016020809104026020016040519081016040528093929190818152602001838380828437600081840152601f19601f820116905080830192505050505050509192919290505050613ad7565b005b34801561143157600080fd5b5061143a61403b565b6040518082815260200191505060405180910390f35b34801561145c57600080fd5b506114bf6004803603604081101561147357600080fd5b81019080803573ffffffffffffffffffffffffffffffffffffffff169060200190929190803573ffffffffffffffffffffffffffffffffffffffff169060200190929190505050614041565b60405180821515815260200191505060405180910390f35b3480156114e357600080fd5b50611526600480360360208110156114fa57600080fd5b81019080803573ffffffffffffffffffffffffffffffffffffffff1690602001909291905050506140d5565b005b600060016000837bffffffffffffffffffffffffffffffffffffffffffffffffffffffff19167bffffffffffffffffffffffffffffffffffffffffffffffffffffffff1916815260200190815260200160002060009054906101000a900460ff169050919050565b6000600b5414611608576040517f08c379a000000000000000000000000000000000000000000000000000000000815260040180806020018281038252601d8152602001807f5374617274696e6720696e64657820697320616c72656164792073657400000081525060200191505060405180910390fd5b6000600a541415611681576040517f08c379a00000000000000000000000000000000000000000000000000000000081526004018080602001828103825260208152602001807f5374617274696e6720696e64657820626c6f636b206d7573742062652073657481525060200191505060405180910390fd5b600754600a544060001c8161169257fe5b06600b8190555060ff6116b0600a54436142e090919063ffffffff16565b11156116d057600754600143034060001c816116c857fe5b06600b819055505b6000600b5414156116f8576116f16001600b5461436390919063ffffffff16565b600b819055505b6000600c5414156117525761174b670de0b6b3a764000061173d60085461172f611720611e62565b476143eb90919063ffffffff16565b61447490919063ffffffff16565b6143eb90919063ffffffff16565b600c819055505b565b6003544210156117cc576040517f08c379a00000000000000000000000000000000000000000000000000000000081526004018080602001828103825260148152602001807f53616c6520686173206e6f74207374617274656400000000000000000000000081525060200191505060405180910390fd5b6007546117d7611e62565b111561184b576040517f08c379a00000000000000000000000000000000000000000000000000000000081526004018080602001828103825260168152602001807f53616c652068617320616c726561647920656e6465640000000000000000000081525060200191505060405180910390fd5b600554421015801561186757506702c68af0bb14000060085414155b15611880576702c68af0bb14000060088190555061191d565b62015180600354014210158015611898575060055442105b1561191c576000620151806009544203816118af57fe5b0490505b6001811061191a576118f2670de0b6b3a76400006118e4670d74ef7e18a6c68060085461447490919063ffffffff16565b6143eb90919063ffffffff16565b600881905550426009819055506119136001826142e090919063ffffffff16565b90506118b3565b505b5b565b606060188054600181600116156101000203166002900480601f0160208091040260200160405190810160405280929190818152602001828054600181600116156101000203166002900480156119b75780601f1061198c576101008083540402835291602001916119b7565b820191906000526020600020905b81548152906001019060200180831161199a57829003601f168201915b5050505050905090565b60006119cc826144fa565b611a21576040517f08c379a000000000000000000000000000000000000000000000000000000000815260040180806020018281038252602c8152602001806159d6602c913960400191505060405180910390fd5b6010600083815260200190815260200160002060009054906101000a900473ffffffffffffffffffffffffffffffffffffffff169050919050565b6000611a67826121ef565b90508073ffffffffffffffffffffffffffffffffffffffff168373ffffffffffffffffffffffffffffffffffffffff161415611aee576040517f08c379a0000000000000000000000000000000000000000000000000000000008152600401808060200182810382526021815260200180615a4e6021913960400191505060405180910390fd5b8073ffffffffffffffffffffffffffffffffffffffff16611b0d614517565b73ffffffffffffffffffffffffffffffffffffffff161480611b3c5750611b3b81611b36614517565b614041565b5b611b91576040517f08c379a00000000000000000000000000000000000000000000000000000000081526004018080602001828103825260388152602001806158bc6038913960400191505060405180910390fd5b611b9b838361451f565b505050565b600654421015611bfb576040517f08c379a000000000000000000000000000000000000000000000000000000000815260040180806020018281038252602381526020018061591d6023913960400191505060405180910390fd5b6011600082815260200190815260200160002060009054906101000a900460ff16611c8e576040517f08c379a00000000000000000000000000000000000000000000000000000000081526004018080602001828103825260158152602001807f424e4220686173206265656e20636c61696d65642e000000000000000000000081525060200191505060405180910390fd5b600060603373ffffffffffffffffffffffffffffffffffffffff16600c5460405180600001905060006040518083038185875af1925050503d8060008114611cf2576040519150601f19603f3d011682016040523d82523d6000602084013e611cf7565b606091505b509150915081611d6f576040517f08c379a00000000000000000000000000000000000000000000000000000000081526004018080602001828103825260188152602001807f4661696c656420746f206469737472696275746520424e42000000000000000081525060200191505060405180910390fd5b60006011600085815260200190815260200160002060006101000a81548160ff021916908315150217905550827f96667ff78fb5acc020aa7c346ade7ded33054ea6f3b0572598961e8a37fcae6b600c546040518082815260200191505060405180910390a2505050565b60006015611de783612ad7565b6040518082805190602001908083835b60208310611e1a5780518252602082019150602081019050602083039250611df7565b6001836020036101000a038019825116818451168082178552505050505050905001915050908152602001604051809103902060009054906101000a900460ff169050919050565b6000611e6e600e6145d8565b905090565b60055481565b611e8a611e84614517565b826145ed565b611edf576040517f08c379a0000000000000000000000000000000000000000000000000000000008152600401808060200182810382526031815260200180615a6f6031913960400191505060405180910390fd5b611eea8383836146e1565b505050565b600c5481565b6060601360008381526020019081526020016000208054600181600116156101000203166002900480601f016020809104026020016040519081016040528092919081815260200182805460018160011615610100020316600290048015611f9e5780601f10611f7357610100808354040283529160200191611f9e565b820191906000526020600020905b815481529060010190602001808311611f8157829003601f168201915b50505050509050919050565b6000611ffd82600d60008673ffffffffffffffffffffffffffffffffffffffff1673ffffffffffffffffffffffffffffffffffffffff16815260200190815260200160002061492490919063ffffffff16565b905092915050565b61200d614517565b73ffffffffffffffffffffffffffffffffffffffff1660008054906101000a900473ffffffffffffffffffffffffffffffffffffffff1673ffffffffffffffffffffffffffffffffffffffff16146120cd576040517f08c379a00000000000000000000000000000000000000000000000000000000081526004018080602001828103825260208152602001807f4f776e61626c653a2063616c6c6572206973206e6f7420746865206f776e657281525060200191505060405180910390fd5b6000670de0b6b3a7640000600854816120e257fe5b04600103470290503373ffffffffffffffffffffffffffffffffffffffff166108fc829081150290604051600060405180830381858888f19350505050158015612130573d6000803e3d6000fd5b5050565b6000670de0b6b3a764000060aa02670de0b6b3a76400006107d002670de0b6b3a76400006107d0020101905090565b6201518081565b604051806060016040528060408152602001615aa06040913981565b6121a18383836040518060200160405280600081525061334b565b505050565b670de0b6b3a76400006107d00281565b6000806121cd83600e61493e90919063ffffffff16565b50905080915050919050565b670de0b6b3a76400006107d00281565b60045481565b600061221f8260405180606001604052806029815260200161596a60299139600e61496a9092919063ffffffff16565b9050919050565b60095481565b6060601260008381526020019081526020016000208054600181600116156101000203166002900480601f0160208091040260200160405190810160405280929190818152602001828054600181600116156101000203166002900480156122d55780601f106122aa576101008083540402835291602001916122d5565b820191906000526020600020905b8154815290600101906020018083116122b857829003601f168201915b50505050509050919050565b60008073ffffffffffffffffffffffffffffffffffffffff168273ffffffffffffffffffffffffffffffffffffffff161415612368576040517f08c379a000000000000000000000000000000000000000000000000000000000815260040180806020018281038252602a815260200180615940602a913960400191505060405180910390fd5b6123af600d60008473ffffffffffffffffffffffffffffffffffffffff1673ffffffffffffffffffffffffffffffffffffffff168152602001908152602001600020614989565b9050919050565b6123be614517565b73ffffffffffffffffffffffffffffffffffffffff1660008054906101000a900473ffffffffffffffffffffffffffffffffffffffff1673ffffffffffffffffffffffffffffffffffffffff161461247e576040517f08c379a00000000000000000000000000000000000000000000000000000000081526004018080602001828103825260208152602001807f4f776e61626c653a2063616c6c6572206973206e6f7420746865206f776e657281525060200191505060405180910390fd5b600073ffffffffffffffffffffffffffffffffffffffff1660008054906101000a900473ffffffffffffffffffffffffffffffffffffffff1673ffffffffffffffffffffffffffffffffffffffff167f8be0079c531659141344cd1fd0a4f28419497f9722a3daafe3b4186f6b6457e060405160405180910390a360008060006101000a81548173ffffffffffffffffffffffffffffffffffffffff021916908373ffffffffffffffffffffffffffffffffffffffff160217905550565b60006003544210156125b6576040517f08c379a00000000000000000000000000000000000000000000000000000000081526004018080602001828103825260148152602001807f53616c6520686173206e6f74207374617274656400000000000000000000000081525060200191505060405180910390fd5b6007546125c1611e62565b1115612635576040517f08c379a00000000000000000000000000000000000000000000000000000000081526004018080602001828103825260168152602001807f53616c652068617320616c726561647920656e6465640000000000000000000081525060200191505060405180910390fd5b600061263f611e62565b90506142fe8110612659576002546103e8029150506126d6565b61429a8110612670576002546064029150506126d6565b6135e88110612687576002546018029150506126d6565b612904811061269e57600254600c029150506126d6565b611bbc81106126b5576002546006029150506126d6565b610e1081106126cc576002546003029150506126d6565b6002546001029150505b90565b60008060009054906101000a900473ffffffffffffffffffffffffffffffffffffffff16905090565b600060146000838152602001908152602001600020549050919050565b600354421015612797576040517f08c379a00000000000000000000000000000000000000000000000000000000081526004018080602001828103825260148152602001807f53616c6520686173206e6f74207374617274656400000000000000000000000081525060200191505060405180910390fd5b6007546127a2611e62565b1115612816576040517f08c379a00000000000000000000000000000000000000000000000000000000081526004018080602001828103825260168152602001807f53616c652068617320616c726561647920656e6465640000000000000000000081525060200191505060405180910390fd5b6000811161288c576040517f08c379a00000000000000000000000000000000000000000000000000000000081526004018080602001828103825260188152602001807f6e756d6265724f664e6674732063616e6e6f742062652030000000000000000081525060200191505060405180910390fd5b60148111156128e6576040517f08c379a00000000000000000000000000000000000000000000000000000000081526004018080602001828103825260298152602001806158f46029913960400191505060405180910390fd5b600754612903826128f5611e62565b61436390919063ffffffff16565b1115612977576040517f08c379a00000000000000000000000000000000000000000000000000000000081526004018080602001828103825260168152602001807f45786365656473204d41585f4e46545f535550504c590000000000000000000081525060200191505060405180910390fd5b346129928261298461253c565b61447490919063ffffffff16565b14612a05576040517f08c379a000000000000000000000000000000000000000000000000000000000815260040180806020018281038252601d8152602001807f424e422076616c75652073656e74206973206e6f7420636f727265637400000081525060200191505060405180910390fd5b60005b81811015612a97576000612a1a611e62565b9050600554421015612a535760016016600083815260200190815260200160002060006101000a81548160ff0219169083151502179055505b60016011600083815260200190815260200160002060006101000a81548160ff021916908315150217905550612a89338261499e565b508080600101915050612a08565b50612aa0611754565b6000600a54148015612ac75750600754612ab8611e62565b1480612ac657506005544210155b5b15612ad45743600a819055505b50565b6060808290506060815167ffffffffffffffff81118015612af757600080fd5b506040519080825280601f01601f191660200182016040528015612b2a5781602001600182028036833780820191505090505b50905060005b8251811015612c48576041838281518110612b4757fe5b602001015160f81c60f81b60f81c60ff1610158015612b835750605a838281518110612b6f57fe5b602001015160f81c60f81b60f81c60ff1611155b15612be8576020838281518110612b9657fe5b602001015160f81c60f81b60f81c0160f81b828281518110612bb457fe5b60200101907effffffffffffffffffffffffffffffffffffffffffffffffffffffffffffff1916908160001a905350612c3b565b828181518110612bf457fe5b602001015160f81c60f81b828281518110612c0b57fe5b60200101907effffffffffffffffffffffffffffffffffffffffffffffffffffffffffffff1916908160001a9053505b8080600101915050612b30565b508092505050919050565b60035481565b606060198054600181600116156101000203166002900480601f016020809104026020016040519081016040528092919081815260200182805460018160011615610100020316600290048015612cf15780601f10612cc657610100808354040283529160200191612cf1565b820191906000526020600020905b815481529060010190602001808311612cd457829003601f168201915b5050505050905090565b60006060829050600181511015612d16576000915050612ffe565b601981511115612d2a576000915050612ffe565b602060f81b81600081518110612d3c57fe5b602001015160f81c60f81b7effffffffffffffffffffffffffffffffffffffffffffffffffffffffffffff19161415612d79576000915050612ffe565b602060f81b81600183510381518110612d8e57fe5b602001015160f81c60f81b7effffffffffffffffffffffffffffffffffffffffffffffffffffffffffffff19161415612dcb576000915050612ffe565b600081600081518110612dda57fe5b602001015160f81c60f81b905060005b8251811015612ff6576000838281518110612e0157fe5b602001015160f81c60f81b9050602060f81b817effffffffffffffffffffffffffffffffffffffffffffffffffffffffffffff1916148015612e685750602060f81b837effffffffffffffffffffffffffffffffffffffffffffffffffffffffffffff1916145b15612e7a576000945050505050612ffe565b603060f81b817effffffffffffffffffffffffffffffffffffffffffffffffffffffffffffff191610158015612ed65750603960f81b817effffffffffffffffffffffffffffffffffffffffffffffffffffffffffffff191611155b158015612f3c5750604160f81b817effffffffffffffffffffffffffffffffffffffffffffffffffffffffffffff191610158015612f3a5750605a60f81b817effffffffffffffffffffffffffffffffffffffffffffffffffffffffffffff191611155b155b8015612fa15750606160f81b817effffffffffffffffffffffffffffffffffffffffffffffffffffffffffffff191610158015612f9f5750607a60f81b817effffffffffffffffffffffffffffffffffffffffffffffffffffffffffffff191611155b155b8015612fd35750602060f81b817effffffffffffffffffffffffffffffffffffffffffffffffffffffffffffff191614155b15612fe5576000945050505050612ffe565b809250508080600101915050612dea565b506001925050505b919050565b61300b614517565b73ffffffffffffffffffffffffffffffffffffffff168273ffffffffffffffffffffffffffffffffffffffff1614156130ac576040517f08c379a00000000000000000000000000000000000000000000000000000000081526004018080602001828103825260198152602001807f4552433732313a20617070726f766520746f2063616c6c65720000000000000081525060200191505060405180910390fd5b80601760006130b9614517565b73ffffffffffffffffffffffffffffffffffffffff1673ffffffffffffffffffffffffffffffffffffffff16815260200190815260200160002060008473ffffffffffffffffffffffffffffffffffffffff1673ffffffffffffffffffffffffffffffffffffffff16815260200190815260200160002060006101000a81548160ff0219169083151502179055508173ffffffffffffffffffffffffffffffffffffffff16613166614517565b73ffffffffffffffffffffffffffffffffffffffff167f17307eab39ab6107e8899845ad3d59bd9653f200f220920489ca2b5937696c318360405180821515815260200191505060405180910390a35050565b6000600354421015613233576040517f08c379a00000000000000000000000000000000000000000000000000000000081526004018080602001828103825260148152602001807f53616c6520686173206e6f74207374617274656400000000000000000000000081525060200191505060405180910390fd5b60075461323e611e62565b11156132b2576040517f08c379a00000000000000000000000000000000000000000000000000000000081526004018080602001828103825260168152602001807f53616c652068617320616c726561647920656e6465640000000000000000000081525060200191505060405180910390fd5b60006132bc611e62565b90506142fe81106132d1576014915050613336565b61429a81106132e457600f915050613336565b6135e881106132f757600f915050613336565b612904811061330a57600f915050613336565b611bbc811061331d57600a915050613336565b610e10811061333057600a915050613336565b600a9150505b90565b670d74ef7e18a6c68081565b60075481565b61335c613356614517565b836145ed565b6133b1576040517f08c379a0000000000000000000000000000000000000000000000000000000008152600401808060200182810382526031815260200180615a6f6031913960400191505060405180910390fd5b6133bd848484846149bc565b50505050565b60006133ce836121ef565b90508073ffffffffffffffffffffffffffffffffffffffff166133ef614517565b73ffffffffffffffffffffffffffffffffffffffff1614613478576040517f08c379a000000000000000000000000000000000000000000000000000000000815260040180806020018281038252601f8152602001807f4552433732313a2063616c6c6572206973206e6f7420746865206f776e65720081525060200191505060405180910390fd5b6001151561348583612cfb565b1515146134fa576040517f08c379a00000000000000000000000000000000000000000000000000000000081526004018080602001828103825260148152602001807f4e6f7420612076616c6964206e6577206e616d6500000000000000000000000081525060200191505060405180910390fd5b600260126000858152602001908152602001600020604051808280546001816001161561010002031660029004801561356a5780601f1061354857610100808354040283529182019161356a565b820191906000526020600020905b815481529060010190602001808311613556575b5050915050602060405180830381855afa15801561358c573d6000803e3d6000fd5b5050506040513d60208110156135a157600080fd5b81019080805190602001909291905050506002836040518082805190602001908083835b602083106135e857805182526020820191506020810190506020830392506135c5565b6001836020036101000a038019825116818451168082178552505050505050905001915050602060405180830381855afa15801561362a573d6000803e3d6000fd5b5050506040513d602081101561363f57600080fd5b810190808051906020019092919050505014156136a7576040517f08c379a0000000000000000000000000000000000000000000000000000000008152600401808060200182810382526023815260200180615a2b6023913960400191505060405180910390fd5b600015156136b483611dda565b151514613729576040517f08c379a00000000000000000000000000000000000000000000000000000000081526004018080602001828103825260158152602001807f4e616d6520616c7265616479207265736572766564000000000000000000000081525060200191505060405180910390fd5b601a60009054906101000a900473ffffffffffffffffffffffffffffffffffffffff1673ffffffffffffffffffffffffffffffffffffffff166323b872dd3330670de0b6b3a76400006107d0026040518463ffffffff1660e01b8152600401808473ffffffffffffffffffffffffffffffffffffffff1681526020018373ffffffffffffffffffffffffffffffffffffffff1681526020018281526020019350505050602060405180830381600087803b1580156137e657600080fd5b505af11580156137fa573d6000803e3d6000fd5b505050506040513d602081101561381057600080fd5b810190808051906020019092919050505050600060126000858152602001908152602001600020805460018160011615610100020316600290049050111561390957613908601260008581526020019081526020016000208054600181600116156101000203166002900480601f0160208091040260200160405190810160405280929190818152602001828054600181600116156101000203166002900480156138fc5780601f106138d1576101008083540402835291602001916138fc565b820191906000526020600020905b8154815290600101906020018083116138df57829003601f168201915b50505050506000614a2e565b5b613914826001614a2e565b8160126000858152602001908152602001600020908051906020019061393b92919061572e565b50601a60009054906101000a900473ffffffffffffffffffffffffffffffffffffffff1673ffffffffffffffffffffffffffffffffffffffff166342966c68670de0b6b3a76400006107d0026040518263ffffffff1660e01b815260040180828152602001915050602060405180830381600087803b1580156139bd57600080fd5b505af11580156139d1573d6000803e3d6000fd5b505050506040513d60208110156139e757600080fd5b810190808051906020019092919050505050827f7e632a301794d8d4a81ea7e20f37d1947158d36e66403af04ba85dd194b66f1b836040518080602001828103825283818151815260200191508051906020019080838360005b83811015613a5c578082015181840152602081019050613a41565b50505050905090810190601f168015613a895780820380516001836020036101000a031916815260200191505b509250505060405180910390a2505050565b60006016600083815260200190815260200160002060009054906101000a900460ff169050919050565b60085481565b600b5481565b60065481565b6000613ae2836121ef565b90508073ffffffffffffffffffffffffffffffffffffffff16613b03614517565b73ffffffffffffffffffffffffffffffffffffffff1614613b8c576040517f08c379a000000000000000000000000000000000000000000000000000000000815260040180806020018281038252601f8152602001807f4552433732313a2063616c6c6572206973206e6f7420746865206f776e65720081525060200191505060405180910390fd5b60011515613b9983612cfb565b151514613c0e576040517f08c379a00000000000000000000000000000000000000000000000000000000081526004018080602001828103825260148152602001807f4e6f7420612076616c6964206e6577206e616d6500000000000000000000000081525060200191505060405180910390fd5b6002601360008581526020019081526020016000206040518082805460018160011615610100020316600290048015613c7e5780601f10613c5c576101008083540402835291820191613c7e565b820191906000526020600020905b815481529060010190602001808311613c6a575b5050915050602060405180830381855afa158015613ca0573d6000803e3d6000fd5b5050506040513d6020811015613cb557600080fd5b81019080805190602001909291905050506002836040518082805190602001908083835b60208310613cfc5780518252602082019150602081019050602083039250613cd9565b6001836020036101000a038019825116818451168082178552505050505050905001915050602060405180830381855afa158015613d3e573d6000803e3d6000fd5b5050506040513d6020811015613d5357600080fd5b81019080805190602001909291905050501415613dbb576040517f08c379a0000000000000000000000000000000000000000000000000000000008152600401808060200182810382526023815260200180615a2b6023913960400191505060405180910390fd5b601a60009054906101000a900473ffffffffffffffffffffffffffffffffffffffff1673ffffffffffffffffffffffffffffffffffffffff166323b872dd3330670de0b6b3a76400006107d0026040518463ffffffff1660e01b8152600401808473ffffffffffffffffffffffffffffffffffffffff1681526020018373ffffffffffffffffffffffffffffffffffffffff1681526020018281526020019350505050602060405180830381600087803b158015613e7857600080fd5b505af1158015613e8c573d6000803e3d6000fd5b505050506040513d6020811015613ea257600080fd5b81019080805190602001909291905050505081601360008581526020019081526020016000209080519060200190613edb92919061572e565b50601a60009054906101000a900473ffffffffffffffffffffffffffffffffffffffff1673ffffffffffffffffffffffffffffffffffffffff166342966c68670de0b6b3a76400006107d0026040518263ffffffff1660e01b815260040180828152602001915050602060405180830381600087803b158015613f5d57600080fd5b505af1158015613f71573d6000803e3d6000fd5b505050506040513d6020811015613f8757600080fd5b810190808051906020019092919050505050827fc08f00439f67ede4cd3bf3516b07a5934614481602463c4c4ad2a0be58badf5c836040518080602001828103825283818151815260200191508051906020019080838360005b83811015613ffc578082015181840152602081019050613fe1565b50505050905090810190601f1680156140295780820380516001836020036101000a031916815260200191505b509250505060405180910390a2505050565b600a5481565b6000601760008473ffffffffffffffffffffffffffffffffffffffff1673ffffffffffffffffffffffffffffffffffffffff16815260200190815260200160002060008373ffffffffffffffffffffffffffffffffffffffff1673ffffffffffffffffffffffffffffffffffffffff16815260200190815260200160002060009054906101000a900460ff16905092915050565b6140dd614517565b73ffffffffffffffffffffffffffffffffffffffff1660008054906101000a900473ffffffffffffffffffffffffffffffffffffffff1673ffffffffffffffffffffffffffffffffffffffff161461419d576040517f08c379a00000000000000000000000000000000000000000000000000000000081526004018080602001828103825260208152602001807f4f776e61626c653a2063616c6c6572206973206e6f7420746865206f776e657281525060200191505060405180910390fd5b600073ffffffffffffffffffffffffffffffffffffffff168173ffffffffffffffffffffffffffffffffffffffff161415614223576040517f08c379a00000000000000000000000000000000000000000000000000000000081526004018080602001828103825260268152602001806158206026913960400191505060405180910390fd5b8073ffffffffffffffffffffffffffffffffffffffff1660008054906101000a900473ffffffffffffffffffffffffffffffffffffffff1673ffffffffffffffffffffffffffffffffffffffff167f8be0079c531659141344cd1fd0a4f28419497f9722a3daafe3b4186f6b6457e060405160405180910390a3806000806101000a81548173ffffffffffffffffffffffffffffffffffffffff021916908373ffffffffffffffffffffffffffffffffffffffff16021790555050565b600082821115614358576040517f08c379a000000000000000000000000000000000000000000000000000000000815260040180806020018281038252601e8152602001807f536166654d6174683a207375627472616374696f6e206f766572666c6f77000081525060200191505060405180910390fd5b818303905092915050565b6000808284019050838110156143e1576040517f08c379a000000000000000000000000000000000000000000000000000000000815260040180806020018281038252601b8152602001807f536166654d6174683a206164646974696f6e206f766572666c6f77000000000081525060200191505060405180910390fd5b8091505092915050565b6000808211614462576040517f08c379a000000000000000000000000000000000000000000000000000000000815260040180806020018281038252601a8152602001807f536166654d6174683a206469766973696f6e206279207a65726f00000000000081525060200191505060405180910390fd5b81838161446b57fe5b04905092915050565b60008083141561448757600090506144f4565b600082840290508284828161449857fe5b04146144ef576040517f08c379a00000000000000000000000000000000000000000000000000000000081526004018080602001828103825260218152602001806159b56021913960400191505060405180910390fd5b809150505b92915050565b600061451082600e614abb90919063ffffffff16565b9050919050565b600033905090565b816010600083815260200190815260200160002060006101000a81548173ffffffffffffffffffffffffffffffffffffffff021916908373ffffffffffffffffffffffffffffffffffffffff160217905550808273ffffffffffffffffffffffffffffffffffffffff16614592836121ef565b73ffffffffffffffffffffffffffffffffffffffff167f8c5be1e5ebec7d5bd14f71427d1e84f3dd0314c0f7b2291e5b200ac8c7c3b92560405160405180910390a45050565b60006145e682600001614ad5565b9050919050565b60006145f8826144fa565b61464d576040517f08c379a000000000000000000000000000000000000000000000000000000000815260040180806020018281038252602c815260200180615890602c913960400191505060405180910390fd5b6000614658836121ef565b90508073ffffffffffffffffffffffffffffffffffffffff168473ffffffffffffffffffffffffffffffffffffffff1614806146c757508373ffffffffffffffffffffffffffffffffffffffff166146af846119c1565b73ffffffffffffffffffffffffffffffffffffffff16145b806146d857506146d78185614041565b5b91505092915050565b8273ffffffffffffffffffffffffffffffffffffffff16614701826121ef565b73ffffffffffffffffffffffffffffffffffffffff161461476d576040517f08c379a0000000000000000000000000000000000000000000000000000000008152600401808060200182810382526029815260200180615a026029913960400191505060405180910390fd5b600073ffffffffffffffffffffffffffffffffffffffff168273ffffffffffffffffffffffffffffffffffffffff1614156147f3576040517f08c379a00000000000000000000000000000000000000000000000000000000081526004018080602001828103825260248152602001806158466024913960400191505060405180910390fd5b6147fe838383614ae6565b61480960008261451f565b61485a81600d60008673ffffffffffffffffffffffffffffffffffffffff1673ffffffffffffffffffffffffffffffffffffffff168152602001908152602001600020614aeb90919063ffffffff16565b506148ac81600d60008573ffffffffffffffffffffffffffffffffffffffff1673ffffffffffffffffffffffffffffffffffffffff168152602001908152602001600020614b0590919063ffffffff16565b506148c38183600e614b1f9092919063ffffffff16565b50808273ffffffffffffffffffffffffffffffffffffffff168473ffffffffffffffffffffffffffffffffffffffff167fddf252ad1be2c89b69c2b068fc378daa952ba7f163c4a11628f55a4df523b3ef60405160405180910390a4505050565b60006149338360000183614b54565b60001c905092915050565b6000806000806149518660000186614bd7565b915091508160001c8160001c9350935050509250929050565b600061497d846000018460001b84614c70565b60001c90509392505050565b600061499782600001614d66565b9050919050565b6149b8828260405180602001604052806000815250614d77565b5050565b6149c78484846146e1565b6149d384848484614de8565b614a28576040517f08c379a00000000000000000000000000000000000000000000000000000000081526004018080602001828103825260328152602001806157ee6032913960400191505060405180910390fd5b50505050565b806015614a3a84612ad7565b6040518082805190602001908083835b60208310614a6d5780518252602082019150602081019050602083039250614a4a565b6001836020036101000a038019825116818451168082178552505050505050905001915050908152602001604051809103902060006101000a81548160ff0219169083151502179055505050565b6000614acd836000018360001b615001565b905092915050565b600081600001805490509050919050565b505050565b6000614afd836000018360001b615024565b905092915050565b6000614b17836000018360001b61510c565b905092915050565b6000614b4b846000018460001b8473ffffffffffffffffffffffffffffffffffffffff1660001b61517c565b90509392505050565b600081836000018054905011614bb5576040517f08c379a00000000000000000000000000000000000000000000000000000000081526004018080602001828103825260228152602001806157cc6022913960400191505060405180910390fd5b826000018281548110614bc457fe5b9060005260206000200154905092915050565b60008082846000018054905011614c39576040517f08c379a00000000000000000000000000000000000000000000000000000000081526004018080602001828103825260228152602001806159936022913960400191505060405180910390fd5b6000846000018481548110614c4a57fe5b906000526020600020906002020190508060000154816001015492509250509250929050565b60008084600101600085815260200190815260200160002054905060008114158390614d37576040517f08c379a00000000000000000000000000000000000000000000000000000000081526004018080602001828103825283818151815260200191508051906020019080838360005b83811015614cfc578082015181840152602081019050614ce1565b50505050905090810190601f168015614d295780820380516001836020036101000a031916815260200191505b509250505060405180910390fd5b50846000016001820381548110614d4a57fe5b9060005260206000209060020201600101549150509392505050565b600081600001805490509050919050565b614d818383615258565b614d8e6000848484614de8565b614de3576040517f08c379a00000000000000000000000000000000000000000000000000000000081526004018080602001828103825260328152602001806157ee6032913960400191505060405180910390fd5b505050565b6000614e098473ffffffffffffffffffffffffffffffffffffffff1661546b565b614e165760019050614ff9565b6060614f8063150b7a0260e01b614e2b614517565b888787604051602401808573ffffffffffffffffffffffffffffffffffffffff1681526020018473ffffffffffffffffffffffffffffffffffffffff16815260200183815260200180602001828103825283818151815260200191508051906020019080838360005b83811015614eaf578082015181840152602081019050614e94565b50505050905090810190601f168015614edc5780820380516001836020036101000a031916815260200191505b5095505050505050604051602081830303815290604052907bffffffffffffffffffffffffffffffffffffffffffffffffffffffff19166020820180517bffffffffffffffffffffffffffffffffffffffffffffffffffffffff83818316178352505050506040518060600160405280603281526020016157ee603291398773ffffffffffffffffffffffffffffffffffffffff1661547e9092919063ffffffff16565b90506000818060200190516020811015614f9957600080fd5b8101908080519060200190929190505050905063150b7a0260e01b7bffffffffffffffffffffffffffffffffffffffffffffffffffffffff1916817bffffffffffffffffffffffffffffffffffffffffffffffffffffffff191614925050505b949350505050565b600080836001016000848152602001908152602001600020541415905092915050565b60008083600101600084815260200190815260200160002054905060008114615100576000600182039050600060018660000180549050039050600086600001828154811061506f57fe5b906000526020600020015490508087600001848154811061508c57fe5b90600052602060002001819055506001830187600101600083815260200190815260200160002081905550866000018054806150c457fe5b60019003818190600052602060002001600090559055866001016000878152602001908152602001600020600090556001945050505050615106565b60009150505b92915050565b60006151188383615496565b615171578260000182908060018154018082558091505060019003906000526020600020016000909190919091505582600001805490508360010160008481526020019081526020016000208190555060019050615176565b600090505b92915050565b600080846001016000858152602001908152602001600020549050600081141561522357846000016040518060400160405280868152602001858152509080600181540180825580915050600190039060005260206000209060020201600090919091909150600082015181600001556020820151816001015550508460000180549050856001016000868152602001908152602001600020819055506001915050615251565b8285600001600183038154811061523657fe5b90600052602060002090600202016001018190555060009150505b9392505050565b600073ffffffffffffffffffffffffffffffffffffffff168273ffffffffffffffffffffffffffffffffffffffff1614156152fb576040517f08c379a00000000000000000000000000000000000000000000000000000000081526004018080602001828103825260208152602001807f4552433732313a206d696e7420746f20746865207a65726f206164647265737381525060200191505060405180910390fd5b615304816144fa565b15615377576040517f08c379a000000000000000000000000000000000000000000000000000000000815260040180806020018281038252601c8152602001807f4552433732313a20746f6b656e20616c7265616479206d696e7465640000000081525060200191505060405180910390fd5b61538360008383614ae6565b6153d481600d60008573ffffffffffffffffffffffffffffffffffffffff1673ffffffffffffffffffffffffffffffffffffffff168152602001908152602001600020614b0590919063ffffffff16565b506153dd6131b9565b601460008381526020019081526020016000208190555061540a8183600e614b1f9092919063ffffffff16565b50808273ffffffffffffffffffffffffffffffffffffffff16600073ffffffffffffffffffffffffffffffffffffffff167fddf252ad1be2c89b69c2b068fc378daa952ba7f163c4a11628f55a4df523b3ef60405160405180910390a45050565b600080823b905060008111915050919050565b606061548d84846000856154b9565b90509392505050565b600080836001016000848152602001908152602001600020541415905092915050565b606082471015615514576040517f08c379a000000000000000000000000000000000000000000000000000000000815260040180806020018281038252602681526020018061586a6026913960400191505060405180910390fd5b61551d8561546b565b61558f576040517f08c379a000000000000000000000000000000000000000000000000000000000815260040180806020018281038252601d8152602001807f416464726573733a2063616c6c20746f206e6f6e2d636f6e747261637400000081525060200191505060405180910390fd5b600060608673ffffffffffffffffffffffffffffffffffffffff1685876040518082805190602001908083835b602083106155df57805182526020820191506020810190506020830392506155bc565b6001836020036101000a03801982511681845116808217855250505050505090500191505060006040518083038185875af1925050503d8060008114615641576040519150601f19603f3d011682016040523d82523d6000602084013e615646565b606091505b5091509150615656828286615662565b92505050949350505050565b6060831561567257829050615727565b6000835111156156855782518084602001fd5b816040517f08c379a00000000000000000000000000000000000000000000000000000000081526004018080602001828103825283818151815260200191508051906020019080838360005b838110156156ec5780820151818401526020810190506156d1565b50505050905090810190601f1680156157195780820380516001836020036101000a031916815260200191505b509250505060405180910390fd5b9392505050565b828054600181600116156101000203166002900490600052602060002090601f016020900481019282601f1061576f57805160ff191683800117855561579d565b8280016001018555821561579d579182015b8281111561579c578251825591602001919060010190615781565b5b5090506157aa91906157ae565b5090565b5b808211156157c75760008160009055506001016157af565b509056fe456e756d657261626c655365743a20696e646578206f7574206f6620626f756e64734552433732313a207472616e7366657220746f206e6f6e20455243373231526563656976657220696d706c656d656e7465724f776e61626c653a206e6577206f776e657220697320746865207a65726f20616464726573734552433732313a207472616e7366657220746f20746865207a65726f2061646472657373416464726573733a20696e73756666696369656e742062616c616e636520666f722063616c6c4552433732313a206f70657261746f7220717565727920666f72206e6f6e6578697374656e7420746f6b656e4552433732313a20617070726f76652063616c6c6572206973206e6f74206f776e6572206e6f7220617070726f76656420666f7220616c6c596f75206d6179206e6f7420627579206d6f7265207468616e203230204e465473206174206f6e6365424e4220646973747269627574696f6e206973206e6f74206f70656e6564207965742e4552433732313a2062616c616e636520717565727920666f7220746865207a65726f20616464726573734552433732313a206f776e657220717565727920666f72206e6f6e6578697374656e7420746f6b656e456e756d657261626c654d61703a20696e646578206f7574206f6620626f756e6473536166654d6174683a206d756c7469706c69636174696f6e206f766572666c6f774552433732313a20617070726f76656420717565727920666f72206e6f6e6578697374656e7420746f6b656e4552433732313a207472616e73666572206f6620746f6b656e2074686174206973206e6f74206f776e4e6577206e616d652069732073616d65206173207468652063757272656e74206f6e654552433732313a20617070726f76616c20746f2063757272656e74206f776e65724552433732313a207472616e736665722063616c6c6572206973206e6f74206f776e6572206e6f7220617070726f76656464663736306337373161643030366561636530643730353338336237343135383936376537386336653938306233356636373032343962353832323468617368a26469706673582212207019719dec927ddfa32fb7f301428dedf30ad7847d32655da3115b0495f74d3d64736f6c63430007000033",
  "immutableReferences": {},
  "source": "// SPDX-License-Identifier: UNLICENSED\npragma solidity ^0.7.0;\n\nimport \"./ERC165/IERC165.sol\";\nimport \"./ERC165/ERC165.sol\";\nimport \"@openzeppelin/contracts/utils/Address.sol\";\nimport \"@openzeppelin/contracts/utils/EnumerableMap.sol\";\nimport \"@openzeppelin/contracts/utils/EnumerableSet.sol\";\nimport \"@openzeppelin/contracts/utils/Strings.sol\";\nimport \"@openzeppelin/contracts/math/SafeMath.sol\";\nimport \"./utils/Context.sol\";\nimport \"./utils/Ownable.sol\";\nimport \"./ERC20/IERC20.sol\";\nimport \"./IBearNBearToken.sol\";\nimport \"./ERC721/IERC721Enumerable.sol\";\n\n/**\n * @title ERC-721 Non-Fungible Token Standard, optional metadata extension\n * @dev See https://eips.ethereum.org/EIPS/eip-721\n */\ninterface IERC721Metadata is IERC721 {\n\n    /**\n     * @dev Returns the token collection name.\n     */\n    function name() external view returns (string memory);\n\n    /**\n     * @dev Returns the token collection symbol.\n     */\n    function symbol() external view returns (string memory);\n}\n\n/**\n * @title ERC721 token receiver interface\n * @dev Interface for any contract that wants to support safeTransfers\n * from ERC721 asset contracts.\n */\ninterface IERC721Receiver {\n    /**\n     * @dev Whenever an {IERC721} `tokenId` token is transferred to this contract via {IERC721-safeTransferFrom}\n     * by `operator` from `from`, this function is called.\n     *\n     * It must return its Solidity selector to confirm the token transfer.\n     * If any other value is returned or the interface is not implemented by the recipient, the transfer will be reverted.\n     *\n     * The selector can be obtained in Solidity with `IERC721.onERC721Received.selector`.\n     */\n    function onERC721Received(address operator, address from, uint256 tokenId, bytes calldata data) external returns (bytes4);\n}\n\n/**\n * @title BearNBear contract\n * @dev Extends ERC721 Non-Fungible Token Standard basic implementation\n */\ncontract BearNBearToken is Context, Ownable, ERC165, IBearNBearToken, IERC721Metadata {\n    using SafeMath for uint256;\n    using Address for address;\n    using EnumerableSet for EnumerableSet.UintSet;\n    using EnumerableMap for EnumerableMap.UintToAddressMap;\n    using Strings for uint256;\n\n    uint constant PRECISION = 10 ** 18;\n    uint BASE_PRICE = 1;\n\n    // This is the provenance record of all artworks in existence\n    string public constant IPFS_PROVENANCE = \"df760c771ad006eace0d705383b74158967e78c6e980b35f670249b58224hash\";\n\n    uint256 public constant DECAY_COMMUNITY_TAKE_HOME_RATE_THRESHOLD = 24 hours;\n\n    uint256 public SALE_START_TIMESTAMP; // set by constructor\n    // Time to reveal all bears and stop NCT bonus\n    uint256 public NCT_BONUS_END_TIMESTAMP = SALE_START_TIMESTAMP + 30 days;\n    uint256 public REVEAL_TIMESTAMP = SALE_START_TIMESTAMP + 30 days + 30 days;\n    uint256 public BNB_DISTRIBUTION_TIMESTAMP = SALE_START_TIMESTAMP + 30 days + 30 days + 30 days;\n\n    uint256 public constant NAME_CHANGE_PRICE = 2000 * PRECISION;\n    uint256 public constant DESCRIPTION_CHANGE_PRICE = 2000 * PRECISION;\n\n    uint256 public MAX_NFT_SUPPLY = 17153;\n\n    // uint256 public constant depreciationDecayRatePerSecond = 999499833283400000;\n    // uint256 public constant depreciationDecayRatePerHour = 999400000000000000;\n    uint256 public constant depreciationDecayRatePerDay = 969663144650000000;\n\n    uint256 public communityTakeHomeRate = 800000000000000000;\n\n    uint256 public communityTakeHomeRateUpdatedAt = SALE_START_TIMESTAMP + 24 hours;\n\n    uint256 public startingIndexBlock = 0;\n\n    uint256 public startingIndex;\n\n    uint256 public BNBDistribution;\n\n    // Equals to `bytes4(keccak256(\"onERC721Received(address,address,uint256,bytes)\"))`\n    // which can be also obtained as `IERC721Receiver(0).onERC721Received.selector`\n    bytes4 private constant _ERC721_RECEIVED = 0x150b7a02;\n\n    // Mapping from holder address to their (enumerable) set of owned NFT\n    mapping (address => EnumerableSet.UintSet) private _holderNFT;\n\n    // Enumerable mapping from token ids to their owners\n    EnumerableMap.UintToAddressMap private _tokenOwners;\n\n    // TODO: line 119-131 can be a struct\n    // e.g.\n    //    mapping (uint256  => Bear) public Bears;\n    //\n    //    struct Bear {\n    //        string name;\n    //        string NCTGeneratingMultiplier;\n    //        bool BNBClaimability;\n    //        bool mintedBeforeReveal;\n    //    }\n    // https://ethereum.stackexchange.com/questions/52416/how-to-check-boolean-variable-is-true-in-modifier/52417\n    //\n    // Mapping from token ID to approved address\n    mapping (uint256 => address) private _tokenApprovals;\n\n    // Mapping from token ID to approved address\n    mapping (uint256 => bool) private _tokenBNBClaimability;\n\n    // Mapping from token ID to name\n    mapping (uint256 => string) private _tokenName;\n\n    // Mapping from token ID to description\n    mapping (uint256 => string) private _tokenDescription;\n\n    // Mapping from token ID to NCT generating multiplier\n    mapping (uint256 => uint256) private _tokenNCTGeneratingMultiplier;\n\n    // Mapping if certain name string has already been reserved\n    mapping (string => bool) private _nameReserved;\n\n    // Mapping from token ID to whether the Hashmask was minted before reveal\n    mapping (uint256 => bool) private _mintedWithBonusNCT;\n\n    // Mapping from owner to operator approvals\n    mapping (address => mapping (address => bool)) private _operatorApprovals;\n\n    // Token name\n    string private _name;\n\n    // Token symbol\n    string private _symbol;\n\n    // Name change token address\n    address private _nctAddress;\n\n    /*\n     *     bytes4(keccak256('balanceOf(address)')) == 0x70a08231\n     *     bytes4(keccak256('ownerOf(uint256)')) == 0x6352211e\n     *     bytes4(keccak256('approve(address,uint256)')) == 0x095ea7b3\n     *     bytes4(keccak256('getApproved(uint256)')) == 0x081812fc\n     *     bytes4(keccak256('setApprovalForAll(address,bool)')) == 0xa22cb465\n     *     bytes4(keccak256('isApprovedForAll(address,address)')) == 0xe985e9c5\n     *     bytes4(keccak256('transferFrom(address,address,uint256)')) == 0x23b872dd\n     *     bytes4(keccak256('safeTransferFrom(address,address,uint256)')) == 0x42842e0e\n     *     bytes4(keccak256('safeTransferFrom(address,address,uint256,bytes)')) == 0xb88d4fde\n     *\n     *     => 0x70a08231 ^ 0x6352211e ^ 0x095ea7b3 ^ 0x081812fc ^\n     *        0xa22cb465 ^ 0xe985e9c5 ^ 0x23b872dd ^ 0x42842e0e ^ 0xb88d4fde == 0x80ac58cd\n     */\n    bytes4 private constant _INTERFACE_ID_ERC721 = 0x80ac58cd;\n\n    /*\n     *     bytes4(keccak256('name()')) == 0x06fdde03\n     *     bytes4(keccak256('symbol()')) == 0x95d89b41\n     *\n     *     => 0x06fdde03 ^ 0x95d89b41 == 0x93254542\n     */\n    bytes4 private constant _INTERFACE_ID_ERC721_METADATA = 0x93254542;\n\n    /*\n     *     bytes4(keccak256('totalSupply()')) == 0x18160ddd\n     *     bytes4(keccak256('tokenOfOwnerByIndex(address,uint256)')) == 0x2f745c59\n     *     bytes4(keccak256('tokenByIndex(uint256)')) == 0x4f6ccce7\n     *\n     *     => 0x18160ddd ^ 0x2f745c59 ^ 0x4f6ccce7 == 0x780e9d63\n     */\n    bytes4 private constant _INTERFACE_ID_ERC721_ENUMERABLE = 0x780e9d63;\n\n    // Events\n    event NameChange (uint256 indexed tokenIndex, string newName);\n    event DescriptionChange (uint256 indexed tokenIndex, string newDescription);\n    event BNBClaim (uint256 indexed tokenIndex, uint256 BNBAmount);\n\n    /**\n     * @dev Initializes the contract by setting a `name` and a `symbol` to the token collection.\n     */\n    constructor (string memory name, string memory symbol, address nctAddress, uint256 saleStartTimestamp, uint256 maxSupply, uint base_price) {\n        _name = name;\n        _symbol = symbol;\n        _nctAddress = nctAddress;\n        MAX_NFT_SUPPLY = maxSupply;\n        BASE_PRICE = base_price;\n\n        SALE_START_TIMESTAMP       = saleStartTimestamp; // set by constructor\n        NCT_BONUS_END_TIMESTAMP    = SALE_START_TIMESTAMP + 30 days;\n        REVEAL_TIMESTAMP           = SALE_START_TIMESTAMP + 30 days + 30 days;\n        BNB_DISTRIBUTION_TIMESTAMP = SALE_START_TIMESTAMP + 30 days + 30 days + 30 days;\n\n        communityTakeHomeRateUpdatedAt = SALE_START_TIMESTAMP + DECAY_COMMUNITY_TAKE_HOME_RATE_THRESHOLD;\n\n        // register the supported interfaces to conform to ERC721 via ERC165\n        _registerInterface(_INTERFACE_ID_ERC721);\n        _registerInterface(_INTERFACE_ID_ERC721_METADATA);\n        _registerInterface(_INTERFACE_ID_ERC721_ENUMERABLE);\n    }\n\n    /**\n     * @dev See {IERC721-balanceOf}.\n     */\n    function balanceOf(address owner) public view override returns (uint256) {\n        require(owner != address(0), \"ERC721: balance query for the zero address\");\n\n        return _holderNFT[owner].length();\n    }\n\n    /**\n     * @dev See {IERC721-ownerOf}.\n     */\n    function ownerOf(uint256 tokenId) public view override returns (address) {\n        return _tokenOwners.get(tokenId, \"ERC721: owner query for nonexistent token\");\n    }\n\n    /**\n     * @dev See {IERC721Metadata-name}.\n     */\n    function name() public view override returns (string memory) {\n        return _name;\n    }\n\n    /**\n     * @dev See {IERC721Metadata-symbol}.\n     */\n    function symbol() public view override returns (string memory) {\n        return _symbol;\n    }\n\n    /**\n     * @dev See {IERC721Enumerable-tokenOfOwnerByIndex}.\n     */\n    function tokenOfOwnerByIndex(address owner, uint256 index) public view override returns (uint256) {\n        return _holderNFT[owner].at(index);\n    }\n\n    /**\n     * @dev See {IERC721Enumerable-totalSupply}.\n     */\n    function totalSupply() public view override returns (uint256) {\n        // _tokenOwners are indexed by tokenIds, so .length() returns the number of tokenIds\n        return _tokenOwners.length();\n    }\n\n    /**\n     * @dev See {IERC721Enumerable-tokenByIndex}.\n     */\n    function tokenByIndex(uint256 index) public view override returns (uint256) {\n        (uint256 tokenId, ) = _tokenOwners.at(index);\n        return tokenId;\n    }\n\n    /**\n     * @dev Returns name of the NFT at index.\n     */\n    function tokenNameByIndex(uint256 index) public view returns (string memory) {\n        return _tokenName[index];\n    }\n\n    /**\n     * @dev Returns description of the NFT at index.\n     */\n    function tokenDescriptionByIndex(uint256 index) public view returns (string memory) {\n        return _tokenDescription[index];\n    }\n\n    /**\n     * @dev Gets face's NCT generation multiplier\n     */\n    function tokenNCTGeneratingMultiplierByIndex(uint256 index) public view override returns (uint256) {\n        return _tokenNCTGeneratingMultiplier[index];\n    }\n\n    /**\n     * @dev Returns if the name has been reserved.\n     */\n    function isNameReserved(string memory nameString) public view returns (bool) {\n        return _nameReserved[toLower(nameString)];\n    }\n\n    /**\n     * @dev Returns if the NFT has bonus NCTs\n     */\n    function isMintedWithBonusNCT(uint256 index) public view override returns (bool) {\n        return _mintedWithBonusNCT[index];\n    }\n\n    /**\n     * @dev Returns initial granted NCT amount\n     */\n    function initGrantedNCT() public view override returns (uint256) {\n        return NAME_CHANGE_PRICE + DESCRIPTION_CHANGE_PRICE + 170 * PRECISION; // a little bit more :)\n    }\n\n    /**\n     * @dev Init BearNBear initial price\n     */\n    function initNFTPrice() public view returns (uint256) {\n        require(block.timestamp >= SALE_START_TIMESTAMP, \"Sale has not started\");\n        require(totalSupply() <= MAX_NFT_SUPPLY, \"Sale has already ended\");\n\n        uint currentSupply = totalSupply();\n\n        if (currentSupply >= 17150) {\n            // 17150 - 17153\n            // 100.00 BNB\n            return 1000*BASE_PRICE;\n        } else if (currentSupply >= 17050) {\n            // 17050 - 17150\n            // 10.0 BNB\n            return 100*BASE_PRICE;\n        } else if (currentSupply >= 13800) {\n            // 13800 - 17049\n            // 2.4 BNB\n            return 24*BASE_PRICE;\n        } else if (currentSupply >= 10500) {\n            // 10500 - 13799\n            // 1.2 BNB\n            return 12*BASE_PRICE;\n        } else if (currentSupply >= 7100) {\n            // 7100 - 10499\n            // 0.6 BNB\n            return 6*BASE_PRICE;\n        } else if (currentSupply >= 3600) {\n            // 3600 - 7099\n            // 0.3 BNB\n            return 3*BASE_PRICE;\n        } else {\n            // 0 - 3599\n            // 0.1 BNB\n            return 1*BASE_PRICE;\n        }\n    }\n\n    /**\n     * @dev Init NCT generation multiplier\n     */\n    function initNCTMultiplier() public view returns (uint256) {\n        require(block.timestamp >= SALE_START_TIMESTAMP, \"Sale has not started\");\n        require(totalSupply() <= MAX_NFT_SUPPLY, \"Sale has already ended\");\n\n        uint currentSupply = totalSupply();\n\n        if (currentSupply >= 17150) {\n            // 17150 - 17153\n            return 20;\n        } else if (currentSupply >= 17050) {\n            // 17050 - 17150\n            return 15;\n        } else if (currentSupply >= 13800) {\n            // 13800 - 17049\n            return 15;\n        } else if (currentSupply >= 10500) {\n            // 10500 - 13799\n            return 15;\n        } else if (currentSupply >= 7100) {\n            // 7100 - 10499\n            return 10;\n        } else if (currentSupply >= 3600) {\n            // 3600 - 7099\n            return 10;\n        } else {\n            // 0 - 3599\n            // generate 10 NCT per day\n            return 10;\n        }\n    }\n\n    /**\n    * @dev everyone can poke to decay communityTakeHomeRate\n    */\n    function pokeCommunityTakeHomeRate() public {\n        require(block.timestamp >= SALE_START_TIMESTAMP, \"Sale has not started\");\n        require(totalSupply() <= MAX_NFT_SUPPLY, \"Sale has already ended\");\n\n        if(block.timestamp >= REVEAL_TIMESTAMP && communityTakeHomeRate != 200000000000000000) {\n            // if NFT is not sold out before REVEAL_TIMESTAMP\n            // community can take up to 20% of total BNB accumulated in the first 45 days\n            // hard code 20% to reduce confusion\n            communityTakeHomeRate = 200000000000000000;\n        } else if (block.timestamp >= SALE_START_TIMESTAMP + DECAY_COMMUNITY_TAKE_HOME_RATE_THRESHOLD && block.timestamp < REVEAL_TIMESTAMP) {\n            // between DECAY_COMMUNITY_TAKE_HOME_RATE_THRESHOLD and REVEAL_TIMESTAMP\n            uint256 timeToDecay = (block.timestamp - communityTakeHomeRateUpdatedAt) / 1 days;\n            // to decay the communityTakeHomeRate\n            while (timeToDecay >= 1) {\n                communityTakeHomeRate = communityTakeHomeRate.mul(depreciationDecayRatePerDay).div(PRECISION);\n                communityTakeHomeRateUpdatedAt = block.timestamp;\n                timeToDecay = timeToDecay.sub(1);\n            }\n        }\n    }\n\n    /**\n    * @dev Buy/Mints NFT\n    */\n    function mintNFT(uint256 numberOfNfts) public payable {\n        require(block.timestamp >= SALE_START_TIMESTAMP, \"Sale has not started\");\n        require(totalSupply() <= MAX_NFT_SUPPLY, \"Sale has already ended\");\n        require(numberOfNfts > 0, \"numberOfNfts cannot be 0\");\n        require(numberOfNfts <= 20, \"You may not buy more than 20 NFTs at once\");\n        require(totalSupply().add(numberOfNfts) <= MAX_NFT_SUPPLY, \"Exceeds MAX_NFT_SUPPLY\");\n        require(initNFTPrice().mul(numberOfNfts) == msg.value, \"BNB value sent is not correct\");\n\n        for (uint i = 0; i < numberOfNfts; i++) {\n            uint mintIndex = totalSupply();\n            if (block.timestamp < REVEAL_TIMESTAMP) {\n                _mintedWithBonusNCT[mintIndex] = true;\n            }\n            _tokenBNBClaimability[mintIndex] = true;\n            _safeMint(msg.sender, mintIndex);\n        }\n\n        pokeCommunityTakeHomeRate();\n\n        /**\n        * Source of randomness. Theoretical miner withhold manipulation possible but should be sufficient in a pragmatic sense\n        */\n        if (startingIndexBlock == 0 && (totalSupply() == MAX_NFT_SUPPLY || block.timestamp >= REVEAL_TIMESTAMP)) {\n            startingIndexBlock = block.number;\n        }\n    }\n\n    /**\n     * @dev End the sale:\n            1. finalize startingIndex\n            2. set BNBDistribution\n     */\n    function finalizeStartingIndexAndBNBDistribution() public {\n        require(startingIndex == 0, \"Starting index is already set\");\n        require(startingIndexBlock != 0, \"Starting index block must be set\");\n\n        startingIndex = uint(blockhash(startingIndexBlock)) % MAX_NFT_SUPPLY;\n        // Just a sanity case in the worst case if this function is called late (EVM only stores last 256 block hashes)\n        if (block.number.sub(startingIndexBlock) > 255) {\n            startingIndex = uint(blockhash(block.number-1)) % MAX_NFT_SUPPLY;\n        }\n        // Prevent default sequence\n        if (startingIndex == 0) {\n            startingIndex = startingIndex.add(1);\n        }\n\n        // set how many BNB everyone can take home\n        if(BNBDistribution == 0) {\n            BNBDistribution = address(this).balance.div(totalSupply()).mul(communityTakeHomeRate).div(PRECISION);\n        }\n    }\n\n    /**\n     * @dev Take BNB home\n     */\n    function claimBNB(uint256 tokenId) public {\n        require(block.timestamp >= BNB_DISTRIBUTION_TIMESTAMP, \"BNB distribution is not opened yet.\");\n        require(_tokenBNBClaimability[tokenId], \"BNB has been claimed.\");\n\n        (bool sent, bytes memory data) = msg.sender.call{value: BNBDistribution}(\"\");\n        require(sent, \"Failed to distribute BNB\");\n        _tokenBNBClaimability[tokenId] = false;\n        emit BNBClaim(tokenId, BNBDistribution);\n    }\n\n    /**\n     * @dev Changes the name for BearNBear tokenId\n     */\n    function changeName(uint256 tokenId, string memory newName) public {\n        address owner = ownerOf(tokenId);\n\n        require(_msgSender() == owner, \"ERC721: caller is not the owner\");\n        require(validateName(newName) == true, \"Not a valid new name\");\n        require(sha256(bytes(newName)) != sha256(bytes(_tokenName[tokenId])), \"New name is same as the current one\");\n        require(isNameReserved(newName) == false, \"Name already reserved\");\n\n        IERC20(_nctAddress).transferFrom(msg.sender, address(this), NAME_CHANGE_PRICE);\n        // If already named, dereserve old name\n        if (bytes(_tokenName[tokenId]).length > 0) {\n            toggleReserveName(_tokenName[tokenId], false);\n        }\n        toggleReserveName(newName, true);\n        _tokenName[tokenId] = newName;\n        IERC20(_nctAddress).burn(NAME_CHANGE_PRICE);\n        emit NameChange(tokenId, newName);\n    }\n\n    /**\n     * @dev Changes the description for BearNBear tokenId\n     */\n    function changeDescription(uint256 tokenId, string memory newDescription) public {\n        address owner = ownerOf(tokenId);\n\n        require(_msgSender() == owner, \"ERC721: caller is not the owner\");\n        require(validateName(newDescription) == true, \"Not a valid new name\");\n        require(sha256(bytes(newDescription)) != sha256(bytes(_tokenDescription[tokenId])), \"New name is same as the current one\");\n\n        IERC20(_nctAddress).transferFrom(msg.sender, address(this), DESCRIPTION_CHANGE_PRICE);\n        _tokenDescription[tokenId] = newDescription;\n        IERC20(_nctAddress).burn(DESCRIPTION_CHANGE_PRICE);\n        emit DescriptionChange(tokenId, newDescription);\n    }\n\n    /**\n     * @dev Withdraw ether from this contract (Callable by owner)\n    */\n    function withdraw() onlyOwner public {\n        uint balance = address(this).balance * (1 - communityTakeHomeRate/PRECISION);\n        msg.sender.transfer(balance);\n    }\n\n    /**\n     * @dev See {IERC721-approve}.\n     */\n    function approve(address to, uint256 tokenId) public virtual override {\n        address owner = ownerOf(tokenId);\n        require(to != owner, \"ERC721: approval to current owner\");\n\n        require(_msgSender() == owner || isApprovedForAll(owner, _msgSender()),\n            \"ERC721: approve caller is not owner nor approved for all\"\n        );\n\n        _approve(to, tokenId);\n    }\n\n    /**\n     * @dev See {IERC721-getApproved}.\n     */\n    function getApproved(uint256 tokenId) public view override returns (address) {\n        require(_exists(tokenId), \"ERC721: approved query for nonexistent token\");\n\n        return _tokenApprovals[tokenId];\n    }\n\n    /**\n     * @dev See {IERC721-setApprovalForAll}.\n     */\n    function setApprovalForAll(address operator, bool approved) public virtual override {\n        require(operator != _msgSender(), \"ERC721: approve to caller\");\n\n        _operatorApprovals[_msgSender()][operator] = approved;\n        emit ApprovalForAll(_msgSender(), operator, approved);\n    }\n\n    /**\n     * @dev See {IERC721-isApprovedForAll}.\n     */\n    function isApprovedForAll(address owner, address operator) public view override returns (bool) {\n        return _operatorApprovals[owner][operator];\n    }\n\n    /**\n     * @dev See {IERC721-transferFrom}.\n     */\n    function transferFrom(address from, address to, uint256 tokenId) public virtual override {\n        //solhint-disable-next-line max-line-length\n        require(_isApprovedOrOwner(_msgSender(), tokenId), \"ERC721: transfer caller is not owner nor approved\");\n\n        _transfer(from, to, tokenId);\n    }\n\n    /**\n     * @dev See {IERC721-safeTransferFrom}.\n     */\n    function safeTransferFrom(address from, address to, uint256 tokenId) public virtual override {\n        safeTransferFrom(from, to, tokenId, \"\");\n    }\n\n    /**\n     * @dev See {IERC721-safeTransferFrom}.\n     */\n    function safeTransferFrom(address from, address to, uint256 tokenId, bytes memory _data) public virtual override {\n        require(_isApprovedOrOwner(_msgSender(), tokenId), \"ERC721: transfer caller is not owner nor approved\");\n        _safeTransfer(from, to, tokenId, _data);\n    }\n\n    /**\n     * @dev Safely transfers `tokenId` token from `from` to `to`, checking first that contract recipients\n     * are aware of the ERC721 protocol to prevent tokens from being forever locked.\n     *\n     * `_data` is additional data, it has no specified format and it is sent in call to `to`.\n     *\n     * This internal function is equivalent to {safeTransferFrom}, and can be used to e.g.\n     * implement alternative mechanisms to perform token transfer, such as signature-based.\n     *\n     * Requirements:\n     *\n     * - `from` cannot be the zero address.\n     * - `to` cannot be the zero address.\n     * - `tokenId` token must exist and be owned by `from`.\n     * - If `to` refers to a smart contract, it must implement {IERC721Receiver-onERC721Received}, which is called upon a safe transfer.\n     *\n     * Emits a {Transfer} event.\n     */\n    function _safeTransfer(address from, address to, uint256 tokenId, bytes memory _data) internal virtual {\n        _transfer(from, to, tokenId);\n        require(_checkOnERC721Received(from, to, tokenId, _data), \"ERC721: transfer to non ERC721Receiver implementer\");\n    }\n\n    /**\n     * @dev Returns whether `tokenId` exists.\n     *\n     * Tokens can be managed by their owner or approved accounts via {approve} or {setApprovalForAll}.\n     *\n     * Tokens start existing when they are minted (`_mint`),\n     * and stop existing when they are burned (`_burn`).\n     */\n    function _exists(uint256 tokenId) internal view returns (bool) {\n        return _tokenOwners.contains(tokenId);\n    }\n\n    /**\n     * @dev Returns whether `spender` is allowed to manage `tokenId`.\n     *\n     * Requirements:\n     *\n     * - `tokenId` must exist.\n     */\n    function _isApprovedOrOwner(address spender, uint256 tokenId) internal view returns (bool) {\n        require(_exists(tokenId), \"ERC721: operator query for nonexistent token\");\n        address owner = ownerOf(tokenId);\n        return (spender == owner || getApproved(tokenId) == spender || isApprovedForAll(owner, spender));\n    }\n\n    /**\n     * @dev Safely mints `tokenId` and transfers it to `to`.\n     *\n     * Requirements:\n     d*\n     * - `tokenId` must not exist.\n     * - If `to` refers to a smart contract, it must implement {IERC721Receiver-onERC721Received}, which is called upon a safe transfer.\n     *\n     * Emits a {Transfer} event.\n     */\n    function _safeMint(address to, uint256 tokenId) internal virtual {\n        _safeMint(to, tokenId, \"\");\n    }\n\n    /**\n     * @dev Same as {xref-ERC721-_safeMint-address-uint256-}[`_safeMint`], with an additional `data` parameter which is\n     * forwarded in {IERC721Receiver-onERC721Received} to contract recipients.\n     */\n    function _safeMint(address to, uint256 tokenId, bytes memory _data) internal virtual {\n        _mint(to, tokenId);\n        require(_checkOnERC721Received(address(0), to, tokenId, _data), \"ERC721: transfer to non ERC721Receiver implementer\");\n    }\n\n    /**\n     * @dev Mints `tokenId` and transfers it to `to`.\n     *\n     * WARNING: Usage of this method is discouraged, use {_safeMint} whenever possible\n     *\n     * Requirements:\n     *\n     * - `tokenId` must not exist.\n     * - `to` cannot be the zero address.\n     *\n     * Emits a {Transfer} event.\n     */\n    function _mint(address to, uint256 tokenId) internal virtual {\n        require(to != address(0), \"ERC721: mint to the zero address\");\n        require(!_exists(tokenId), \"ERC721: token already minted\");\n\n        _beforeTokenTransfer(address(0), to, tokenId);\n\n        _holderNFT[to].add(tokenId);\n\n        _tokenNCTGeneratingMultiplier[tokenId] = initNCTMultiplier();\n\n        _tokenOwners.set(tokenId, to);\n\n        emit Transfer(address(0), to, tokenId);\n    }\n\n    /**\n     * @dev Destroys `tokenId`.\n     * The approval is cleared when the token is burned.\n     *\n     * Requirements:\n     *\n     * - `tokenId` must exist.\n     *\n     * Emits a {Transfer} event.\n     */\n    function _burn(uint256 tokenId) internal virtual {\n        address owner = ownerOf(tokenId);\n\n        _beforeTokenTransfer(owner, address(0), tokenId);\n\n        // Clear approvals\n        _approve(address(0), tokenId);\n\n        _holderNFT[owner].remove(tokenId);\n\n        _tokenOwners.remove(tokenId);\n\n        emit Transfer(owner, address(0), tokenId);\n    }\n\n    /**\n     * @dev Transfers `tokenId` from `from` to `to`.\n     *  As opposed to {transferFrom}, this imposes no restrictions on msg.sender.\n     *\n     * Requirements:\n     *\n     * - `to` cannot be the zero address.\n     * - `tokenId` token must be owned by `from`.\n     *\n     * Emits a {Transfer} event.\n     */\n    function _transfer(address from, address to, uint256 tokenId) internal virtual {\n        require(ownerOf(tokenId) == from, \"ERC721: transfer of token that is not own\");\n        require(to != address(0), \"ERC721: transfer to the zero address\");\n\n        _beforeTokenTransfer(from, to, tokenId);\n\n        // Clear approvals from the previous owner\n        _approve(address(0), tokenId);\n\n        _holderNFT[from].remove(tokenId);\n        _holderNFT[to].add(tokenId);\n\n        _tokenOwners.set(tokenId, to);\n\n        emit Transfer(from, to, tokenId);\n    }\n\n\n    /**\n     * @dev Internal function to invoke {IERC721Receiver-onERC721Received} on a target address.\n     * The call is not executed if the target address is not a contract.\n     *\n     * @param from address representing the previous owner of the given token ID\n     * @param to target address that will receive the tokens\n     * @param tokenId uint256 ID of the token to be transferred\n     * @param _data bytes optional data to send along with the call\n     * @return bool whether the call correctly returned the expected magic value\n     */\n    function _checkOnERC721Received(address from, address to, uint256 tokenId, bytes memory _data)\n    private returns (bool)\n    {\n        if (!to.isContract()) {\n            return true;\n        }\n        bytes memory returndata = to.functionCall(abi.encodeWithSelector(\n                IERC721Receiver(to).onERC721Received.selector,\n                _msgSender(),\n                from,\n                tokenId,\n                _data\n            ), \"ERC721: transfer to non ERC721Receiver implementer\");\n        bytes4 retval = abi.decode(returndata, (bytes4));\n        return (retval == _ERC721_RECEIVED);\n    }\n\n    function _approve(address to, uint256 tokenId) private {\n        _tokenApprovals[tokenId] = to;\n        emit Approval(ownerOf(tokenId), to, tokenId);\n    }\n\n    /**\n     * @dev Hook that is called before any token transfer. This includes minting\n     * and burning.\n     *\n     * Calling conditions:\n     *\n     * - When `from` and `to` are both non-zero, ``from``'s `tokenId` will be\n     * transferred to `to`.\n     * - When `from` is zero, `tokenId` will be minted for `to`.\n     * - When `to` is zero, ``from``'s `tokenId` will be burned.\n     * - `from` cannot be the zero address.\n     * - `to` cannot be the zero address.\n     *\n     * To learn more about hooks, head to xref:ROOT:extending-contracts.adoc#using-hooks[Using Hooks].\n     */\n    function _beforeTokenTransfer(address from, address to, uint256 tokenId) internal virtual { }\n\n    /**\n     * @dev Reserves the name if isReserve is set to true, de-reserves if set to false\n     */\n    function toggleReserveName(string memory str, bool isReserve) internal {\n        _nameReserved[toLower(str)] = isReserve;\n    }\n\n    /**\n     * @dev Check if the name string is valid (Alphanumeric and spaces without leading or trailing space)\n     */\n    function validateName(string memory str) public pure returns (bool){\n        bytes memory b = bytes(str);\n        if(b.length < 1) return false;\n        if(b.length > 25) return false; // Cannot be longer than 25 characters\n        if(b[0] == 0x20) return false; // Leading space\n        if (b[b.length - 1] == 0x20) return false; // Trailing space\n\n        bytes1 lastChar = b[0];\n\n        for(uint i; i<b.length; i++){\n            bytes1 char = b[i];\n\n            if (char == 0x20 && lastChar == 0x20) return false; // Cannot contain continous spaces\n\n            if(\n                !(char >= 0x30 && char <= 0x39) && //9-0\n            !(char >= 0x41 && char <= 0x5A) && //A-Z\n            !(char >= 0x61 && char <= 0x7A) && //a-z\n            !(char == 0x20) //space\n            )\n                return false;\n\n            lastChar = char;\n        }\n\n        return true;\n    }\n\n    /**\n     * @dev Converts the string to lowercase\n     */\n    function toLower(string memory str) public pure returns (string memory){\n        bytes memory bStr = bytes(str);\n        bytes memory bLower = new bytes(bStr.length);\n        for (uint i = 0; i < bStr.length; i++) {\n            // Uppercase character\n            if ((uint8(bStr[i]) >= 65) && (uint8(bStr[i]) <= 90)) {\n                bLower[i] = bytes1(uint8(bStr[i]) + 32);\n            } else {\n                bLower[i] = bStr[i];\n            }\n        }\n        return string(bLower);\n    }\n}\n",
  "sourcePath": "/Users/andychen/projects/bearnbear/contracts/BearNBearToken.sol",
  "compiler": {
    "name": "solc",
    "version": "0.7.0+commit.9e61f92b.Emscripten.clang"
  },
  "schemaVersion": "3.3.4",
  "updatedAt": "2021-03-02T05:55:14.391Z",
  "devdoc": {
    "details": "Extends ERC721 Non-Fungible Token Standard basic implementation",
    "kind": "dev",
    "methods": {
      "approve(address,uint256)": {
        "details": "See {IERC721-approve}."
      },
      "balanceOf(address)": {
        "details": "See {IERC721-balanceOf}."
      },
      "changeDescription(uint256,string)": {
        "details": "Changes the description for BearNBear tokenId"
      },
      "changeName(uint256,string)": {
        "details": "Changes the name for BearNBear tokenId"
      },
      "claimBNB(uint256)": {
        "details": "Take BNB home"
      },
      "constructor": {
        "details": "Initializes the contract by setting a `name` and a `symbol` to the token collection."
      },
      "finalizeStartingIndexAndBNBDistribution()": {
        "details": "End the sale: 1. finalize startingIndex 2. set BNBDistribution"
      },
      "getApproved(uint256)": {
        "details": "See {IERC721-getApproved}."
      },
      "initGrantedNCT()": {
        "details": "Returns initial granted NCT amount"
      },
      "initNCTMultiplier()": {
        "details": "Init NCT generation multiplier"
      },
      "initNFTPrice()": {
        "details": "Init BearNBear initial price"
      },
      "isApprovedForAll(address,address)": {
        "details": "See {IERC721-isApprovedForAll}."
      },
      "isMintedWithBonusNCT(uint256)": {
        "details": "Returns if the NFT has bonus NCTs"
      },
      "isNameReserved(string)": {
        "details": "Returns if the name has been reserved."
      },
      "mintNFT(uint256)": {
        "details": "Buy/Mints NFT"
      },
      "name()": {
        "details": "See {IERC721Metadata-name}."
      },
      "owner()": {
        "details": "Returns the address of the current owner."
      },
      "ownerOf(uint256)": {
        "details": "See {IERC721-ownerOf}."
      },
      "pokeCommunityTakeHomeRate()": {
        "details": "everyone can poke to decay communityTakeHomeRate"
      },
      "renounceOwnership()": {
        "details": "Leaves the contract without owner. It will not be possible to call `onlyOwner` functions anymore. Can only be called by the current owner. NOTE: Renouncing ownership will leave the contract without an owner, thereby removing any functionality that is only available to the owner."
      },
      "safeTransferFrom(address,address,uint256)": {
        "details": "See {IERC721-safeTransferFrom}."
      },
      "safeTransferFrom(address,address,uint256,bytes)": {
        "details": "See {IERC721-safeTransferFrom}."
      },
      "setApprovalForAll(address,bool)": {
        "details": "See {IERC721-setApprovalForAll}."
      },
      "supportsInterface(bytes4)": {
        "details": "See {IERC165-supportsInterface}. Time complexity O(1), guaranteed to always use less than 30 000 gas."
      },
      "symbol()": {
        "details": "See {IERC721Metadata-symbol}."
      },
      "toLower(string)": {
        "details": "Converts the string to lowercase"
      },
      "tokenByIndex(uint256)": {
        "details": "See {IERC721Enumerable-tokenByIndex}."
      },
      "tokenDescriptionByIndex(uint256)": {
        "details": "Returns description of the NFT at index."
      },
      "tokenNCTGeneratingMultiplierByIndex(uint256)": {
        "details": "Gets face's NCT generation multiplier"
      },
      "tokenNameByIndex(uint256)": {
        "details": "Returns name of the NFT at index."
      },
      "tokenOfOwnerByIndex(address,uint256)": {
        "details": "See {IERC721Enumerable-tokenOfOwnerByIndex}."
      },
      "totalSupply()": {
        "details": "See {IERC721Enumerable-totalSupply}."
      },
      "transferFrom(address,address,uint256)": {
        "details": "See {IERC721-transferFrom}."
      },
      "transferOwnership(address)": {
        "details": "Transfers ownership of the contract to a new account (`newOwner`). Can only be called by the current owner."
      },
      "validateName(string)": {
        "details": "Check if the name string is valid (Alphanumeric and spaces without leading or trailing space)"
      },
      "withdraw()": {
        "details": "Withdraw ether from this contract (Callable by owner)"
      }
    },
    "title": "BearNBear contract",
    "version": 1
  },
  "userdoc": {
    "kind": "user",
    "methods": {},
    "version": 1
  }
}