{
  "contractName": "MiniBearToken",
  "abi": [
    {
      "inputs": [
        {
          "internalType": "string",
          "name": "name",
          "type": "string"
        },
        {
          "internalType": "string",
          "name": "symbol",
          "type": "string"
        },
        {
          "internalType": "uint256",
          "name": "emissionStartTimestamp",
          "type": "uint256"
        }
      ],
      "stateMutability": "nonpayable",
      "type": "constructor"
    },
    {
      "anonymous": false,
      "inputs": [
        {
          "indexed": true,
          "internalType": "address",
          "name": "owner",
          "type": "address"
        },
        {
          "indexed": true,
          "internalType": "address",
          "name": "spender",
          "type": "address"
        },
        {
          "indexed": false,
          "internalType": "uint256",
          "name": "value",
          "type": "uint256"
        }
      ],
      "name": "Approval",
      "type": "event"
    },
    {
      "anonymous": false,
      "inputs": [
        {
          "indexed": true,
          "internalType": "address",
          "name": "previousOwner",
          "type": "address"
        },
        {
          "indexed": true,
          "internalType": "address",
          "name": "newOwner",
          "type": "address"
        }
      ],
      "name": "OwnershipTransferred",
      "type": "event"
    },
    {
      "anonymous": false,
      "inputs": [
        {
          "indexed": true,
          "internalType": "address",
          "name": "from",
          "type": "address"
        },
        {
          "indexed": true,
          "internalType": "address",
          "name": "to",
          "type": "address"
        },
        {
          "indexed": false,
          "internalType": "uint256",
          "name": "value",
          "type": "uint256"
        }
      ],
      "name": "Transfer",
      "type": "event"
    },
    {
      "inputs": [],
      "name": "PRE_REVEAL_MULTIPLIER",
      "outputs": [
        {
          "internalType": "uint256",
          "name": "",
          "type": "uint256"
        }
      ],
      "stateMutability": "view",
      "type": "function",
      "constant": true
    },
    {
      "inputs": [],
      "name": "SECONDS_IN_A_DAY",
      "outputs": [
        {
          "internalType": "uint256",
          "name": "",
          "type": "uint256"
        }
      ],
      "stateMutability": "view",
      "type": "function",
      "constant": true
    },
    {
      "inputs": [],
      "name": "emissionEnd",
      "outputs": [
        {
          "internalType": "uint256",
          "name": "",
          "type": "uint256"
        }
      ],
      "stateMutability": "view",
      "type": "function",
      "constant": true
    },
    {
      "inputs": [],
      "name": "emissionPerDay",
      "outputs": [
        {
          "internalType": "uint256",
          "name": "",
          "type": "uint256"
        }
      ],
      "stateMutability": "view",
      "type": "function",
      "constant": true
    },
    {
      "inputs": [],
      "name": "emissionStart",
      "outputs": [
        {
          "internalType": "uint256",
          "name": "",
          "type": "uint256"
        }
      ],
      "stateMutability": "view",
      "type": "function",
      "constant": true
    },
    {
      "inputs": [],
      "name": "owner",
      "outputs": [
        {
          "internalType": "address",
          "name": "",
          "type": "address"
        }
      ],
      "stateMutability": "view",
      "type": "function",
      "constant": true
    },
    {
      "inputs": [],
      "name": "renounceOwnership",
      "outputs": [],
      "stateMutability": "nonpayable",
      "type": "function"
    },
    {
      "inputs": [
        {
          "internalType": "address",
          "name": "newOwner",
          "type": "address"
        }
      ],
      "name": "transferOwnership",
      "outputs": [],
      "stateMutability": "nonpayable",
      "type": "function"
    },
    {
      "inputs": [],
      "name": "name",
      "outputs": [
        {
          "internalType": "string",
          "name": "",
          "type": "string"
        }
      ],
      "stateMutability": "view",
      "type": "function",
      "constant": true
    },
    {
      "inputs": [],
      "name": "symbol",
      "outputs": [
        {
          "internalType": "string",
          "name": "",
          "type": "string"
        }
      ],
      "stateMutability": "view",
      "type": "function",
      "constant": true
    },
    {
      "inputs": [],
      "name": "decimals",
      "outputs": [
        {
          "internalType": "uint8",
          "name": "",
          "type": "uint8"
        }
      ],
      "stateMutability": "view",
      "type": "function",
      "constant": true
    },
    {
      "inputs": [],
      "name": "totalSupply",
      "outputs": [
        {
          "internalType": "uint256",
          "name": "",
          "type": "uint256"
        }
      ],
      "stateMutability": "view",
      "type": "function",
      "constant": true
    },
    {
      "inputs": [
        {
          "internalType": "address",
          "name": "account",
          "type": "address"
        }
      ],
      "name": "balanceOf",
      "outputs": [
        {
          "internalType": "uint256",
          "name": "",
          "type": "uint256"
        }
      ],
      "stateMutability": "view",
      "type": "function",
      "constant": true
    },
    {
      "inputs": [
        {
          "internalType": "uint256",
          "name": "tokenIndex",
          "type": "uint256"
        }
      ],
      "name": "lastClaim",
      "outputs": [
        {
          "internalType": "uint256",
          "name": "",
          "type": "uint256"
        }
      ],
      "stateMutability": "view",
      "type": "function",
      "constant": true
    },
    {
      "inputs": [
        {
          "internalType": "uint256",
          "name": "tokenIndex",
          "type": "uint256"
        }
      ],
      "name": "accumulated",
      "outputs": [
        {
          "internalType": "uint256",
          "name": "",
          "type": "uint256"
        }
      ],
      "stateMutability": "view",
      "type": "function",
      "constant": true
    },
    {
      "inputs": [
        {
          "internalType": "address",
          "name": "bbtAddress",
          "type": "address"
        }
      ],
      "name": "setBBTAddress",
      "outputs": [],
      "stateMutability": "nonpayable",
      "type": "function"
    },
    {
      "inputs": [
        {
          "internalType": "uint256[]",
          "name": "tokenIndices",
          "type": "uint256[]"
        }
      ],
      "name": "claim",
      "outputs": [
        {
          "internalType": "uint256",
          "name": "",
          "type": "uint256"
        }
      ],
      "stateMutability": "nonpayable",
      "type": "function"
    },
    {
      "inputs": [
        {
          "internalType": "address",
          "name": "recipient",
          "type": "address"
        },
        {
          "internalType": "uint256",
          "name": "amount",
          "type": "uint256"
        }
      ],
      "name": "transfer",
      "outputs": [
        {
          "internalType": "bool",
          "name": "",
          "type": "bool"
        }
      ],
      "stateMutability": "nonpayable",
      "type": "function"
    },
    {
      "inputs": [
        {
          "internalType": "address",
          "name": "owner",
          "type": "address"
        },
        {
          "internalType": "address",
          "name": "spender",
          "type": "address"
        }
      ],
      "name": "allowance",
      "outputs": [
        {
          "internalType": "uint256",
          "name": "",
          "type": "uint256"
        }
      ],
      "stateMutability": "view",
      "type": "function",
      "constant": true
    },
    {
      "inputs": [
        {
          "internalType": "address",
          "name": "spender",
          "type": "address"
        },
        {
          "internalType": "uint256",
          "name": "amount",
          "type": "uint256"
        }
      ],
      "name": "approve",
      "outputs": [
        {
          "internalType": "bool",
          "name": "",
          "type": "bool"
        }
      ],
      "stateMutability": "nonpayable",
      "type": "function"
    },
    {
      "inputs": [
        {
          "internalType": "address",
          "name": "sender",
          "type": "address"
        },
        {
          "internalType": "address",
          "name": "recipient",
          "type": "address"
        },
        {
          "internalType": "uint256",
          "name": "amount",
          "type": "uint256"
        }
      ],
      "name": "transferFrom",
      "outputs": [
        {
          "internalType": "bool",
          "name": "",
          "type": "bool"
        }
      ],
      "stateMutability": "nonpayable",
      "type": "function"
    },
    {
      "inputs": [
        {
          "internalType": "address",
          "name": "spender",
          "type": "address"
        },
        {
          "internalType": "uint256",
          "name": "addedValue",
          "type": "uint256"
        }
      ],
      "name": "increaseAllowance",
      "outputs": [
        {
          "internalType": "bool",
          "name": "",
          "type": "bool"
        }
      ],
      "stateMutability": "nonpayable",
      "type": "function"
    },
    {
      "inputs": [
        {
          "internalType": "uint256",
          "name": "burnQuantity",
          "type": "uint256"
        }
      ],
      "name": "burn",
      "outputs": [
        {
          "internalType": "bool",
          "name": "",
          "type": "bool"
        }
      ],
      "stateMutability": "nonpayable",
      "type": "function"
    },
    {
      "inputs": [
        {
          "internalType": "address",
          "name": "spender",
          "type": "address"
        },
        {
          "internalType": "uint256",
          "name": "subtractedValue",
          "type": "uint256"
        }
      ],
      "name": "decreaseAllowance",
      "outputs": [
        {
          "internalType": "bool",
          "name": "",
          "type": "bool"
        }
      ],
      "stateMutability": "nonpayable",
      "type": "function"
    }
  ],
  "bytecode": "0x608060405262015180600155670de0b6b3a76400006004553480156200002457600080fd5b5060405162001f4038038062001f40833981810160405260608110156200004a57600080fd5b81019080805160405193929190846401000000008211156200006b57600080fd5b9083019060208201858111156200008157600080fd5b82516401000000008111828201881017156200009c57600080fd5b82525081516020918201929091019080838360005b83811015620000cb578181015183820152602001620000b1565b50505050905090810190601f168015620000f95780820380516001836020036101000a031916815260200191505b50604052602001805160405193929190846401000000008211156200011d57600080fd5b9083019060208201858111156200013357600080fd5b82516401000000008111828201881017156200014e57600080fd5b82525081516020918201929091019080838360005b838110156200017d57818101518382015260200162000163565b50505050905090810190601f168015620001ab5780820380516001836020036101000a031916815260200191505b5060405260200151915060009050620001c36200025d565b600080546001600160a01b0319166001600160a01b0383169081178255604051929350917f8be0079c531659141344cd1fd0a4f28419497f9722a3daafe3b4186f6b6457e0908290a35082516200022290600990602086019062000261565b5081516200023890600a90602085019062000261565b50600b805460ff1916601217905560028190556312cc03000160035550620002fd9050565b3390565b828054600181600116156101000203166002900490600052602060002090601f016020900481019282601f10620002a457805160ff1916838001178555620002d4565b82800160010185558215620002d4579182015b82811115620002d4578251825591602001919060010190620002b7565b50620002e2929150620002e6565b5090565b5b80821115620002e25760008155600101620002e7565b611c33806200030d6000396000f3fe608060405234801561001057600080fd5b50600436106101585760003560e01c806373422b31116100c3578063a9059cbb1161007c578063a9059cbb14610457578063b551b82f14610483578063c607cde71461048b578063dd62ed3e146104a8578063f2fde38b146104d6578063f9cfa06f146104fc57610158565b806373422b31146103c95780638368909c146103d15780638da5cb5b146103d95780638e31586c146103fd57806395d89b4114610423578063a457c2d71461042b57610158565b80633d3728b5116101155780633d3728b5146102b457806342966c68146102d1578063513da948146102ee5780636ba4c138146102f657806370a0823114610399578063715018a6146103bf57610158565b806306fdde031461015d578063095ea7b3146101da57806318160ddd1461021a57806323b872dd14610234578063313ce5671461026a5780633950935114610288575b600080fd5b610165610504565b6040805160208082528351818301528351919283929083019185019080838360005b8381101561019f578181015183820152602001610187565b50505050905090810190601f1680156101cc5780820380516001836020036101000a031916815260200191505b509250505060405180910390f35b610206600480360360408110156101f057600080fd5b506001600160a01b03813516906020013561059a565b604080519115158252519081900360200190f35b6102226105b8565b60408051918252519081900360200190f35b6102066004803603606081101561024a57600080fd5b506001600160a01b038135811691602081013590911690604001356105be565b61027261065c565b6040805160ff9092168252519081900360200190f35b6102066004803603604081101561029e57600080fd5b506001600160a01b038135169060200135610665565b610222600480360360208110156102ca57600080fd5b50356106b3565b610206600480360360208110156102e757600080fd5b5035610877565b61022261088b565b6102226004803603602081101561030c57600080fd5b81019060208101813564010000000081111561032757600080fd5b82018360208201111561033957600080fd5b8035906020019184602083028401116401000000008311171561035b57600080fd5b919080806020026020016040519081016040528093929190818152602001838360200280828437600092019190915250929550610891945050505050565b610222600480360360208110156103af57600080fd5b50356001600160a01b0316610bee565b6103c7610c09565b005b610222610cbd565b610222610cc2565b6103e1610cc8565b604080516001600160a01b039092168252519081900360200190f35b6103c76004803603602081101561041357600080fd5b50356001600160a01b0316610cd7565b610165610dcc565b6102066004803603604081101561044157600080fd5b506001600160a01b038135169060200135610e2d565b6102066004803603604081101561046d57600080fd5b506001600160a01b038135169060200135610e95565b610222610ea9565b610222600480360360208110156104a157600080fd5b5035610eaf565b610222600480360360408110156104be57600080fd5b506001600160a01b03813581169160200135166112be565b6103c7600480360360208110156104ec57600080fd5b50356001600160a01b03166112e9565b6102226113f3565b60098054604080516020601f60026000196101006001881615020190951694909404938401819004810282018101909252828152606093909290918301828280156105905780601f1061056557610100808354040283529160200191610590565b820191906000526020600020905b81548152906001019060200180831161057357829003601f168201915b5050505050905090565b60006105ae6105a76113f9565b84846113fd565b5060015b92915050565b60085490565b60006105cb8484846114e9565b600b5461010090046001600160a01b0316331461065257610652846105ee6113f9565b61064d85604051806060016040528060288152602001611b47602891396001600160a01b038a1660009081526006602052604081209061062c6113f9565b6001600160a01b031681526020810191909152604001600020549190611646565b6113fd565b5060019392505050565b600b5460ff1690565b60006105ae6106726113f9565b8461064d85600660006106836113f9565b6001600160a01b03908116825260208083019390935260409182016000908120918c1681529252902054906116dd565b600b54604080516331a9108f60e11b815260048101849052905160009283926101009091046001600160a01b031691636352211e91602480820192602092909190829003018186803b15801561070857600080fd5b505afa15801561071c573d6000803e3d6000fd5b505050506040513d602081101561073257600080fd5b50516001600160a01b0316141561078c576040805162461bcd60e51b81526020600482015260196024820152784f776e65722063616e6e6f742062652030206164647265737360381b604482015290519081900360640190fd5b600b60019054906101000a90046001600160a01b03166001600160a01b03166318160ddd6040518163ffffffff1660e01b815260040160206040518083038186803b1580156107da57600080fd5b505afa1580156107ee573d6000803e3d6000fd5b505050506040513d602081101561080457600080fd5b505182106108435760405162461bcd60e51b8152600401808060200182810382526024815260200180611a946024913960400191505060405180910390fd5b60008281526007602052604081205461085e5760025461086e565b6000838152600760205260409020545b9150505b919050565b6000610883338361173e565b506001919050565b60025481565b600060025442116108e9576040805162461bcd60e51b815260206004820152601c60248201527f456d697373696f6e20686173206e6f7420737461727465642079657400000000604482015290519081900360640190fd5b6000805b8351811015610b9157600b60019054906101000a90046001600160a01b03166001600160a01b03166318160ddd6040518163ffffffff1660e01b815260040160206040518083038186803b15801561094457600080fd5b505afa158015610958573d6000803e3d6000fd5b505050506040513d602081101561096e57600080fd5b5051845185908390811061097e57fe5b6020026020010151106109c25760405162461bcd60e51b8152600401808060200182810382526024815260200180611a946024913960400191505060405180910390fd5b600181015b8451811015610a53578481815181106109dc57fe5b60200260200101518583815181106109f057fe5b60200260200101511415610a4b576040805162461bcd60e51b815260206004820152601960248201527f546f6b656e20696e646578206973206475706c69636174656400000000000000604482015290519081900360640190fd5b6001016109c7565b506000848281518110610a6257fe5b60200260200101519050336001600160a01b0316600b60019054906101000a90046001600160a01b03166001600160a01b0316636352211e836040518263ffffffff1660e01b81526004018082815260200191505060206040518083038186803b158015610acf57600080fd5b505afa158015610ae3573d6000803e3d6000fd5b505050506040513d6020811015610af957600080fd5b50516001600160a01b031614610b56576040805162461bcd60e51b815260206004820152601a60248201527f4e6f6e2d6f776e65722063616e6e6f7420636c61696d204d4254000000000000604482015290519081900360640190fd5b6000610b6182610eaf565b90508015610b8757610b7384826116dd565b600083815260076020526040902042905593505b50506001016108ed565b5080610be4576040805162461bcd60e51b815260206004820152601f60248201527f4e6f204d425420617661696c61626c6520617420746865206d6f6d656e742e00604482015290519081900360640190fd5b6105b2338261183a565b6001600160a01b031660009081526005602052604090205490565b610c116113f9565b6000546001600160a01b03908116911614610c73576040805162461bcd60e51b815260206004820181905260248201527f4f776e61626c653a2063616c6c6572206973206e6f7420746865206f776e6572604482015290519081900360640190fd5b600080546040516001600160a01b03909116907f8be0079c531659141344cd1fd0a4f28419497f9722a3daafe3b4186f6b6457e0908390a3600080546001600160a01b0319169055565b600281565b60035481565b6000546001600160a01b031690565b610cdf6113f9565b6000546001600160a01b03908116911614610d41576040805162461bcd60e51b815260206004820181905260248201527f4f776e61626c653a2063616c6c6572206973206e6f7420746865206f776e6572604482015290519081900360640190fd5b600b5461010090046001600160a01b031615610da4576040805162461bcd60e51b815260206004820152601a60248201527f424254206164647265737320697320616c726561647920736574000000000000604482015290519081900360640190fd5b600b80546001600160a01b0390921661010002610100600160a81b0319909216919091179055565b600a8054604080516020601f60026000196101006001881615020190951694909404938401819004810282018101909252828152606093909290918301828280156105905780601f1061056557610100808354040283529160200191610590565b60006105ae610e3a6113f9565b8461064d85604051806060016040528060258152602001611bd96025913960066000610e646113f9565b6001600160a01b03908116825260208083019390935260409182016000908120918d16815292529020549190611646565b60006105ae610ea26113f9565b84846114e9565b60045481565b60006002544211610f07576040805162461bcd60e51b815260206004820152601c60248201527f456d697373696f6e20686173206e6f7420737461727465642079657400000000604482015290519081900360640190fd5b600b54604080516331a9108f60e11b815260048101859052905160009261010090046001600160a01b031691636352211e916024808301926020929190829003018186803b158015610f5857600080fd5b505afa158015610f6c573d6000803e3d6000fd5b505050506040513d6020811015610f8257600080fd5b50516001600160a01b03161415610fdc576040805162461bcd60e51b81526020600482015260196024820152784f776e65722063616e6e6f742062652030206164647265737360381b604482015290519081900360640190fd5b600b60019054906101000a90046001600160a01b03166001600160a01b03166318160ddd6040518163ffffffff1660e01b815260040160206040518083038186803b15801561102a57600080fd5b505afa15801561103e573d6000803e3d6000fd5b505050506040513d602081101561105457600080fd5b505182106110935760405162461bcd60e51b8152600401808060200182810382526024815260200180611a946024913960400191505060405180910390fd5b600061109e836106b3565b905060035481106110b3576000915050610872565b600060035442106110c6576003546110c8565b425b90506000600b60019054906101000a90046001600160a01b03166001600160a01b031663606987eb866040518263ffffffff1660e01b81526004018082815260200191505060206040518083038186803b15801561112557600080fd5b505afa158015611139573d6000803e3d6000fd5b505050506040513d602081101561114f57600080fd5b5051600154600454919250600091611180919061117a9085906111749081898b61192c565b90611989565b906119e2565b90506002548414156112b5576000600b60019054906101000a90046001600160a01b03166001600160a01b031663c8ed64fe6040518163ffffffff1660e01b815260040160206040518083038186803b1580156111dc57600080fd5b505afa1580156111f0573d6000803e3d6000fd5b505050506040513d602081101561120657600080fd5b5051600b54604080516338af193160e21b8152600481018b905290519293506000926101009092046001600160a01b03169163e2bc64c491602480820192602092909190829003018186803b15801561125e57600080fd5b505afa158015611272573d6000803e3d6000fd5b505050506040513d602081101561128857600080fd5b5051151560011461129957816112a4565b6112a4826002611989565b90506112b083826116dd565b925050505b95945050505050565b6001600160a01b03918216600090815260066020908152604080832093909416825291909152205490565b6112f16113f9565b6000546001600160a01b03908116911614611353576040805162461bcd60e51b815260206004820181905260248201527f4f776e61626c653a2063616c6c6572206973206e6f7420746865206f776e6572604482015290519081900360640190fd5b6001600160a01b0381166113985760405162461bcd60e51b8152600401808060200182810382526026815260200180611ab86026913960400191505060405180910390fd5b600080546040516001600160a01b03808516939216917f8be0079c531659141344cd1fd0a4f28419497f9722a3daafe3b4186f6b6457e091a3600080546001600160a01b0319166001600160a01b0392909216919091179055565b60015481565b3390565b6001600160a01b0383166114425760405162461bcd60e51b8152600401808060200182810382526024815260200180611bb56024913960400191505060405180910390fd5b6001600160a01b0382166114875760405162461bcd60e51b8152600401808060200182810382526022815260200180611ade6022913960400191505060405180910390fd5b6001600160a01b03808416600081815260066020908152604080832094871680845294825291829020859055815185815291517f8c5be1e5ebec7d5bd14f71427d1e84f3dd0314c0f7b2291e5b200ac8c7c3b9259281900390910190a3505050565b6001600160a01b03831661152e5760405162461bcd60e51b8152600401808060200182810382526025815260200180611b906025913960400191505060405180910390fd5b6001600160a01b0382166115735760405162461bcd60e51b8152600401808060200182810382526023815260200180611a4f6023913960400191505060405180910390fd5b61157e838383611a49565b6115bb81604051806060016040528060268152602001611b00602691396001600160a01b0386166000908152600560205260409020549190611646565b6001600160a01b0380851660009081526005602052604080822093909355908416815220546115ea90826116dd565b6001600160a01b0380841660008181526005602090815260409182902094909455805185815290519193928716927fddf252ad1be2c89b69c2b068fc378daa952ba7f163c4a11628f55a4df523b3ef92918290030190a3505050565b600081848411156116d55760405162461bcd60e51b81526004018080602001828103825283818151815260200191508051906020019080838360005b8381101561169a578181015183820152602001611682565b50505050905090810190601f1680156116c75780820380516001836020036101000a031916815260200191505b509250505060405180910390fd5b505050900390565b600082820183811015611737576040805162461bcd60e51b815260206004820152601b60248201527f536166654d6174683a206164646974696f6e206f766572666c6f770000000000604482015290519081900360640190fd5b9392505050565b6001600160a01b0382166117835760405162461bcd60e51b8152600401808060200182810382526021815260200180611b6f6021913960400191505060405180910390fd5b61178f82600083611a49565b6117cc81604051806060016040528060228152602001611a72602291396001600160a01b0385166000908152600560205260409020549190611646565b6001600160a01b0383166000908152600560205260409020556008546117f2908261192c565b6008556040805182815290516000916001600160a01b038516917fddf252ad1be2c89b69c2b068fc378daa952ba7f163c4a11628f55a4df523b3ef9181900360200190a35050565b6001600160a01b038216611895576040805162461bcd60e51b815260206004820152601f60248201527f45524332303a206d696e7420746f20746865207a65726f206164647265737300604482015290519081900360640190fd5b6118a160008383611a49565b6008546118ae90826116dd565b6008556001600160a01b0382166000908152600560205260409020546118d490826116dd565b6001600160a01b03831660008181526005602090815260408083209490945583518581529351929391927fddf252ad1be2c89b69c2b068fc378daa952ba7f163c4a11628f55a4df523b3ef9281900390910190a35050565b600082821115611983576040805162461bcd60e51b815260206004820152601e60248201527f536166654d6174683a207375627472616374696f6e206f766572666c6f770000604482015290519081900360640190fd5b50900390565b600082611998575060006105b2565b828202828482816119a557fe5b04146117375760405162461bcd60e51b8152600401808060200182810382526021815260200180611b266021913960400191505060405180910390fd5b6000808211611a38576040805162461bcd60e51b815260206004820152601a60248201527f536166654d6174683a206469766973696f6e206279207a65726f000000000000604482015290519081900360640190fd5b818381611a4157fe5b049392505050565b50505056fe45524332303a207472616e7366657220746f20746865207a65726f206164647265737345524332303a206275726e20616d6f756e7420657863656564732062616c616e63654e465420617420696e64657820686173206e6f74206265656e206d696e746564207965744f776e61626c653a206e6577206f776e657220697320746865207a65726f206164647265737345524332303a20617070726f766520746f20746865207a65726f206164647265737345524332303a207472616e7366657220616d6f756e7420657863656564732062616c616e6365536166654d6174683a206d756c7469706c69636174696f6e206f766572666c6f7745524332303a207472616e7366657220616d6f756e74206578636565647320616c6c6f77616e636545524332303a206275726e2066726f6d20746865207a65726f206164647265737345524332303a207472616e736665722066726f6d20746865207a65726f206164647265737345524332303a20617070726f76652066726f6d20746865207a65726f206164647265737345524332303a2064656372656173656420616c6c6f77616e63652062656c6f77207a65726fa26469706673582212206481779faee50e286d70a6800d4a1ea2e6986663b53e1ac053a16d80f811f6a664736f6c63430007000033",
  "immutableReferences": {},
  "source": "// SPDX-License-Identifier: UNLICENSED\npragma solidity ^0.7.0;\n\nimport \"./ERC165/IERC165.sol\";\nimport \"./math/SafeMath.sol\";\nimport \"./ERC20/IERC20.sol\";\nimport \"./IBearNBearToken.sol\";\nimport \"./utils/Context.sol\";\nimport \"./utils/Ownable.sol\";\n\n/**\n *\n * MiniBearToken Contract (The native token of BearNBear)\n * @dev Extends standard ERC20 contract\n */\ncontract MiniBearToken is Context, Ownable, IERC20 {\n    using SafeMath for uint256;\n\n    // Constants\n    uint256 public SECONDS_IN_A_DAY = 86400;\n\n    // Public variables\n    uint256 public emissionStart;\n\n    uint256 public emissionEnd;\n\n    uint256 public emissionPerDay = 1 * (10 ** 18); // multiple by the mutiplier\n\n    uint256 public constant PRE_REVEAL_MULTIPLIER = 2;\n\n    mapping (address => uint256) private _balances;\n\n    mapping (address => mapping (address => uint256)) private _allowances;\n\n    mapping(uint256 => uint256) private _lastClaim;\n\n    uint256 private _totalSupply;\n\n    string private _name;\n    string private _symbol;\n    uint8 private _decimals;\n    address private _bbtAddress;\n\n    /**\n     * @dev Sets the values for {name} and {symbol}, initializes {decimals} with\n     * a default value of 18. Also initalizes {emissionStart}\n     *\n     * To select a different value for {decimals}, use {_setupDecimals}.\n     *\n     * All three of these values are immutable: they can only be set once during\n     * construction.\n     */\n    constructor (string memory name, string memory symbol, uint256 emissionStartTimestamp) {\n        _name = name;\n        _symbol = symbol;\n        _decimals = 18;\n        emissionStart = emissionStartTimestamp;\n        emissionEnd = emissionStartTimestamp + (86400 * 365 * 10);\n    }\n\n    /**\n     * @dev Returns the name of the token.\n     */\n    function name() public view returns (string memory) {\n        return _name;\n    }\n\n    /**\n     * @dev Returns the symbol of the token, usually a shorter version of the\n     * name.\n     */\n    function symbol() public view returns (string memory) {\n        return _symbol;\n    }\n\n    /**\n     * @dev Returns the number of decimals used to get its user representation.\n     * For example, if `decimals` equals `2`, a balance of `505` tokens should\n     * be displayed to a user as `5,05` (`505 / 10 ** 2`).\n     *\n     * Tokens usually opt for a value of 18, imitating the relationship between\n     * Ether and Wei. This is the value {ERC20} uses, unless {_setupDecimals} is\n     * called.\n     *\n     * NOTE: This information is only used for _display_ purposes: it in\n     * no way affects any of the arithmetic of the contract, including\n     * {IERC20-balanceOf} and {IERC20-transfer}.\n     */\n    function decimals() public view returns (uint8) {\n        return _decimals;\n    }\n\n    /**\n     * @dev See {IERC20-totalSupply}.\n     */\n    function totalSupply() public view override returns (uint256) {\n        return _totalSupply;\n    }\n\n    /**\n     * @dev See {IERC20-balanceOf}.\n     */\n    function balanceOf(address account) public view override returns (uint256) {\n        return _balances[account];\n    }\n\n    /**\n     * @dev When accumulated MBT have last been claimed for a BearNBear index\n     */\n    function lastClaim(uint256 tokenIndex) public view returns (uint256) {\n        require(IBearNBearToken(_bbtAddress).ownerOf(tokenIndex) != address(0), \"Owner cannot be 0 address\");\n        require(tokenIndex < IBearNBearToken(_bbtAddress).totalSupply(), \"NFT at index has not been minted yet\");\n\n        uint256 lastClaimed = uint256(_lastClaim[tokenIndex]) != 0 ? uint256(_lastClaim[tokenIndex]) : emissionStart;\n        return lastClaimed;\n    }\n\n    /**\n     * @dev Accumulated MBT tokens for a BearNBear token index.\n     */\n    function accumulated(uint256 tokenIndex) public view returns (uint256) {\n        require(block.timestamp > emissionStart, \"Emission has not started yet\");\n        require(IBearNBearToken(_bbtAddress).ownerOf(tokenIndex) != address(0), \"Owner cannot be 0 address\");\n        require(tokenIndex < IBearNBearToken(_bbtAddress).totalSupply(), \"NFT at index has not been minted yet\");\n\n        uint256 lastClaimed = lastClaim(tokenIndex); // return emissionStart if claim havs't been done before\n\n        // If emission ends, no MBT can be claimed\n        if (lastClaimed >= emissionEnd) return 0;\n\n        uint256 accumulationPeriod = block.timestamp < emissionEnd ? block.timestamp : emissionEnd; // Getting the min(block.timestamp, emissionEnd)\n        uint256 emissionPerDayMutiplier = IBearNBearToken(_bbtAddress).tokenMBTGeneratingMultiplierByIndex(tokenIndex);\n        uint256 totalAccumulated = accumulationPeriod.sub(lastClaimed).mul(emissionPerDay).mul(emissionPerDayMutiplier).div(SECONDS_IN_A_DAY);\n\n        // If claim hasn't been done before, add initial MBT\n        if (lastClaimed == emissionStart) {\n            uint256 INIT_GRANTED_MBT = IBearNBearToken(_bbtAddress).initGrantedMBT();\n            // bonus MBT if it's been minted in the first 30 days of the sale event\n            uint256 initialAllotment = IBearNBearToken(_bbtAddress).isMintedWithBonusMBT(tokenIndex) == true ? INIT_GRANTED_MBT.mul(PRE_REVEAL_MULTIPLIER) : INIT_GRANTED_MBT;\n            totalAccumulated = totalAccumulated.add(initialAllotment);\n        }\n\n        return totalAccumulated;\n    }\n\n    /**\n     * @dev Permissioning not added because it is only callable once. It is set right after deployment and verified.\n     */\n    function setBBTAddress(address bbtAddress) onlyOwner public {\n        require(_bbtAddress == address(0), \"BBT address is already set\");\n\n        _bbtAddress = bbtAddress;\n    }\n\n    /**\n     * @dev Claim MBTs for one or multiple BearNBear token indices at once.\n     */\n    function claim(uint256[] memory tokenIndices) public returns (uint256) {\n        require(block.timestamp > emissionStart, \"Emission has not started yet\");\n\n        uint256 totalClaimQty = 0;\n        for (uint i = 0; i < tokenIndices.length; i++) {\n            // Sanity check for non-minted index\n            require(tokenIndices[i] < IBearNBearToken(_bbtAddress).totalSupply(), \"NFT at index has not been minted yet\");\n            // check if token index is duplicated\n            for (uint j = i + 1; j < tokenIndices.length; j++) {\n                require(tokenIndices[i] != tokenIndices[j], \"Token index is duplicated\");\n            }\n\n            uint tokenIndex = tokenIndices[i];\n            require(IBearNBearToken(_bbtAddress).ownerOf(tokenIndex) == msg.sender, \"Non-owner cannot claim MBT\");\n\n            uint256 claimQty = accumulated(tokenIndex);\n            if (claimQty != 0) {\n                totalClaimQty = totalClaimQty.add(claimQty);\n                _lastClaim[tokenIndex] = block.timestamp;\n            }\n        }\n\n        require(totalClaimQty != 0, \"No MBT available at the moment.\");\n        _mint(msg.sender, totalClaimQty);\n        return totalClaimQty;\n    }\n\n    /**\n     * @dev See {IERC20-transfer}.\n     *\n     * Requirements:\n     *\n     * - `recipient` cannot be the zero address.\n     * - the caller must have a balance of at least `amount`.\n     */\n    function transfer(address recipient, uint256 amount) public virtual override returns (bool) {\n        _transfer(_msgSender(), recipient, amount);\n        return true;\n    }\n\n    /**\n     * @dev See {IERC20-allowance}.\n     */\n    function allowance(address owner, address spender) public view virtual override returns (uint256) {\n        return _allowances[owner][spender];\n    }\n\n    /**\n     * @dev See {IERC20-approve}.\n     *\n     * Requirements:\n     *\n     * - `spender` cannot be the zero address.\n     */\n    function approve(address spender, uint256 amount) public virtual override returns (bool) {\n        _approve(_msgSender(), spender, amount);\n        return true;\n    }\n\n    /**\n     * @dev See {IERC20-transferFrom}.\n     *\n     * Emits an {Approval} event indicating the updated allowance. This is not\n     * required by the EIP. See the note at the beginning of {ERC20}.\n     *\n     * Requirements:\n     *\n     * - `sender` and `recipient` cannot be the zero address.\n     * - `sender` must have a balance of at least `amount`.\n     * - the caller must have allowance for ``sender``'s tokens of at least\n     * `amount`.\n     */\n    function transferFrom(address sender, address recipient, uint256 amount) public virtual override returns (bool) {\n        _transfer(sender, recipient, amount);\n        // Approval check is skipped if the caller of transferFrom is the BearNBear contract. For better UX.\n        if (msg.sender != _bbtAddress) {\n            _approve(sender, _msgSender(), _allowances[sender][_msgSender()].sub(amount, \"ERC20: transfer amount exceeds allowance\"));\n        }\n        return true;\n    }\n\n    /**\n     * @dev Atomically increases the allowance granted to `spender` by the caller.\n     *\n     * This is an alternative to {approve} that can be used as a mitigation for\n     * problems described in {IERC20-approve}.\n     *\n     * Emits an {Approval} event indicating the updated allowance.\n     *\n     * Requirements:\n     *\n     * - `spender` cannot be the zero address.\n     */\n    function increaseAllowance(address spender, uint256 addedValue) public virtual returns (bool) {\n        _approve(_msgSender(), spender, _allowances[_msgSender()][spender].add(addedValue));\n        return true;\n    }\n\n    // ++\n    /**\n     * @dev Burns a quantity of tokens held by the caller.\n     *\n     * Emits an {Transfer} event to 0 address\n     *\n     */\n    function burn(uint256 burnQuantity) public virtual override returns (bool) {\n        _burn(msg.sender, burnQuantity);\n        return true;\n    }\n    // ++\n\n    /**\n     * @dev Atomically decreases the allowance granted to `spender` by the caller.\n     *\n     * This is an alternative to {approve} that can be used as a mitigation for\n     * problems described in {IERC20-approve}.\n     *\n     * Emits an {Approval} event indicating the updated allowance.\n     *\n     * Requirements:\n     *\n     * - `spender` cannot be the zero address.\n     * - `spender` must have allowance for the caller of at least\n     * `subtractedValue`.\n     */\n    function decreaseAllowance(address spender, uint256 subtractedValue) public virtual returns (bool) {\n        _approve(_msgSender(), spender, _allowances[_msgSender()][spender].sub(subtractedValue, \"ERC20: decreased allowance below zero\"));\n        return true;\n    }\n\n    /**\n     * @dev Moves tokens `amount` from `sender` to `recipient`.\n     *\n     * This is internal function is equivalent to {transfer}, and can be used to\n     * e.g. implement automatic token fees, slashing mechanisms, etc.\n     *\n     * Emits a {Transfer} event.\n     *\n     * Requirements:\n     *\n     * - `sender` cannot be the zero address.\n     * - `recipient` cannot be the zero address.\n     * - `sender` must have a balance of at least `amount`.\n     */\n    function _transfer(address sender, address recipient, uint256 amount) internal virtual {\n        require(sender != address(0), \"ERC20: transfer from the zero address\");\n        require(recipient != address(0), \"ERC20: transfer to the zero address\");\n\n        _beforeTokenTransfer(sender, recipient, amount);\n\n        _balances[sender] = _balances[sender].sub(amount, \"ERC20: transfer amount exceeds balance\");\n        _balances[recipient] = _balances[recipient].add(amount);\n        emit Transfer(sender, recipient, amount);\n    }\n\n    /** @dev Creates `amount` tokens and assigns them to `account`, increasing\n     * the total supply.\n     *\n     * Emits a {Transfer} event with `from` set to the zero address.\n     *\n     * Requirements:\n     *\n     * - `to` cannot be the zero address.\n     */\n    function _mint(address account, uint256 amount) internal virtual {\n        require(account != address(0), \"ERC20: mint to the zero address\");\n\n        _beforeTokenTransfer(address(0), account, amount);\n\n        _totalSupply = _totalSupply.add(amount);\n        _balances[account] = _balances[account].add(amount);\n        emit Transfer(address(0), account, amount);\n    }\n\n    /**\n     * @dev Destroys `amount` tokens from `account`, reducing the\n     * total supply.\n     *\n     * Emits a {Transfer} event with `to` set to the zero address.\n     *\n     * Requirements:\n     *\n     * - `account` cannot be the zero address.\n     * - `account` must have at least `amount` tokens.\n     */\n    function _burn(address account, uint256 amount) internal virtual {\n        require(account != address(0), \"ERC20: burn from the zero address\");\n\n        _beforeTokenTransfer(account, address(0), amount);\n\n        _balances[account] = _balances[account].sub(amount, \"ERC20: burn amount exceeds balance\");\n        _totalSupply = _totalSupply.sub(amount);\n        emit Transfer(account, address(0), amount);\n    }\n\n    /**\n     * @dev Sets `amount` as the allowance of `spender` over the `owner` s tokens.\n     *\n     * This internal function is equivalent to `approve`, and can be used to\n     * e.g. set automatic allowances for certain subsystems, etc.\n     *\n     * Emits an {Approval} event.\n     *\n     * Requirements:\n     *\n     * - `owner` cannot be the zero address.\n     * - `spender` cannot be the zero address.\n     */\n    function _approve(address owner, address spender, uint256 amount) internal virtual {\n        require(owner != address(0), \"ERC20: approve from the zero address\");\n        require(spender != address(0), \"ERC20: approve to the zero address\");\n\n        _allowances[owner][spender] = amount;\n        emit Approval(owner, spender, amount);\n    }\n\n    /**\n     * @dev Sets {decimals} to a value other than the default one of 18.\n     *\n     * WARNING: This function should only be called from the constructor. Most\n     * applications that interact with token contracts will not expect\n     * {decimals} to ever change, and may work incorrectly if it does.\n     */\n    function _setupDecimals(uint8 decimals_) internal {\n        _decimals = decimals_;\n    }\n\n    /**\n     * @dev Hook that is called before any transfer of tokens. This includes\n     * minting and burning.\n     *\n     * Calling conditions:\n     *\n     * - when `from` and `to` are both non-zero, `amount` of ``from``'s tokens\n     * will be to transferred to `to`.\n     * - when `from` is zero, `amount` tokens will be minted for `to`.\n     * - when `to` is zero, `amount` of ``from``'s tokens will be burned.\n     * - `from` and `to` are never both zero.\n     *\n     * To learn more about hooks, head to xref:ROOT:extending-contracts.adoc#using-hooks[Using Hooks].\n     */\n    function _beforeTokenTransfer(address from, address to, uint256 amount) internal virtual { }\n}\n",
  "sourcePath": "/Users/andychen/projects/bearnbear/contracts/MiniBearToken.sol",
  "compiler": {
    "name": "solc",
    "version": "0.7.0+commit.9e61f92b.Emscripten.clang"
  },
  "schemaVersion": "3.3.4",
  "updatedAt": "2021-03-04T07:40:15.643Z",
  "networkType": "ethereum",
  "devdoc": {
    "details": "Extends standard ERC20 contract",
    "kind": "dev",
    "methods": {
      "accumulated(uint256)": {
        "details": "Accumulated MBT tokens for a BearNBear token index."
      },
      "allowance(address,address)": {
        "details": "See {IERC20-allowance}."
      },
      "approve(address,uint256)": {
        "details": "See {IERC20-approve}. Requirements: - `spender` cannot be the zero address."
      },
      "balanceOf(address)": {
        "details": "See {IERC20-balanceOf}."
      },
      "burn(uint256)": {
        "details": "Burns a quantity of tokens held by the caller. Emits an {Transfer} event to 0 address"
      },
      "claim(uint256[])": {
        "details": "Claim MBTs for one or multiple BearNBear token indices at once."
      },
      "constructor": {
        "details": "Sets the values for {name} and {symbol}, initializes {decimals} with a default value of 18. Also initalizes {emissionStart} To select a different value for {decimals}, use {_setupDecimals}. All three of these values are immutable: they can only be set once during construction."
      },
      "decimals()": {
        "details": "Returns the number of decimals used to get its user representation. For example, if `decimals` equals `2`, a balance of `505` tokens should be displayed to a user as `5,05` (`505 / 10 ** 2`). Tokens usually opt for a value of 18, imitating the relationship between Ether and Wei. This is the value {ERC20} uses, unless {_setupDecimals} is called. NOTE: This information is only used for _display_ purposes: it in no way affects any of the arithmetic of the contract, including {IERC20-balanceOf} and {IERC20-transfer}."
      },
      "decreaseAllowance(address,uint256)": {
        "details": "Atomically decreases the allowance granted to `spender` by the caller. This is an alternative to {approve} that can be used as a mitigation for problems described in {IERC20-approve}. Emits an {Approval} event indicating the updated allowance. Requirements: - `spender` cannot be the zero address. - `spender` must have allowance for the caller of at least `subtractedValue`."
      },
      "increaseAllowance(address,uint256)": {
        "details": "Atomically increases the allowance granted to `spender` by the caller. This is an alternative to {approve} that can be used as a mitigation for problems described in {IERC20-approve}. Emits an {Approval} event indicating the updated allowance. Requirements: - `spender` cannot be the zero address."
      },
      "lastClaim(uint256)": {
        "details": "When accumulated MBT have last been claimed for a BearNBear index"
      },
      "name()": {
        "details": "Returns the name of the token."
      },
      "owner()": {
        "details": "Returns the address of the current owner."
      },
      "renounceOwnership()": {
        "details": "Leaves the contract without owner. It will not be possible to call `onlyOwner` functions anymore. Can only be called by the current owner. NOTE: Renouncing ownership will leave the contract without an owner, thereby removing any functionality that is only available to the owner."
      },
      "setBBTAddress(address)": {
        "details": "Permissioning not added because it is only callable once. It is set right after deployment and verified."
      },
      "symbol()": {
        "details": "Returns the symbol of the token, usually a shorter version of the name."
      },
      "totalSupply()": {
        "details": "See {IERC20-totalSupply}."
      },
      "transfer(address,uint256)": {
        "details": "See {IERC20-transfer}. Requirements: - `recipient` cannot be the zero address. - the caller must have a balance of at least `amount`."
      },
      "transferFrom(address,address,uint256)": {
        "details": "See {IERC20-transferFrom}. Emits an {Approval} event indicating the updated allowance. This is not required by the EIP. See the note at the beginning of {ERC20}. Requirements: - `sender` and `recipient` cannot be the zero address. - `sender` must have a balance of at least `amount`. - the caller must have allowance for ``sender``'s tokens of at least `amount`."
      },
      "transferOwnership(address)": {
        "details": "Transfers ownership of the contract to a new account (`newOwner`). Can only be called by the current owner."
      }
    },
    "version": 1
  },
  "userdoc": {
    "kind": "user",
    "methods": {},
    "notice": "MiniBearToken Contract (The native token of BearNBear)",
    "version": 1
  }
}