{
  "contractName": "BearNBearToken",
  "abi": [
    {
      "inputs": [
        {
          "internalType": "string",
          "name": "name",
          "type": "string"
        },
        {
          "internalType": "string",
          "name": "symbol",
          "type": "string"
        },
        {
          "internalType": "address",
          "name": "mbtAddress",
          "type": "address"
        },
        {
          "internalType": "uint256",
          "name": "saleStartTimestamp",
          "type": "uint256"
        },
        {
          "internalType": "uint256",
          "name": "maxSupply",
          "type": "uint256"
        },
        {
          "internalType": "uint256",
          "name": "base_price",
          "type": "uint256"
        }
      ],
      "stateMutability": "nonpayable",
      "type": "constructor"
    },
    {
      "anonymous": false,
      "inputs": [
        {
          "indexed": true,
          "internalType": "address",
          "name": "owner",
          "type": "address"
        },
        {
          "indexed": true,
          "internalType": "address",
          "name": "approved",
          "type": "address"
        },
        {
          "indexed": true,
          "internalType": "uint256",
          "name": "tokenId",
          "type": "uint256"
        }
      ],
      "name": "Approval",
      "type": "event"
    },
    {
      "anonymous": false,
      "inputs": [
        {
          "indexed": true,
          "internalType": "address",
          "name": "owner",
          "type": "address"
        },
        {
          "indexed": true,
          "internalType": "address",
          "name": "operator",
          "type": "address"
        },
        {
          "indexed": false,
          "internalType": "bool",
          "name": "approved",
          "type": "bool"
        }
      ],
      "name": "ApprovalForAll",
      "type": "event"
    },
    {
      "anonymous": false,
      "inputs": [
        {
          "indexed": true,
          "internalType": "uint256",
          "name": "tokenIndex",
          "type": "uint256"
        },
        {
          "indexed": false,
          "internalType": "address",
          "name": "lastOwner",
          "type": "address"
        }
      ],
      "name": "Burn",
      "type": "event"
    },
    {
      "anonymous": false,
      "inputs": [
        {
          "indexed": true,
          "internalType": "uint256",
          "name": "tokenIndex",
          "type": "uint256"
        },
        {
          "indexed": false,
          "internalType": "string",
          "name": "newDescription",
          "type": "string"
        }
      ],
      "name": "DescriptionChange",
      "type": "event"
    },
    {
      "anonymous": false,
      "inputs": [
        {
          "indexed": true,
          "internalType": "uint256",
          "name": "tokenIndex",
          "type": "uint256"
        },
        {
          "indexed": false,
          "internalType": "string",
          "name": "newName",
          "type": "string"
        }
      ],
      "name": "NameChange",
      "type": "event"
    },
    {
      "anonymous": false,
      "inputs": [
        {
          "indexed": true,
          "internalType": "address",
          "name": "previousOwner",
          "type": "address"
        },
        {
          "indexed": true,
          "internalType": "address",
          "name": "newOwner",
          "type": "address"
        }
      ],
      "name": "OwnershipTransferred",
      "type": "event"
    },
    {
      "anonymous": false,
      "inputs": [
        {
          "indexed": true,
          "internalType": "address",
          "name": "from",
          "type": "address"
        },
        {
          "indexed": true,
          "internalType": "address",
          "name": "to",
          "type": "address"
        },
        {
          "indexed": true,
          "internalType": "uint256",
          "name": "tokenId",
          "type": "uint256"
        }
      ],
      "name": "Transfer",
      "type": "event"
    },
    {
      "inputs": [],
      "name": "BURN_PRICE",
      "outputs": [
        {
          "internalType": "uint256",
          "name": "",
          "type": "uint256"
        }
      ],
      "stateMutability": "view",
      "type": "function",
      "constant": true
    },
    {
      "inputs": [],
      "name": "BURN_START_TIMESTAMP",
      "outputs": [
        {
          "internalType": "uint256",
          "name": "",
          "type": "uint256"
        }
      ],
      "stateMutability": "view",
      "type": "function",
      "constant": true
    },
    {
      "inputs": [],
      "name": "BurnRewards",
      "outputs": [
        {
          "internalType": "uint256",
          "name": "",
          "type": "uint256"
        }
      ],
      "stateMutability": "view",
      "type": "function",
      "constant": true
    },
    {
      "inputs": [],
      "name": "DECAY_COMMUNITY_TAKE_HOME_RATE_THRESHOLD",
      "outputs": [
        {
          "internalType": "uint256",
          "name": "",
          "type": "uint256"
        }
      ],
      "stateMutability": "view",
      "type": "function",
      "constant": true
    },
    {
      "inputs": [],
      "name": "DESCRIPTION_CHANGE_PRICE",
      "outputs": [
        {
          "internalType": "uint256",
          "name": "",
          "type": "uint256"
        }
      ],
      "stateMutability": "view",
      "type": "function",
      "constant": true
    },
    {
      "inputs": [],
      "name": "IPFS_PROVENANCE",
      "outputs": [
        {
          "internalType": "string",
          "name": "",
          "type": "string"
        }
      ],
      "stateMutability": "view",
      "type": "function",
      "constant": true
    },
    {
      "inputs": [],
      "name": "MAX_NFT_SUPPLY",
      "outputs": [
        {
          "internalType": "uint256",
          "name": "",
          "type": "uint256"
        }
      ],
      "stateMutability": "view",
      "type": "function",
      "constant": true
    },
    {
      "inputs": [],
      "name": "MBT_BONUS_END_TIMESTAMP",
      "outputs": [
        {
          "internalType": "uint256",
          "name": "",
          "type": "uint256"
        }
      ],
      "stateMutability": "view",
      "type": "function",
      "constant": true
    },
    {
      "inputs": [],
      "name": "NAME_CHANGE_PRICE",
      "outputs": [
        {
          "internalType": "uint256",
          "name": "",
          "type": "uint256"
        }
      ],
      "stateMutability": "view",
      "type": "function",
      "constant": true
    },
    {
      "inputs": [],
      "name": "REVEAL_TIMESTAMP",
      "outputs": [
        {
          "internalType": "uint256",
          "name": "",
          "type": "uint256"
        }
      ],
      "stateMutability": "view",
      "type": "function",
      "constant": true
    },
    {
      "inputs": [],
      "name": "SALE_START_TIMESTAMP",
      "outputs": [
        {
          "internalType": "uint256",
          "name": "",
          "type": "uint256"
        }
      ],
      "stateMutability": "view",
      "type": "function",
      "constant": true
    },
    {
      "inputs": [],
      "name": "communityTakeHomeRate",
      "outputs": [
        {
          "internalType": "uint256",
          "name": "",
          "type": "uint256"
        }
      ],
      "stateMutability": "view",
      "type": "function",
      "constant": true
    },
    {
      "inputs": [],
      "name": "communityTakeHomeRateUpdatedAt",
      "outputs": [
        {
          "internalType": "uint256",
          "name": "",
          "type": "uint256"
        }
      ],
      "stateMutability": "view",
      "type": "function",
      "constant": true
    },
    {
      "inputs": [],
      "name": "depreciationDecayRatePerDay",
      "outputs": [
        {
          "internalType": "uint256",
          "name": "",
          "type": "uint256"
        }
      ],
      "stateMutability": "view",
      "type": "function",
      "constant": true
    },
    {
      "inputs": [],
      "name": "owner",
      "outputs": [
        {
          "internalType": "address",
          "name": "",
          "type": "address"
        }
      ],
      "stateMutability": "view",
      "type": "function",
      "constant": true
    },
    {
      "inputs": [],
      "name": "renounceOwnership",
      "outputs": [],
      "stateMutability": "nonpayable",
      "type": "function"
    },
    {
      "inputs": [],
      "name": "startingIndex",
      "outputs": [
        {
          "internalType": "uint256",
          "name": "",
          "type": "uint256"
        }
      ],
      "stateMutability": "view",
      "type": "function",
      "constant": true
    },
    {
      "inputs": [],
      "name": "startingIndexBlock",
      "outputs": [
        {
          "internalType": "uint256",
          "name": "",
          "type": "uint256"
        }
      ],
      "stateMutability": "view",
      "type": "function",
      "constant": true
    },
    {
      "inputs": [
        {
          "internalType": "bytes4",
          "name": "interfaceId",
          "type": "bytes4"
        }
      ],
      "name": "supportsInterface",
      "outputs": [
        {
          "internalType": "bool",
          "name": "",
          "type": "bool"
        }
      ],
      "stateMutability": "view",
      "type": "function",
      "constant": true
    },
    {
      "inputs": [
        {
          "internalType": "address",
          "name": "newOwner",
          "type": "address"
        }
      ],
      "name": "transferOwnership",
      "outputs": [],
      "stateMutability": "nonpayable",
      "type": "function"
    },
    {
      "inputs": [
        {
          "internalType": "address",
          "name": "owner",
          "type": "address"
        }
      ],
      "name": "balanceOf",
      "outputs": [
        {
          "internalType": "uint256",
          "name": "",
          "type": "uint256"
        }
      ],
      "stateMutability": "view",
      "type": "function",
      "constant": true
    },
    {
      "inputs": [
        {
          "internalType": "uint256",
          "name": "tokenId",
          "type": "uint256"
        }
      ],
      "name": "ownerOf",
      "outputs": [
        {
          "internalType": "address",
          "name": "",
          "type": "address"
        }
      ],
      "stateMutability": "view",
      "type": "function",
      "constant": true
    },
    {
      "inputs": [],
      "name": "name",
      "outputs": [
        {
          "internalType": "string",
          "name": "",
          "type": "string"
        }
      ],
      "stateMutability": "view",
      "type": "function",
      "constant": true
    },
    {
      "inputs": [],
      "name": "symbol",
      "outputs": [
        {
          "internalType": "string",
          "name": "",
          "type": "string"
        }
      ],
      "stateMutability": "view",
      "type": "function",
      "constant": true
    },
    {
      "inputs": [
        {
          "internalType": "address",
          "name": "owner",
          "type": "address"
        },
        {
          "internalType": "uint256",
          "name": "index",
          "type": "uint256"
        }
      ],
      "name": "tokenOfOwnerByIndex",
      "outputs": [
        {
          "internalType": "uint256",
          "name": "",
          "type": "uint256"
        }
      ],
      "stateMutability": "view",
      "type": "function",
      "constant": true
    },
    {
      "inputs": [],
      "name": "totalSupply",
      "outputs": [
        {
          "internalType": "uint256",
          "name": "",
          "type": "uint256"
        }
      ],
      "stateMutability": "view",
      "type": "function",
      "constant": true
    },
    {
      "inputs": [
        {
          "internalType": "uint256",
          "name": "index",
          "type": "uint256"
        }
      ],
      "name": "tokenByIndex",
      "outputs": [
        {
          "internalType": "uint256",
          "name": "",
          "type": "uint256"
        }
      ],
      "stateMutability": "view",
      "type": "function",
      "constant": true
    },
    {
      "inputs": [
        {
          "internalType": "uint256",
          "name": "index",
          "type": "uint256"
        }
      ],
      "name": "tokenNameByIndex",
      "outputs": [
        {
          "internalType": "string",
          "name": "",
          "type": "string"
        }
      ],
      "stateMutability": "view",
      "type": "function",
      "constant": true
    },
    {
      "inputs": [
        {
          "internalType": "uint256",
          "name": "index",
          "type": "uint256"
        }
      ],
      "name": "tokenDescriptionByIndex",
      "outputs": [
        {
          "internalType": "string",
          "name": "",
          "type": "string"
        }
      ],
      "stateMutability": "view",
      "type": "function",
      "constant": true
    },
    {
      "inputs": [
        {
          "internalType": "uint256",
          "name": "index",
          "type": "uint256"
        }
      ],
      "name": "tokenMBTGeneratingMultiplierByIndex",
      "outputs": [
        {
          "internalType": "uint256",
          "name": "",
          "type": "uint256"
        }
      ],
      "stateMutability": "view",
      "type": "function",
      "constant": true
    },
    {
      "inputs": [
        {
          "internalType": "string",
          "name": "nameString",
          "type": "string"
        }
      ],
      "name": "isNameReserved",
      "outputs": [
        {
          "internalType": "bool",
          "name": "",
          "type": "bool"
        }
      ],
      "stateMutability": "view",
      "type": "function",
      "constant": true
    },
    {
      "inputs": [
        {
          "internalType": "uint256",
          "name": "index",
          "type": "uint256"
        }
      ],
      "name": "isMintedWithBonusMBT",
      "outputs": [
        {
          "internalType": "bool",
          "name": "",
          "type": "bool"
        }
      ],
      "stateMutability": "view",
      "type": "function",
      "constant": true
    },
    {
      "inputs": [],
      "name": "initGrantedMBT",
      "outputs": [
        {
          "internalType": "uint256",
          "name": "",
          "type": "uint256"
        }
      ],
      "stateMutability": "view",
      "type": "function",
      "constant": true
    },
    {
      "inputs": [],
      "name": "initNFTPrice",
      "outputs": [
        {
          "internalType": "uint256",
          "name": "",
          "type": "uint256"
        }
      ],
      "stateMutability": "view",
      "type": "function",
      "constant": true
    },
    {
      "inputs": [],
      "name": "initMBTMultiplier",
      "outputs": [
        {
          "internalType": "uint256",
          "name": "",
          "type": "uint256"
        }
      ],
      "stateMutability": "view",
      "type": "function",
      "constant": true
    },
    {
      "inputs": [],
      "name": "pokeCommunityTakeHomeRate",
      "outputs": [],
      "stateMutability": "nonpayable",
      "type": "function"
    },
    {
      "inputs": [
        {
          "internalType": "uint256",
          "name": "numberOfNfts",
          "type": "uint256"
        }
      ],
      "name": "mintNFT",
      "outputs": [],
      "stateMutability": "payable",
      "type": "function",
      "payable": true
    },
    {
      "inputs": [],
      "name": "finalizeStartingIndexAndBurnRewards",
      "outputs": [],
      "stateMutability": "nonpayable",
      "type": "function"
    },
    {
      "inputs": [
        {
          "internalType": "uint256",
          "name": "tokenId",
          "type": "uint256"
        },
        {
          "internalType": "string",
          "name": "newName",
          "type": "string"
        }
      ],
      "name": "changeName",
      "outputs": [],
      "stateMutability": "nonpayable",
      "type": "function"
    },
    {
      "inputs": [
        {
          "internalType": "uint256",
          "name": "tokenId",
          "type": "uint256"
        },
        {
          "internalType": "string",
          "name": "newDescription",
          "type": "string"
        }
      ],
      "name": "changeDescription",
      "outputs": [],
      "stateMutability": "nonpayable",
      "type": "function"
    },
    {
      "inputs": [],
      "name": "withdraw",
      "outputs": [],
      "stateMutability": "nonpayable",
      "type": "function"
    },
    {
      "inputs": [
        {
          "internalType": "address",
          "name": "to",
          "type": "address"
        },
        {
          "internalType": "uint256",
          "name": "tokenId",
          "type": "uint256"
        }
      ],
      "name": "approve",
      "outputs": [],
      "stateMutability": "nonpayable",
      "type": "function"
    },
    {
      "inputs": [
        {
          "internalType": "uint256",
          "name": "tokenId",
          "type": "uint256"
        }
      ],
      "name": "getApproved",
      "outputs": [
        {
          "internalType": "address",
          "name": "",
          "type": "address"
        }
      ],
      "stateMutability": "view",
      "type": "function",
      "constant": true
    },
    {
      "inputs": [
        {
          "internalType": "address",
          "name": "operator",
          "type": "address"
        },
        {
          "internalType": "bool",
          "name": "approved",
          "type": "bool"
        }
      ],
      "name": "setApprovalForAll",
      "outputs": [],
      "stateMutability": "nonpayable",
      "type": "function"
    },
    {
      "inputs": [
        {
          "internalType": "address",
          "name": "owner",
          "type": "address"
        },
        {
          "internalType": "address",
          "name": "operator",
          "type": "address"
        }
      ],
      "name": "isApprovedForAll",
      "outputs": [
        {
          "internalType": "bool",
          "name": "",
          "type": "bool"
        }
      ],
      "stateMutability": "view",
      "type": "function",
      "constant": true
    },
    {
      "inputs": [
        {
          "internalType": "address",
          "name": "from",
          "type": "address"
        },
        {
          "internalType": "address",
          "name": "to",
          "type": "address"
        },
        {
          "internalType": "uint256",
          "name": "tokenId",
          "type": "uint256"
        }
      ],
      "name": "transferFrom",
      "outputs": [],
      "stateMutability": "nonpayable",
      "type": "function"
    },
    {
      "inputs": [
        {
          "internalType": "address",
          "name": "from",
          "type": "address"
        },
        {
          "internalType": "address",
          "name": "to",
          "type": "address"
        },
        {
          "internalType": "uint256",
          "name": "tokenId",
          "type": "uint256"
        }
      ],
      "name": "safeTransferFrom",
      "outputs": [],
      "stateMutability": "nonpayable",
      "type": "function"
    },
    {
      "inputs": [
        {
          "internalType": "address",
          "name": "from",
          "type": "address"
        },
        {
          "internalType": "address",
          "name": "to",
          "type": "address"
        },
        {
          "internalType": "uint256",
          "name": "tokenId",
          "type": "uint256"
        },
        {
          "internalType": "bytes",
          "name": "_data",
          "type": "bytes"
        }
      ],
      "name": "safeTransferFrom",
      "outputs": [],
      "stateMutability": "nonpayable",
      "type": "function"
    },
    {
      "inputs": [
        {
          "internalType": "uint256",
          "name": "tokenId",
          "type": "uint256"
        }
      ],
      "name": "burn",
      "outputs": [],
      "stateMutability": "nonpayable",
      "type": "function"
    },
    {
      "inputs": [
        {
          "internalType": "string",
          "name": "str",
          "type": "string"
        }
      ],
      "name": "validateName",
      "outputs": [
        {
          "internalType": "bool",
          "name": "",
          "type": "bool"
        }
      ],
      "stateMutability": "pure",
      "type": "function",
      "constant": true
    },
    {
      "inputs": [
        {
          "internalType": "string",
          "name": "str",
          "type": "string"
        }
      ],
      "name": "validateDescription",
      "outputs": [
        {
          "internalType": "bool",
          "name": "",
          "type": "bool"
        }
      ],
      "stateMutability": "pure",
      "type": "function",
      "constant": true
    },
    {
      "inputs": [
        {
          "internalType": "string",
          "name": "str",
          "type": "string"
        }
      ],
      "name": "toLower",
      "outputs": [
        {
          "internalType": "string",
          "name": "",
          "type": "string"
        }
      ],
      "stateMutability": "pure",
      "type": "function",
      "constant": true
    }
  ],
  "bytecode": "0x6080604052600160025560035462278d008101600455624f1a0081016005556276a7008101600655614301600755670b1a2bc2ec50000060085562015180016009556000600a553480156200005357600080fd5b506040516200483b3803806200483b833981810160405260c08110156200007957600080fd5b81019080805160405193929190846401000000008211156200009a57600080fd5b908301906020820185811115620000b057600080fd5b8251640100000000811182820188101715620000cb57600080fd5b82525081516020918201929091019080838360005b83811015620000fa578181015183820152602001620000e0565b50505050905090810190601f168015620001285780820380516001836020036101000a031916815260200191505b50604052602001805160405193929190846401000000008211156200014c57600080fd5b9083019060208201858111156200016257600080fd5b82516401000000008111828201881017156200017d57600080fd5b82525081516020918201929091019080838360005b83811015620001ac57818101518382015260200162000192565b50505050905090810190601f168015620001da5780820380516001836020036101000a031916815260200191505b506040908152602082015190820151606083015160809093015191945092506000620002056200031d565b600080546001600160a01b0319166001600160a01b0383169081178255604051929350917f8be0079c531659141344cd1fd0a4f28419497f9722a3daafe3b4186f6b6457e0908290a350620002616301ffc9a760e01b62000321565b855162000276906017906020890190620003a9565b5084516200028c906018906020880190620003a9565b50601980546001600160a01b0319166001600160a01b03861617905560078290556002819055600383905562278d008301600455624f1a0083016005556276a7008301600655620151808301600955620002ed6380ac58cd60e01b62000321565b620002ff634992a2a160e11b62000321565b6200031163780e9d6360e01b62000321565b50505050505062000445565b3390565b6001600160e01b0319808216141562000381576040805162461bcd60e51b815260206004820152601c60248201527f4552433136353a20696e76616c696420696e7465726661636520696400000000604482015290519081900360640190fd5b6001600160e01b0319166000908152600160208190526040909120805460ff19169091179055565b828054600181600116156101000203166002900490600052602060002090601f016020900481019282601f10620003ec57805160ff19168380011785556200041c565b828001600101855582156200041c579182015b828111156200041c578251825591602001919060010190620003ff565b506200042a9291506200042e565b5090565b5b808211156200042a57600081556001016200042f565b6143e680620004556000396000f3fe6080604052600436106102ff5760003560e01c806370a0823111610190578063b25d095c116100dc578063c8ed64fe11610095578063e2bc64c41161006f578063e2bc64c414610dac578063e36d649814610dd6578063e985e9c514610deb578063f2fde38b14610e26576102ff565b8063c8ed64fe14610cca578063cb774d4714610cdf578063de6a06ed14610cf4576102ff565b8063b25d095c14610aed578063b5077f4414610b02578063b88d4fde14610b17578063c39cbef114610be8578063c7fff83114610ca0578063c878fad814610cb5576102ff565b8063926427441161014957806395d89b411161012357806395d89b411461093b5780639ffdb65a14610950578063a22cb46514610a01578063a69722de14610a3c576102ff565b806392642744146108585780639416b42314610875578063946807fd14610926576102ff565b806370a08231146107bc578063715018a6146107ef5780637478e944146108045780637c5ea5951461081957806386fb26ae1461082e5780638da5cb5b14610843576102ff565b80633f186eb61161024f5780634f6ccce711610208578063606987eb116101e2578063606987eb146107295780636352211e1461075357806364e735661461077d5780636d52241814610792576102ff565b80634f6ccce7146106ea57806354b6f161146106d5578063563245b714610714576102ff565b80633f186eb6146106295780633f4af7121461063e57806341f41c4d1461065357806342842e0e1461066857806342966c68146106ab5780634caf3010146106d5576102ff565b806315b56d10116102bc57806323b872dd1161029657806323b872dd1461056e5780632ab32ce9146105b15780632f745c59146105db5780633ccfd60b14610614576102ff565b806315b56d101461048157806318160ddd1461053257806318e20a3814610559576102ff565b806301ffc9a71461030457806303dba4701461034c57806306f9cf761461036357806306fdde0314610378578063081812fc14610402578063095ea7b314610448575b600080fd5b34801561031057600080fd5b506103386004803603602081101561032757600080fd5b50356001600160e01b031916610e59565b604080519115158252519081900360200190f35b34801561035857600080fd5b50610361610e7c565b005b34801561036f57600080fd5b50610361610fbe565b34801561038457600080fd5b5061038d611115565b6040805160208082528351818301528351919283929083019185019080838360005b838110156103c75781810151838201526020016103af565b50505050905090810190601f1680156103f45780820380516001836020036101000a031916815260200191505b509250505060405180910390f35b34801561040e57600080fd5b5061042c6004803603602081101561042557600080fd5b50356111ac565b604080516001600160a01b039092168252519081900360200190f35b34801561045457600080fd5b506103616004803603604081101561046b57600080fd5b506001600160a01b03813516906020013561120e565b34801561048d57600080fd5b50610338600480360360208110156104a457600080fd5b810190602081018135600160201b8111156104be57600080fd5b8201836020820111156104d057600080fd5b803590602001918460018302840111600160201b831117156104f157600080fd5b91908080601f0160208091040260200160405190810160405280939291908181526020018383808284376000920191909152509295506112e9945050505050565b34801561053e57600080fd5b5061054761135c565b60408051918252519081900360200190f35b34801561056557600080fd5b5061054761136d565b34801561057a57600080fd5b506103616004803603606081101561059157600080fd5b506001600160a01b03813581169160208101359091169060400135611373565b3480156105bd57600080fd5b5061038d600480360360208110156105d457600080fd5b50356113ca565b3480156105e757600080fd5b50610547600480360360408110156105fe57600080fd5b506001600160a01b03813516906020013561146b565b34801561062057600080fd5b50610361611496565b34801561063557600080fd5b5061054761155a565b34801561064a57600080fd5b5061038d611561565b34801561065f57600080fd5b5061054761157d565b34801561067457600080fd5b506103616004803603606081101561068b57600080fd5b506001600160a01b03813581169160208101359091169060400135611583565b3480156106b757600080fd5b50610361600480360360208110156106ce57600080fd5b503561159e565b3480156106e157600080fd5b506105476118fa565b3480156106f657600080fd5b506105476004803603602081101561070d57600080fd5b5035611907565b34801561072057600080fd5b5061054761191d565b34801561073557600080fd5b506105476004803603602081101561074c57600080fd5b503561192b565b34801561075f57600080fd5b5061042c6004803603602081101561077657600080fd5b503561193d565b34801561078957600080fd5b50610547611965565b34801561079e57600080fd5b5061038d600480360360208110156107b557600080fd5b503561196b565b3480156107c857600080fd5b50610547600480360360208110156107df57600080fd5b50356001600160a01b03166119d5565b3480156107fb57600080fd5b50610361611a3d565b34801561081057600080fd5b50610547611af1565b34801561082557600080fd5b50610547611c37565b34801561083a57600080fd5b50610547611c3d565b34801561084f57600080fd5b5061042c611c43565b6103616004803603602081101561086e57600080fd5b5035611c52565b34801561088157600080fd5b5061038d6004803603602081101561089857600080fd5b810190602081018135600160201b8111156108b257600080fd5b8201836020820111156108c457600080fd5b803590602001918460018302840111600160201b831117156108e557600080fd5b91908080601f016020809104026020016040519081016040528093929190818152602001838380828437600092019190915250929550611ed3945050505050565b34801561093257600080fd5b50610547611ff5565b34801561094757600080fd5b5061038d611ffb565b34801561095c57600080fd5b506103386004803603602081101561097357600080fd5b810190602081018135600160201b81111561098d57600080fd5b82018360208201111561099f57600080fd5b803590602001918460018302840111600160201b831117156109c057600080fd5b91908080601f01602080910402602001604051908101604052809392919081815260200183838082843760009201919091525092955061205c945050505050565b348015610a0d57600080fd5b5061036160048036036040811015610a2457600080fd5b506001600160a01b0381351690602001351515612247565b348015610a4857600080fd5b5061033860048036036020811015610a5f57600080fd5b810190602081018135600160201b811115610a7957600080fd5b820183602082011115610a8b57600080fd5b803590602001918460018302840111600160201b83111715610aac57600080fd5b91908080601f01602080910402602001604051908101604052809392919081815260200183838082843760009201919091525092955061234c945050505050565b348015610af957600080fd5b5061054761252c565b348015610b0e57600080fd5b50610547612538565b348015610b2357600080fd5b5061036160048036036080811015610b3a57600080fd5b6001600160a01b03823581169260208101359091169160408201359190810190608081016060820135600160201b811115610b7457600080fd5b820183602082011115610b8657600080fd5b803590602001918460018302840111600160201b83111715610ba757600080fd5b91908080601f01602080910402602001604051908101604052809392919081815260200183838082843760009201919091525092955061253e945050505050565b348015610bf457600080fd5b5061036160048036036040811015610c0b57600080fd5b81359190810190604081016020820135600160201b811115610c2c57600080fd5b820183602082011115610c3e57600080fd5b803590602001918460018302840111600160201b83111715610c5f57600080fd5b91908080601f01602080910402602001604051908101604052809392919081815260200183838082843760009201919091525092955061259c945050505050565b348015610cac57600080fd5b50610547612ad3565b348015610cc157600080fd5b50610547612ad9565b348015610cd657600080fd5b50610547612c08565b348015610ceb57600080fd5b50610547612c15565b348015610d0057600080fd5b5061036160048036036040811015610d1757600080fd5b81359190810190604081016020820135600160201b811115610d3857600080fd5b820183602082011115610d4a57600080fd5b803590602001918460018302840111600160201b83111715610d6b57600080fd5b91908080601f016020809104026020016040519081016040528093929190818152602001838380828437600092019190915250929550612c1b945050505050565b348015610db857600080fd5b5061033860048036036020811015610dcf57600080fd5b5035612ff1565b348015610de257600080fd5b50610547613006565b348015610df757600080fd5b5061033860048036036040811015610e0e57600080fd5b506001600160a01b038135811691602001351661300c565b348015610e3257600080fd5b5061036160048036036020811015610e4957600080fd5b50356001600160a01b031661303a565b6001600160e01b0319811660009081526001602052604090205460ff165b919050565b600b5415610ed1576040805162461bcd60e51b815260206004820152601d60248201527f5374617274696e6720696e64657820697320616c726561647920736574000000604482015290519081900360640190fd5b600a54610f25576040805162461bcd60e51b815260206004820181905260248201527f5374617274696e6720696e64657820626c6f636b206d75737420626520736574604482015290519081900360640190fd5b600754600a544081610f3357fe5b06600b55600a5460ff90610f48904390613144565b1115610f635760075460001943014081610f5e57fe5b06600b555b600b54610f7c57600b54610f789060016131a1565b600b555b600c54610fbc57610fb8670de0b6b3a7640000610fb26002610fac600854610fac610fa561135c565b47906131fb565b90613262565b906131fb565b600c555b565b60035442101561100c576040805162461bcd60e51b815260206004820152601460248201527314d85b19481a185cc81b9bdd081cdd185c9d195960621b604482015290519081900360640190fd5b60075461101761135c565b1115611063576040805162461bcd60e51b815260206004820152601660248201527514d85b19481a185cc8185b1c9958591e48195b99195960521b604482015290519081900360640190fd5b600554421015801561107f57506008546702c68af0bb14000014155b15611095576702c68af0bb140000600855610fbc565b620151806003540142101580156110ad575060055442105b15610fbc576000620151806009544203816110c457fe5b0490505b60018110611112576110f9670de0b6b3a7640000610fb2670d74ef7e18a6c68060085461326290919063ffffffff16565b6008554260095561110b816001613144565b90506110c8565b50565b60178054604080516020601f60026000196101006001881615020190951694909404938401819004810282018101909252828152606093909290918301828280156111a15780601f10611176576101008083540402835291602001916111a1565b820191906000526020600020905b81548152906001019060200180831161118457829003601f168201915b505050505090505b90565b60006111b7826132bb565b6111f25760405162461bcd60e51b815260040180806020018281038252602c81526020018061424e602c913960400191505060405180910390fd5b506000908152601060205260409020546001600160a01b031690565b60006112198261193d565b9050806001600160a01b0316836001600160a01b0316141561126c5760405162461bcd60e51b81526004018080602001828103825260218152602001806142ef6021913960400191505060405180910390fd5b806001600160a01b031661127e6132c8565b6001600160a01b0316148061129f575061129f8161129a6132c8565b61300c565b6112da5760405162461bcd60e51b81526004018080602001828103825260388152602001806141576038913960400191505060405180910390fd5b6112e483836132cc565b505050565b600060146112f683611ed3565b6040518082805190602001908083835b602083106113255780518252601f199092019160209182019101611306565b51815160209384036101000a600019018019909216911617905292019485525060405193849003019092205460ff16949350505050565b6000611368600e61333a565b905090565b60055481565b61138461137e6132c8565b82613345565b6113bf5760405162461bcd60e51b81526004018080602001828103825260318152602001806143106031913960400191505060405180910390fd5b6112e48383836133e9565b60008181526012602090815260409182902080548351601f600260001961010060018616150201909316929092049182018490048402810184019094528084526060939283018282801561145f5780601f106114345761010080835404028352916020019161145f565b820191906000526020600020905b81548152906001019060200180831161144257829003601f168201915b50505050509050919050565b6001600160a01b0382166000908152600d6020526040812061148d9083613535565b90505b92915050565b61149e6132c8565b6000546001600160a01b03908116911614611500576040805162461bcd60e51b815260206004820181905260248201527f4f776e61626c653a2063616c6c6572206973206e6f7420746865206f776e6572604482015290519081900360640190fd5b6000670de0b6b3a76400006008548161151557fe5b0460010347029050336001600160a01b03166108fc829081150290604051600060405180830381858888f19350505050158015611556573d6000803e3d6000fd5b5050565b6201518081565b6040518060600160405280604081526020016143716040913981565b600c5481565b6112e48383836040518060200160405280600081525061253e565b8060006115aa8261193d565b9050806001600160a01b03166115be6132c8565b6001600160a01b031614611619576040805162461bcd60e51b815260206004820152601f60248201527f4552433732313a2063616c6c6572206973206e6f7420746865206f776e657200604482015290519081900360640190fd5b611622836132bb565b61165d5760405162461bcd60e51b81526004018080602001828103825260298152602001806142a36029913960400191505060405180910390fd5b61166e6116686132c8565b84613345565b6116a95760405162461bcd60e51b81526004018080602001828103825260308152602001806143416030913960400191505060405180910390fd5b6006544210156116f8576040805162461bcd60e51b8152602060048201526015602482015274109d5c9b881a5cc8185d985a5b18589b19481e595d605a1b604482015290519081900360640190fd5b601954604080516323b872dd60e01b81523360048201523060248201526901b1ae4d6e2ef5000000604482015290516001600160a01b03909216916323b872dd916064808201926020929091908290030181600087803b15801561175b57600080fd5b505af115801561176f573d6000803e3d6000fd5b505050506040513d602081101561178557600080fd5b505060195460408051630852cd8d60e31b81526901b1ae4d6e2ef5000000600482015290516001600160a01b03909216916342966c68916024808201926020929091908290030181600087803b1580156117de57600080fd5b505af11580156117f2573d6000803e3d6000fd5b505050506040513d602081101561180857600080fd5b50611814905083613541565b600c546040516000916060913391908481818185875af1925050503d806000811461185b576040519150601f19603f3d011682016040523d82523d6000602084013e611860565b606091505b5091509150816118ae576040805162461bcd60e51b81526020600482015260146024820152732330b4b632b2103a37903932bbb0b9321021272160611b604482015290519081900360640190fd5b847ff6554c3a5d28e08c120b5a69c7edbaf52f935bd2596a60b8a18e282cd257cddb6118d86132c8565b604080516001600160a01b039092168252519081900360200190a25050505050565b686c6b935b8bbd40000081565b600080611915600e846135d0565b509392505050565b6901b1ae4d6e2ef500000081565b60009081526013602052604090205490565b6000611490826040518060600160405280602981526020016141e260299139600e91906135ec565b60095481565b60008181526011602090815260409182902080548351601f600260001961010060018616150201909316929092049182018490048402810184019094528084526060939283018282801561145f5780601f106114345761010080835404028352916020019161145f565b60006001600160a01b038216611a1c5760405162461bcd60e51b815260040180806020018281038252602a8152602001806141b8602a913960400191505060405180910390fd5b6001600160a01b0382166000908152600d602052604090206114909061333a565b611a456132c8565b6000546001600160a01b03908116911614611aa7576040805162461bcd60e51b815260206004820181905260248201527f4f776e61626c653a2063616c6c6572206973206e6f7420746865206f776e6572604482015290519081900360640190fd5b600080546040516001600160a01b03909116907f8be0079c531659141344cd1fd0a4f28419497f9722a3daafe3b4186f6b6457e0908390a3600080546001600160a01b0319169055565b6000600354421015611b41576040805162461bcd60e51b815260206004820152601460248201527314d85b19481a185cc81b9bdd081cdd185c9d195960621b604482015290519081900360640190fd5b600754611b4c61135c565b1115611b98576040805162461bcd60e51b815260206004820152601660248201527514d85b19481a185cc8185b1c9958591e48195b99195960521b604482015290519081900360640190fd5b6000611ba261135c565b90506142fe8110611bbb5750506002546103e8026111a9565b61429a8110611bd15750506002546064026111a9565b6135e88110611be75750506002546018026111a9565b6129048110611bfd575050600254600c026111a9565b611bbc8110611c135750506002546006026111a9565b610e108110611c295750506002546003026111a9565b50506002546111a9565b5090565b60045481565b60065481565b6000546001600160a01b031690565b600354421015611ca0576040805162461bcd60e51b815260206004820152601460248201527314d85b19481a185cc81b9bdd081cdd185c9d195960621b604482015290519081900360640190fd5b600754611cab61135c565b1115611cf7576040805162461bcd60e51b815260206004820152601660248201527514d85b19481a185cc8185b1c9958591e48195b99195960521b604482015290519081900360640190fd5b60008111611d4c576040805162461bcd60e51b815260206004820152601860248201527f6e756d6265724f664e6674732063616e6e6f7420626520300000000000000000604482015290519081900360640190fd5b6014811115611d8c5760405162461bcd60e51b815260040180806020018281038252602981526020018061418f6029913960400191505060405180910390fd5b600754611da182611d9b61135c565b906131a1565b1115611ded576040805162461bcd60e51b815260206004820152601660248201527545786365656473204d41585f4e46545f535550504c5960501b604482015290519081900360640190fd5b34611dfa82610fac611af1565b14611e4c576040805162461bcd60e51b815260206004820152601d60248201527f424e422076616c75652073656e74206973206e6f7420636f7272656374000000604482015290519081900360640190fd5b60005b81811015611e9a576000611e6161135c565b9050600554421015611e87576000818152601560205260409020805460ff191660011790555b611e913382613603565b50600101611e4f565b50611ea3610fbe565b600a54158015611ec75750600754611eb961135c565b1480611ec757506005544210155b156111125743600a5550565b6060808290506060815167ffffffffffffffff81118015611ef357600080fd5b506040519080825280601f01601f191660200182016040528015611f1e576020820181803683370190505b50905060005b8251811015611915576041838281518110611f3b57fe5b016020015160f81c10801590611f655750605a838281518110611f5a57fe5b016020015160f81c11155b15611fb257828181518110611f7657fe5b602001015160f81c60f81b60f81c60200160f81b828281518110611f9657fe5b60200101906001600160f81b031916908160001a905350611fed565b828181518110611fbe57fe5b602001015160f81c60f81b828281518110611fd557fe5b60200101906001600160f81b031916908160001a9053505b600101611f24565b60035481565b60188054604080516020601f60026000196101006001881615020190951694909404938401819004810282018101909252828152606093909290918301828280156111a15780601f10611176576101008083540402835291602001916111a1565b60006060829050600181511015612077576000915050610e77565b60198151111561208b576000915050610e77565b8060008151811061209857fe5b6020910101516001600160f81b031916600160fd1b14156120bd576000915050610e77565b806001825103815181106120cd57fe5b6020910101516001600160f81b031916600160fd1b14156120f2576000915050610e77565b60008160008151811061210157fe5b01602001516001600160f81b031916905060005b825181101561223c57600083828151811061212c57fe5b01602001516001600160f81b0319169050600160fd1b8114801561215d5750600160fd1b6001600160f81b03198416145b1561216f576000945050505050610e77565b600360fc1b6001600160f81b031982161080159061219b5750603960f81b6001600160f81b0319821611155b1580156121d15750604160f81b6001600160f81b03198216108015906121cf5750602d60f91b6001600160f81b0319821611155b155b80156122065750606160f81b6001600160f81b03198216108015906122045750603d60f91b6001600160f81b0319821611155b155b80156122205750600160fd1b6001600160f81b0319821614155b15612232576000945050505050610e77565b9150600101612115565b506001949350505050565b61224f6132c8565b6001600160a01b0316826001600160a01b031614156122b5576040805162461bcd60e51b815260206004820152601960248201527f4552433732313a20617070726f766520746f2063616c6c657200000000000000604482015290519081900360640190fd5b80601660006122c26132c8565b6001600160a01b03908116825260208083019390935260409182016000908120918716808252919093529120805460ff1916921515929092179091556123066132c8565b6001600160a01b03167f17307eab39ab6107e8899845ad3d59bd9653f200f220920489ca2b5937696c318360405180821515815260200191505060405180910390a35050565b60006060829050600181511015612367576000915050610e77565b60c88151111561237b576000915050610e77565b8060008151811061238857fe5b6020910101516001600160f81b031916600160fd1b14156123ad576000915050610e77565b806001825103815181106123bd57fe5b6020910101516001600160f81b031916600160fd1b14156123e2576000915050610e77565b6000816000815181106123f157fe5b01602001516001600160f81b031916905060005b825181101561223c57600083828151811061241c57fe5b01602001516001600160f81b0319169050600160fd1b8114801561244d5750600160fd1b6001600160f81b03198416145b1561245f576000945050505050610e77565b600360fc1b6001600160f81b031982161080159061248b5750603960f81b6001600160f81b0319821611155b1580156124c15750604160f81b6001600160f81b03198216108015906124bf5750602d60f91b6001600160f81b0319821611155b155b80156124f65750606160f81b6001600160f81b03198216108015906124f45750603d60f91b6001600160f81b0319821611155b155b80156125105750600160fd1b6001600160f81b0319821614155b15612522576000945050505050610e77565b9150600101612405565b670d74ef7e18a6c68081565b60075481565b61254f6125496132c8565b83613345565b61258a5760405162461bcd60e51b81526004018080602001828103825260318152602001806143106031913960400191505060405180910390fd5b6125968484848461361d565b50505050565b8160006125a88261193d565b9050806001600160a01b03166125bc6132c8565b6001600160a01b031614612617576040805162461bcd60e51b815260206004820152601f60248201527f4552433732313a2063616c6c6572206973206e6f7420746865206f776e657200604482015290519081900360640190fd5b6126208361205c565b151560011461266d576040805162461bcd60e51b81526020600482015260146024820152734e6f7420612076616c6964206e6577206e616d6560601b604482015290519081900360640190fd5b60026011600086815260200190815260200160002060405180828054600181600116156101000203166002900480156126dd5780601f106126bb5761010080835404028352918201916126dd565b820191906000526020600020905b8154815290600101906020018083116126c9575b5050915050602060405180830381855afa1580156126ff573d6000803e3d6000fd5b5050506040513d602081101561271457600080fd5b505160405184516002918691819060208401908083835b6020831061274a5780518252601f19909201916020918201910161272b565b51815160209384036101000a60001901801990921691161790526040519190930194509192505080830381855afa158015612789573d6000803e3d6000fd5b5050506040513d602081101561279e57600080fd5b505114156127dd5760405162461bcd60e51b81526004018080602001828103825260238152602001806142cc6023913960400191505060405180910390fd5b6127e6836112e9565b15612830576040805162461bcd60e51b815260206004820152601560248201527413985b5948185b1c9958591e481c995cd95c9d9959605a1b604482015290519081900360640190fd5b601954604080516323b872dd60e01b8152336004820152306024820152686c6b935b8bbd400000604482015290516001600160a01b03909216916323b872dd916064808201926020929091908290030181600087803b15801561289257600080fd5b505af11580156128a6573d6000803e3d6000fd5b505050506040513d60208110156128bc57600080fd5b505060008481526011602052604090205460026000196101006001841615020190911604156129875760008481526011602090815260409182902080548351601f60026000196101006001861615020190931692909204918201849004840281018401909452808452612987939283018282801561297b5780601f106129505761010080835404028352916020019161297b565b820191906000526020600020905b81548152906001019060200180831161295e57829003601f168201915b5050505050600061366f565b61299283600161366f565b600084815260116020908152604090912084516129b192860190614002565b5060195460408051630852cd8d60e31b8152686c6b935b8bbd400000600482015290516001600160a01b03909216916342966c68916024808201926020929091908290030181600087803b158015612a0857600080fd5b505af1158015612a1c573d6000803e3d6000fd5b505050506040513d6020811015612a3257600080fd5b5050604080516020808252855182820152855187937f7e632a301794d8d4a81ea7e20f37d1947158d36e66403af04ba85dd194b66f1b9388939092839283019185019080838360005b83811015612a93578181015183820152602001612a7b565b50505050905090810190601f168015612ac05780820380516001836020036101000a031916815260200191505b509250505060405180910390a250505050565b60085481565b6000600354421015612b29576040805162461bcd60e51b815260206004820152601460248201527314d85b19481a185cc81b9bdd081cdd185c9d195960621b604482015290519081900360640190fd5b600754612b3461135c565b1115612b80576040805162461bcd60e51b815260206004820152601660248201527514d85b19481a185cc8185b1c9958591e48195b99195960521b604482015290519081900360640190fd5b6000612b8a61135c565b90506142fe8110612b9f5760149150506111a9565b61429a8110612bb257600f9150506111a9565b6135e88110612bc557600f9150506111a9565b6129048110612bd857600f9150506111a9565b611bbc8110612beb57600a9150506111a9565b610e108110612bfe57600a9150506111a9565b600a9150506111a9565b68e20e600a64a2e8000090565b600b5481565b816000612c278261193d565b9050806001600160a01b0316612c3b6132c8565b6001600160a01b031614612c96576040805162461bcd60e51b815260206004820152601f60248201527f4552433732313a2063616c6c6572206973206e6f7420746865206f776e657200604482015290519081900360640190fd5b612c9f8361234c565b1515600114612cf5576040805162461bcd60e51b815260206004820152601b60248201527f4e6f7420612076616c6964206e6577206465736372697074696f6e0000000000604482015290519081900360640190fd5b6002601260008681526020019081526020016000206040518082805460018160011615610100020316600290048015612d655780601f10612d43576101008083540402835291820191612d65565b820191906000526020600020905b815481529060010190602001808311612d51575b5050915050602060405180830381855afa158015612d87573d6000803e3d6000fd5b5050506040513d6020811015612d9c57600080fd5b505160405184516002918691819060208401908083835b60208310612dd25780518252601f199092019160209182019101612db3565b51815160209384036101000a60001901801990921691161790526040519190930194509192505080830381855afa158015612e11573d6000803e3d6000fd5b5050506040513d6020811015612e2657600080fd5b50511415612e655760405162461bcd60e51b81526004018080602001828103825260238152602001806142cc6023913960400191505060405180910390fd5b601954604080516323b872dd60e01b8152336004820152306024820152686c6b935b8bbd400000604482015290516001600160a01b03909216916323b872dd916064808201926020929091908290030181600087803b158015612ec757600080fd5b505af1158015612edb573d6000803e3d6000fd5b505050506040513d6020811015612ef157600080fd5b505060008481526012602090815260409091208451612f1292860190614002565b5060195460408051630852cd8d60e31b8152686c6b935b8bbd400000600482015290516001600160a01b03909216916342966c68916024808201926020929091908290030181600087803b158015612f6957600080fd5b505af1158015612f7d573d6000803e3d6000fd5b505050506040513d6020811015612f9357600080fd5b5050604080516020808252855181830152855187937fc08f00439f67ede4cd3bf3516b07a5934614481602463c4c4ad2a0be58badf5c9388939092839283019185019080838360008315612a93578181015183820152602001612a7b565b60009081526015602052604090205460ff1690565b600a5481565b6001600160a01b03918216600090815260166020908152604080832093909416825291909152205460ff1690565b6130426132c8565b6000546001600160a01b039081169116146130a4576040805162461bcd60e51b815260206004820181905260248201527f4f776e61626c653a2063616c6c6572206973206e6f7420746865206f776e6572604482015290519081900360640190fd5b6001600160a01b0381166130e95760405162461bcd60e51b81526004018080602001828103825260268152602001806140e16026913960400191505060405180910390fd5b600080546040516001600160a01b03808516939216917f8be0079c531659141344cd1fd0a4f28419497f9722a3daafe3b4186f6b6457e091a3600080546001600160a01b0319166001600160a01b0392909216919091179055565b60008282111561319b576040805162461bcd60e51b815260206004820152601e60248201527f536166654d6174683a207375627472616374696f6e206f766572666c6f770000604482015290519081900360640190fd5b50900390565b60008282018381101561148d576040805162461bcd60e51b815260206004820152601b60248201527f536166654d6174683a206164646974696f6e206f766572666c6f770000000000604482015290519081900360640190fd5b6000808211613251576040805162461bcd60e51b815260206004820152601a60248201527f536166654d6174683a206469766973696f6e206279207a65726f000000000000604482015290519081900360640190fd5b81838161325a57fe5b049392505050565b60008261327157506000611490565b8282028284828161327e57fe5b041461148d5760405162461bcd60e51b815260040180806020018281038252602181526020018061422d6021913960400191505060405180910390fd5b6000611490600e836136eb565b3390565b600081815260106020526040902080546001600160a01b0319166001600160a01b03841690811790915581906133018261193d565b6001600160a01b03167f8c5be1e5ebec7d5bd14f71427d1e84f3dd0314c0f7b2291e5b200ac8c7c3b92560405160405180910390a45050565b6000611490826136f7565b6000613350826132bb565b61338b5760405162461bcd60e51b815260040180806020018281038252602c81526020018061412b602c913960400191505060405180910390fd5b60006133968361193d565b9050806001600160a01b0316846001600160a01b031614806133d15750836001600160a01b03166133c6846111ac565b6001600160a01b0316145b806133e157506133e1818561300c565b949350505050565b826001600160a01b03166133fc8261193d565b6001600160a01b0316146134415760405162461bcd60e51b815260040180806020018281038252602981526020018061427a6029913960400191505060405180910390fd5b6001600160a01b0382166134865760405162461bcd60e51b81526004018080602001828103825260248152602001806141076024913960400191505060405180910390fd5b6134918383836112e4565b61349c6000826132cc565b6001600160a01b0383166000908152600d602052604090206134be90826136fb565b506001600160a01b0382166000908152600d602052604090206134e19082613707565b506134ee600e8284613713565b5080826001600160a01b0316846001600160a01b03167fddf252ad1be2c89b69c2b068fc378daa952ba7f163c4a11628f55a4df523b3ef60405160405180910390a4505050565b600061148d8383613729565b600061354c8261193d565b905061355a816000846112e4565b6135656000836132cc565b6001600160a01b0381166000908152600d6020526040902061358790836136fb565b50613593600e8361378d565b5060405182906000906001600160a01b038416907fddf252ad1be2c89b69c2b068fc378daa952ba7f163c4a11628f55a4df523b3ef908390a45050565b60008080806135df8686613799565b9097909650945050505050565b60006135f9848484613814565b90505b9392505050565b6115568282604051806020016040528060008152506138de565b6136288484846133e9565b61363484848484613930565b6125965760405162461bcd60e51b81526004018080602001828103825260328152602001806140af6032913960400191505060405180910390fd5b80601461367b84611ed3565b6040518082805190602001908083835b602083106136aa5780518252601f19909201916020918201910161368b565b51815160209384036101000a60001901801990921691161790529201948552506040519384900301909220805460ff19169315159390931790925550505050565b600061148d8383613a98565b5490565b600061148d8383613ab0565b600061148d8383613b76565b60006135f984846001600160a01b038516613bc0565b8154600090821061376b5760405162461bcd60e51b815260040180806020018281038252602281526020018061408d6022913960400191505060405180910390fd5b82600001828154811061377a57fe5b9060005260206000200154905092915050565b600061148d8383613c57565b8154600090819083106137dd5760405162461bcd60e51b815260040180806020018281038252602281526020018061420b6022913960400191505060405180910390fd5b60008460000184815481106137ee57fe5b906000526020600020906002020190508060000154816001015492509250509250929050565b600082815260018401602052604081205482816138af5760405162461bcd60e51b81526004018080602001828103825283818151815260200191508051906020019080838360005b8381101561387457818101518382015260200161385c565b50505050905090810190601f1680156138a15780820380516001836020036101000a031916815260200191505b509250505060405180910390fd5b508460000160018203815481106138c257fe5b9060005260206000209060020201600101549150509392505050565b6138e88383613d2b565b6138f56000848484613930565b6112e45760405162461bcd60e51b81526004018080602001828103825260328152602001806140af6032913960400191505060405180910390fd5b6000613944846001600160a01b0316613e70565b613950575060016133e1565b6060613a5e630a85bd0160e11b6139656132c8565b88878760405160240180856001600160a01b03168152602001846001600160a01b0316815260200183815260200180602001828103825283818151815260200191508051906020019080838360005b838110156139cc5781810151838201526020016139b4565b50505050905090810190601f1680156139f95780820380516001836020036101000a031916815260200191505b5095505050505050604051602081830303815290604052906001600160e01b0319166020820180516001600160e01b0383818316178352505050506040518060600160405280603281526020016140af603291396001600160a01b0388169190613e76565b90506000818060200190516020811015613a7757600080fd5b50516001600160e01b031916630a85bd0160e11b1492505050949350505050565b60009081526001919091016020526040902054151590565b60008181526001830160205260408120548015613b6c5783546000198083019190810190600090879083908110613ae357fe5b9060005260206000200154905080876000018481548110613b0057fe5b600091825260208083209091019290925582815260018981019092526040902090840190558654879080613b3057fe5b60019003818190600052602060002001600090559055866001016000878152602001908152602001600020600090556001945050505050611490565b6000915050611490565b6000613b828383613a98565b613bb857508154600181810184556000848152602080822090930184905584548482528286019093526040902091909155611490565b506000611490565b600082815260018401602052604081205480613c255750506040805180820182528381526020808201848152865460018181018955600089815284812095516002909302909501918255915190820155865486845281880190925292909120556135fc565b82856000016001830381548110613c3857fe5b90600052602060002090600202016001018190555060009150506135fc565b60008181526001830160205260408120548015613b6c5783546000198083019190810190600090879083908110613c8a57fe5b9060005260206000209060020201905080876000018481548110613caa57fe5b600091825260208083208454600290930201918255600193840154918401919091558354825289830190526040902090840190558654879080613ce957fe5b60008281526020808220600260001990940193840201828155600190810183905592909355888152898201909252604082209190915594506114909350505050565b6001600160a01b038216613d86576040805162461bcd60e51b815260206004820181905260248201527f4552433732313a206d696e7420746f20746865207a65726f2061646472657373604482015290519081900360640190fd5b613d8f816132bb565b15613de1576040805162461bcd60e51b815260206004820152601c60248201527f4552433732313a20746f6b656e20616c7265616479206d696e74656400000000604482015290519081900360640190fd5b613ded600083836112e4565b6001600160a01b0382166000908152600d60205260409020613e0f9082613707565b50613e18612ad9565b600082815260136020526040902055613e33600e8284613713565b5060405181906001600160a01b038416906000907fddf252ad1be2c89b69c2b068fc378daa952ba7f163c4a11628f55a4df523b3ef908290a45050565b3b151590565b60606135f9848460008585613e8a85613e70565b613edb576040805162461bcd60e51b815260206004820152601d60248201527f416464726573733a2063616c6c20746f206e6f6e2d636f6e7472616374000000604482015290519081900360640190fd5b60006060866001600160a01b031685876040518082805190602001908083835b60208310613f1a5780518252601f199092019160209182019101613efb565b6001836020036101000a03801982511681845116808217855250505050505090500191505060006040518083038185875af1925050503d8060008114613f7c576040519150601f19603f3d011682016040523d82523d6000602084013e613f81565b606091505b5091509150613f91828286613f9c565b979650505050505050565b60608315613fab5750816135fc565b825115613fbb5782518084602001fd5b60405162461bcd60e51b815260206004820181815284516024840152845185939192839260440191908501908083836000831561387457818101518382015260200161385c565b828054600181600116156101000203166002900490600052602060002090601f016020900481019282601f1061404357805160ff1916838001178555614070565b82800160010185558215614070579182015b82811115614070578251825591602001919060010190614055565b50611c339291505b80821115611c33576000815560010161407856fe456e756d657261626c655365743a20696e646578206f7574206f6620626f756e64734552433732313a207472616e7366657220746f206e6f6e20455243373231526563656976657220696d706c656d656e7465724f776e61626c653a206e6577206f776e657220697320746865207a65726f20616464726573734552433732313a207472616e7366657220746f20746865207a65726f20616464726573734552433732313a206f70657261746f7220717565727920666f72206e6f6e6578697374656e7420746f6b656e4552433732313a20617070726f76652063616c6c6572206973206e6f74206f776e6572206e6f7220617070726f76656420666f7220616c6c596f75206d6179206e6f7420627579206d6f7265207468616e203230204e465473206174206f6e63654552433732313a2062616c616e636520717565727920666f7220746865207a65726f20616464726573734552433732313a206f776e657220717565727920666f72206e6f6e6578697374656e7420746f6b656e456e756d657261626c654d61703a20696e646578206f7574206f6620626f756e6473536166654d6174683a206d756c7469706c69636174696f6e206f766572666c6f774552433732313a20617070726f76656420717565727920666f72206e6f6e6578697374656e7420746f6b656e4552433732313a207472616e73666572206f6620746f6b656e2074686174206973206e6f74206f776e4552433732313a2063616e6e6f74206275726e20666f72206e6f6e6578697374656e7420746f6b656e4e6577206e616d652069732073616d65206173207468652063757272656e74206f6e654552433732313a20617070726f76616c20746f2063757272656e74206f776e65724552433732313a207472616e736665722063616c6c6572206973206e6f74206f776e6572206e6f7220617070726f7665644552433732314275726e61626c653a2063616c6c6572206973206e6f74206f776e6572206e6f7220617070726f76656464663736306337373161643030366561636530643730353338336237343135383936376537386336653938306233356636373032343962353832323468617368a2646970667358221220b287d3cc48230f916a3ef0dd9673a79fd23bb97bdef700a59e6b8f95efb5e84464736f6c63430007000033",
  "immutableReferences": {},
  "source": "// SPDX-License-Identifier: UNLICENSED\npragma solidity ^0.7.0;\n\nimport \"./ERC165/IERC165.sol\";\nimport \"./ERC165/ERC165.sol\";\nimport \"./utils/Address.sol\";\nimport \"./utils/EnumerableMap.sol\";\nimport \"./utils/EnumerableSet.sol\";\nimport \"./utils/Strings.sol\";\nimport \"./math/SafeMath.sol\";\nimport \"./utils/Context.sol\";\nimport \"./utils/Ownable.sol\";\nimport \"./ERC20/IERC20.sol\";\nimport \"./IBearNBearToken.sol\";\nimport \"./ERC721/IERC721Enumerable.sol\";\n\n/**\n * @title ERC-721 Non-Fungible Token Standard, optional metadata extension\n * @dev See https://eips.ethereum.org/EIPS/eip-721\n */\ninterface IERC721Metadata is IERC721 {\n\n    /**\n     * @dev Returns the token collection name.\n     */\n    function name() external view returns (string memory);\n\n    /**\n     * @dev Returns the token collection symbol.\n     */\n    function symbol() external view returns (string memory);\n}\n\n/**\n * @title ERC721 token receiver interface\n * @dev Interface for any contract that wants to support safeTransfers\n * from ERC721 asset contracts.\n */\ninterface IERC721Receiver {\n    /**\n     * @dev Whenever an {IERC721} `tokenId` token is transferred to this contract via {IERC721-safeTransferFrom}\n     * by `operator` from `from`, this function is called.\n     *\n     * It must return its Solidity selector to confirm the token transfer.\n     * If any other value is returned or the interface is not implemented by the recipient, the transfer will be reverted.\n     *\n     * The selector can be obtained in Solidity with `IERC721.onERC721Received.selector`.\n     */\n    function onERC721Received(address operator, address from, uint256 tokenId, bytes calldata data) external returns (bytes4);\n}\n\n/**\n * @title BearNBear contract\n * @dev Extends ERC721 Non-Fungible Token Standard basic implementation\n */\ncontract BearNBearToken is Context, Ownable, ERC165, IBearNBearToken, IERC721Metadata {\n    using SafeMath for uint256;\n    using Address for address;\n    using EnumerableSet for EnumerableSet.UintSet;\n    using EnumerableMap for EnumerableMap.UintToAddressMap;\n    using Strings for uint256;\n\n    uint constant PRECISION = 10 ** 18;\n    uint BASE_PRICE = 1;\n\n    // This is the provenance record of all artworks in existence\n    string public constant IPFS_PROVENANCE = \"df760c771ad006eace0d705383b74158967e78c6e980b35f670249b58224hash\";\n\n    uint256 public constant DECAY_COMMUNITY_TAKE_HOME_RATE_THRESHOLD = 24 hours;\n\n    uint256 public SALE_START_TIMESTAMP; // set by constructor\n    // Time to reveal all bears and stop MBT bonus\n    uint256 public MBT_BONUS_END_TIMESTAMP = SALE_START_TIMESTAMP + 30 days;\n    uint256 public REVEAL_TIMESTAMP = SALE_START_TIMESTAMP + 30 days + 30 days;\n    uint256 public BURN_START_TIMESTAMP = SALE_START_TIMESTAMP + 30 days + 30 days + 30 days;\n\n    uint256 public constant NAME_CHANGE_PRICE = 2000 * PRECISION;\n    uint256 public constant DESCRIPTION_CHANGE_PRICE = 2000 * PRECISION;\n    uint256 public constant BURN_PRICE = (NAME_CHANGE_PRICE + DESCRIPTION_CHANGE_PRICE) * 2;\n\n    uint256 public MAX_NFT_SUPPLY = 17153;\n\n    // uint256 public constant depreciationDecayRatePerSecond = 999499833283400000;\n    // uint256 public constant depreciationDecayRatePerHour = 999400000000000000;\n    uint256 public constant depreciationDecayRatePerDay = 969663144650000000;\n\n    uint256 public communityTakeHomeRate = 800000000000000000;\n\n    uint256 public communityTakeHomeRateUpdatedAt = SALE_START_TIMESTAMP + 24 hours;\n\n    uint256 public startingIndexBlock = 0;\n\n    uint256 public startingIndex;\n\n    uint256 public BurnRewards;\n\n    // Equals to `bytes4(keccak256(\"onERC721Received(address,address,uint256,bytes)\"))`\n    // which can be also obtained as `IERC721Receiver(0).onERC721Received.selector`\n    bytes4 private constant _ERC721_RECEIVED = 0x150b7a02;\n\n    // Mapping from holder address to their (enumerable) set of owned NFT\n    mapping (address => EnumerableSet.UintSet) private _holderNFT;\n\n    // Enumerable mapping from token ids to their owners\n    EnumerableMap.UintToAddressMap private _tokenOwners;\n\n    // TODO: line 119-131 can be a struct\n    // e.g.\n    //    mapping (uint256  => Bear) public Bears;\n    //\n    //    struct Bear {\n    //        string name;\n    //        string MBTGeneratingMultiplier;\n    //        bool mintedBeforeReveal;\n    //    }\n    // https://ethereum.stackexchange.com/questions/52416/how-to-check-boolean-variable-is-true-in-modifier/52417\n    //\n    // Mapping from token ID to approved address\n    mapping (uint256 => address) private _tokenApprovals;\n\n    // Mapping from token ID to name\n    mapping (uint256 => string) private _tokenName;\n\n    // Mapping from token ID to description\n    mapping (uint256 => string) private _tokenDescription;\n\n    // Mapping from token ID to MBT generating multiplier\n    mapping (uint256 => uint256) private _tokenMBTGeneratingMultiplier;\n\n    // Mapping if certain name string has already been reserved\n    mapping (string => bool) private _nameReserved;\n\n    // Mapping from token ID to whether the Hashmask was minted before reveal\n    mapping (uint256 => bool) private _mintedWithBonusMBT;\n\n    // Mapping from owner to operator approvals\n    mapping (address => mapping (address => bool)) private _operatorApprovals;\n\n    // Token name\n    string private _name;\n\n    // Token symbol\n    string private _symbol;\n\n    // Name change token address\n    address private _mbtAddress;\n\n    /*\n     *     bytes4(keccak256('balanceOf(address)')) == 0x70a08231\n     *     bytes4(keccak256('ownerOf(uint256)')) == 0x6352211e\n     *     bytes4(keccak256('approve(address,uint256)')) == 0x095ea7b3\n     *     bytes4(keccak256('getApproved(uint256)')) == 0x081812fc\n     *     bytes4(keccak256('setApprovalForAll(address,bool)')) == 0xa22cb465\n     *     bytes4(keccak256('isApprovedForAll(address,address)')) == 0xe985e9c5\n     *     bytes4(keccak256('transferFrom(address,address,uint256)')) == 0x23b872dd\n     *     bytes4(keccak256('safeTransferFrom(address,address,uint256)')) == 0x42842e0e\n     *     bytes4(keccak256('safeTransferFrom(address,address,uint256,bytes)')) == 0xb88d4fde\n     *\n     *     => 0x70a08231 ^ 0x6352211e ^ 0x095ea7b3 ^ 0x081812fc ^\n     *        0xa22cb465 ^ 0xe985e9c5 ^ 0x23b872dd ^ 0x42842e0e ^ 0xb88d4fde == 0x80ac58cd\n     */\n    bytes4 private constant _INTERFACE_ID_ERC721 = 0x80ac58cd;\n\n    /*\n     *     bytes4(keccak256('name()')) == 0x06fdde03\n     *     bytes4(keccak256('symbol()')) == 0x95d89b41\n     *\n     *     => 0x06fdde03 ^ 0x95d89b41 == 0x93254542\n     */\n    bytes4 private constant _INTERFACE_ID_ERC721_METADATA = 0x93254542;\n\n    /*\n     *     bytes4(keccak256('totalSupply()')) == 0x18160ddd\n     *     bytes4(keccak256('tokenOfOwnerByIndex(address,uint256)')) == 0x2f745c59\n     *     bytes4(keccak256('tokenByIndex(uint256)')) == 0x4f6ccce7\n     *\n     *     => 0x18160ddd ^ 0x2f745c59 ^ 0x4f6ccce7 == 0x780e9d63\n     */\n    bytes4 private constant _INTERFACE_ID_ERC721_ENUMERABLE = 0x780e9d63;\n\n    // Events\n    event NameChange (uint256 indexed tokenIndex, string newName);\n    event DescriptionChange (uint256 indexed tokenIndex, string newDescription);\n    event Burn (uint256 indexed tokenIndex, address lastOwner);\n\n    modifier onlyTokenOwner(uint256 tokenId) {\n        address owner = ownerOf(tokenId);\n        require(_msgSender() == owner, \"ERC721: caller is not the owner\");\n        _;\n    }\n    /**\n     * @dev Initializes the contract by setting a `name` and a `symbol` to the token collection.\n     */\n    constructor (string memory name, string memory symbol, address mbtAddress, uint256 saleStartTimestamp, uint256 maxSupply, uint base_price) {\n        _name = name;\n        _symbol = symbol;\n        _mbtAddress = mbtAddress;\n        MAX_NFT_SUPPLY = maxSupply;\n        BASE_PRICE = base_price;\n\n        SALE_START_TIMESTAMP       = saleStartTimestamp; // set by constructor\n        MBT_BONUS_END_TIMESTAMP    = SALE_START_TIMESTAMP + 30 days;\n        REVEAL_TIMESTAMP           = SALE_START_TIMESTAMP + 30 days + 30 days;\n        BURN_START_TIMESTAMP = SALE_START_TIMESTAMP + 30 days + 30 days + 30 days;\n\n        communityTakeHomeRateUpdatedAt = SALE_START_TIMESTAMP + DECAY_COMMUNITY_TAKE_HOME_RATE_THRESHOLD;\n\n        // register the supported interfaces to conform to ERC721 via ERC165\n        _registerInterface(_INTERFACE_ID_ERC721);\n        _registerInterface(_INTERFACE_ID_ERC721_METADATA);\n        _registerInterface(_INTERFACE_ID_ERC721_ENUMERABLE);\n    }\n\n    /**\n     * @dev See {IERC721-balanceOf}.\n     */\n    function balanceOf(address owner) public view override returns (uint256) {\n        require(owner != address(0), \"ERC721: balance query for the zero address\");\n\n        return _holderNFT[owner].length();\n    }\n\n    /**\n     * @dev See {IERC721-ownerOf}.\n     */\n    function ownerOf(uint256 tokenId) public view override returns (address) {\n        return _tokenOwners.get(tokenId, \"ERC721: owner query for nonexistent token\");\n    }\n\n    /**\n     * @dev See {IERC721Metadata-name}.\n     */\n    function name() public view override returns (string memory) {\n        return _name;\n    }\n\n    /**\n     * @dev See {IERC721Metadata-symbol}.\n     */\n    function symbol() public view override returns (string memory) {\n        return _symbol;\n    }\n\n    /**\n     * @dev See {IERC721Enumerable-tokenOfOwnerByIndex}.\n     */\n    function tokenOfOwnerByIndex(address owner, uint256 index) public view override returns (uint256) {\n        return _holderNFT[owner].at(index);\n    }\n\n    /**\n     * @dev See {IERC721Enumerable-totalSupply}.\n     */\n    function totalSupply() public view override returns (uint256) {\n        // _tokenOwners are indexed by tokenIds, so .length() returns the number of tokenIds\n        return _tokenOwners.length();\n    }\n\n    /**\n     * @dev See {IERC721Enumerable-tokenByIndex}.\n     */\n    function tokenByIndex(uint256 index) public view override returns (uint256) {\n        (uint256 tokenId, ) = _tokenOwners.at(index);\n        return tokenId;\n    }\n\n    /**\n     * @dev Returns name of the NFT at index.\n     */\n    function tokenNameByIndex(uint256 index) public view returns (string memory) {\n        return _tokenName[index];\n    }\n\n    /**\n     * @dev Returns description of the NFT at index.\n     */\n    function tokenDescriptionByIndex(uint256 index) public view returns (string memory) {\n        return _tokenDescription[index];\n    }\n\n    /**\n     * @dev Gets face's MBT generation multiplier\n     */\n    function tokenMBTGeneratingMultiplierByIndex(uint256 index) public view override returns (uint256) {\n        return _tokenMBTGeneratingMultiplier[index];\n    }\n\n    /**\n     * @dev Returns if the name has been reserved.\n     */\n    function isNameReserved(string memory nameString) public view returns (bool) {\n        return _nameReserved[toLower(nameString)];\n    }\n\n    /**\n     * @dev Returns if the NFT has bonus MBTs\n     */\n    function isMintedWithBonusMBT(uint256 index) public view override returns (bool) {\n        return _mintedWithBonusMBT[index];\n    }\n\n    /**\n     * @dev Returns initial granted MBT amount\n     */\n    function initGrantedMBT() public view override returns (uint256) {\n        return NAME_CHANGE_PRICE + DESCRIPTION_CHANGE_PRICE + 170 * PRECISION; // a little bit more :)\n    }\n\n    /**\n     * @dev Init BearNBear initial price\n     */\n    function initNFTPrice() public view returns (uint256) {\n        require(block.timestamp >= SALE_START_TIMESTAMP, \"Sale has not started\");\n        require(totalSupply() <= MAX_NFT_SUPPLY, \"Sale has already ended\");\n\n        uint currentSupply = totalSupply();\n\n        if (currentSupply >= 17150) {\n            // 17150 - 17153\n            // 100.00 BNB\n            return 1000*BASE_PRICE;\n        } else if (currentSupply >= 17050) {\n            // 17050 - 17150\n            // 10.0 BNB\n            return 100*BASE_PRICE;\n        } else if (currentSupply >= 13800) {\n            // 13800 - 17049\n            // 2.4 BNB\n            return 24*BASE_PRICE;\n        } else if (currentSupply >= 10500) {\n            // 10500 - 13799\n            // 1.2 BNB\n            return 12*BASE_PRICE;\n        } else if (currentSupply >= 7100) {\n            // 7100 - 10499\n            // 0.6 BNB\n            return 6*BASE_PRICE;\n        } else if (currentSupply >= 3600) {\n            // 3600 - 7099\n            // 0.3 BNB\n            return 3*BASE_PRICE;\n        } else {\n            // 0 - 3599\n            // 0.1 BNB\n            return 1*BASE_PRICE;\n        }\n    }\n\n    /**\n     * @dev Init MBT generation multiplier\n     */\n    function initMBTMultiplier() public view returns (uint256) {\n        require(block.timestamp >= SALE_START_TIMESTAMP, \"Sale has not started\");\n        require(totalSupply() <= MAX_NFT_SUPPLY, \"Sale has already ended\");\n\n        uint currentSupply = totalSupply();\n\n        if (currentSupply >= 17150) {\n            // 17150 - 17153\n            return 20;\n        } else if (currentSupply >= 17050) {\n            // 17050 - 17150\n            return 15;\n        } else if (currentSupply >= 13800) {\n            // 13800 - 17049\n            return 15;\n        } else if (currentSupply >= 10500) {\n            // 10500 - 13799\n            return 15;\n        } else if (currentSupply >= 7100) {\n            // 7100 - 10499\n            return 10;\n        } else if (currentSupply >= 3600) {\n            // 3600 - 7099\n            return 10;\n        } else {\n            // 0 - 3599\n            // generate 10 MBT per day\n            return 10;\n        }\n    }\n\n    /**\n    * @dev everyone can poke to decay communityTakeHomeRate\n    */\n    function pokeCommunityTakeHomeRate() public {\n        require(block.timestamp >= SALE_START_TIMESTAMP, \"Sale has not started\");\n        require(totalSupply() <= MAX_NFT_SUPPLY, \"Sale has already ended\");\n\n        if(block.timestamp >= REVEAL_TIMESTAMP && communityTakeHomeRate != 200000000000000000) {\n            // if NFT is not sold out before REVEAL_TIMESTAMP\n            // community can take up to 20% of total BNB accumulated in the first 45 days\n            // hard code 20% to reduce confusion\n            communityTakeHomeRate = 200000000000000000;\n        } else if (block.timestamp >= SALE_START_TIMESTAMP + DECAY_COMMUNITY_TAKE_HOME_RATE_THRESHOLD && block.timestamp < REVEAL_TIMESTAMP) {\n            // between DECAY_COMMUNITY_TAKE_HOME_RATE_THRESHOLD and REVEAL_TIMESTAMP\n            uint256 timeToDecay = (block.timestamp - communityTakeHomeRateUpdatedAt) / 1 days;\n            // to decay the communityTakeHomeRate\n            while (timeToDecay >= 1) {\n                communityTakeHomeRate = communityTakeHomeRate.mul(depreciationDecayRatePerDay).div(PRECISION);\n                communityTakeHomeRateUpdatedAt = block.timestamp;\n                timeToDecay = timeToDecay.sub(1);\n            }\n        }\n    }\n\n    /**\n    * @dev Buy/Mints NFT\n    */\n    function mintNFT(uint256 numberOfNfts) public payable {\n        require(block.timestamp >= SALE_START_TIMESTAMP, \"Sale has not started\");\n        require(totalSupply() <= MAX_NFT_SUPPLY, \"Sale has already ended\");\n        require(numberOfNfts > 0, \"numberOfNfts cannot be 0\");\n        require(numberOfNfts <= 20, \"You may not buy more than 20 NFTs at once\");\n        require(totalSupply().add(numberOfNfts) <= MAX_NFT_SUPPLY, \"Exceeds MAX_NFT_SUPPLY\");\n        require(initNFTPrice().mul(numberOfNfts) == msg.value, \"BNB value sent is not correct\");\n\n        for (uint i = 0; i < numberOfNfts; i++) {\n            uint mintIndex = totalSupply();\n            if (block.timestamp < REVEAL_TIMESTAMP) {\n                _mintedWithBonusMBT[mintIndex] = true;\n            }\n            _safeMint(msg.sender, mintIndex);\n        }\n\n        pokeCommunityTakeHomeRate();\n\n        /**\n        * Source of randomness. Theoretical miner withhold manipulation possible but should be sufficient in a pragmatic sense\n        */\n        if (startingIndexBlock == 0 && (totalSupply() == MAX_NFT_SUPPLY || block.timestamp >= REVEAL_TIMESTAMP)) {\n            startingIndexBlock = block.number;\n        }\n    }\n\n    /**\n     * @dev End the sale:\n            1. finalize startingIndex\n            2. set BurnRewards\n     */\n    function finalizeStartingIndexAndBurnRewards() public {\n        require(startingIndex == 0, \"Starting index is already set\");\n        require(startingIndexBlock != 0, \"Starting index block must be set\");\n\n        startingIndex = uint(blockhash(startingIndexBlock)) % MAX_NFT_SUPPLY;\n        // Just a sanity case in the worst case if this function is called late (EVM only stores last 256 block hashes)\n        if (block.number.sub(startingIndexBlock) > 255) {\n            startingIndex = uint(blockhash(block.number-1)) % MAX_NFT_SUPPLY;\n        }\n        // Prevent default sequence\n        if (startingIndex == 0) {\n            startingIndex = startingIndex.add(1);\n        }\n\n        // set how many BNB be rewarded for burning a BearNBear(BBT) token\n        if(BurnRewards == 0) {\n            BurnRewards = address(this).balance.div(totalSupply()).mul(communityTakeHomeRate).mul(2).div(PRECISION);\n        }\n    }\n\n    /**\n     * @dev Changes the name for BearNBear tokenId\n     */\n    function changeName(uint256 tokenId, string memory newName) onlyTokenOwner(tokenId) public {\n        require(validateName(newName) == true, \"Not a valid new name\");\n        require(sha256(bytes(newName)) != sha256(bytes(_tokenName[tokenId])), \"New name is same as the current one\");\n        require(isNameReserved(newName) == false, \"Name already reserved\");\n\n        IERC20(_mbtAddress).transferFrom(msg.sender, address(this), NAME_CHANGE_PRICE);\n        // If already named, dereserve old name\n        if (bytes(_tokenName[tokenId]).length > 0) {\n            toggleReserveName(_tokenName[tokenId], false);\n        }\n        toggleReserveName(newName, true);\n        _tokenName[tokenId] = newName;\n        IERC20(_mbtAddress).burn(NAME_CHANGE_PRICE);\n        emit NameChange(tokenId, newName);\n    }\n\n    /**\n     * @dev Changes the description for BearNBear tokenId\n     */\n    function changeDescription(uint256 tokenId, string memory newDescription) onlyTokenOwner(tokenId) public {\n        require(validateDescription(newDescription) == true, \"Not a valid new description\");\n        require(sha256(bytes(newDescription)) != sha256(bytes(_tokenDescription[tokenId])), \"New name is same as the current one\");\n\n        IERC20(_mbtAddress).transferFrom(msg.sender, address(this), DESCRIPTION_CHANGE_PRICE);\n        _tokenDescription[tokenId] = newDescription;\n        IERC20(_mbtAddress).burn(DESCRIPTION_CHANGE_PRICE);\n        emit DescriptionChange(tokenId, newDescription);\n    }\n\n    /**\n     * @dev Withdraw ether from this contract (Callable by owner)\n    */\n    function withdraw() onlyOwner public {\n        uint balance = address(this).balance * (1 - communityTakeHomeRate/PRECISION);\n        msg.sender.transfer(balance);\n    }\n\n    /**\n     * @dev See {IERC721-approve}.\n     */\n    function approve(address to, uint256 tokenId) public virtual override {\n        address owner = ownerOf(tokenId);\n        require(to != owner, \"ERC721: approval to current owner\");\n\n        require(_msgSender() == owner || isApprovedForAll(owner, _msgSender()),\n            \"ERC721: approve caller is not owner nor approved for all\"\n        );\n\n        _approve(to, tokenId);\n    }\n\n    /**\n     * @dev See {IERC721-getApproved}.\n     */\n    function getApproved(uint256 tokenId) public view override returns (address) {\n        require(_exists(tokenId), \"ERC721: approved query for nonexistent token\");\n\n        return _tokenApprovals[tokenId];\n    }\n\n    /**\n     * @dev See {IERC721-setApprovalForAll}.\n     */\n    function setApprovalForAll(address operator, bool approved) public virtual override {\n        require(operator != _msgSender(), \"ERC721: approve to caller\");\n\n        _operatorApprovals[_msgSender()][operator] = approved;\n        emit ApprovalForAll(_msgSender(), operator, approved);\n    }\n\n    /**\n     * @dev See {IERC721-isApprovedForAll}.\n     */\n    function isApprovedForAll(address owner, address operator) public view override returns (bool) {\n        return _operatorApprovals[owner][operator];\n    }\n\n    /**\n     * @dev See {IERC721-transferFrom}.\n     */\n    function transferFrom(address from, address to, uint256 tokenId) public virtual override {\n        //solhint-disable-next-line max-line-length\n        require(_isApprovedOrOwner(_msgSender(), tokenId), \"ERC721: transfer caller is not owner nor approved\");\n\n        _transfer(from, to, tokenId);\n    }\n\n    /**\n     * @dev See {IERC721-safeTransferFrom}.\n     */\n    function safeTransferFrom(address from, address to, uint256 tokenId) public virtual override {\n        safeTransferFrom(from, to, tokenId, \"\");\n    }\n\n    /**\n     * @dev See {IERC721-safeTransferFrom}.\n     */\n    function safeTransferFrom(address from, address to, uint256 tokenId, bytes memory _data) public virtual override {\n        require(_isApprovedOrOwner(_msgSender(), tokenId), \"ERC721: transfer caller is not owner nor approved\");\n        _safeTransfer(from, to, tokenId, _data);\n    }\n\n    /**\n     * @dev Safely transfers `tokenId` token from `from` to `to`, checking first that contract recipients\n     * are aware of the ERC721 protocol to prevent tokens from being forever locked.\n     *\n     * `_data` is additional data, it has no specified format and it is sent in call to `to`.\n     *\n     * This internal function is equivalent to {safeTransferFrom}, and can be used to e.g.\n     * implement alternative mechanisms to perform token transfer, such as signature-based.\n     *\n     * Requirements:\n     *\n     * - `from` cannot be the zero address.\n     * - `to` cannot be the zero address.\n     * - `tokenId` token must exist and be owned by `from`.\n     * - If `to` refers to a smart contract, it must implement {IERC721Receiver-onERC721Received}, which is called upon a safe transfer.\n     *\n     * Emits a {Transfer} event.\n     */\n    function _safeTransfer(address from, address to, uint256 tokenId, bytes memory _data) internal virtual {\n        _transfer(from, to, tokenId);\n        require(_checkOnERC721Received(from, to, tokenId, _data), \"ERC721: transfer to non ERC721Receiver implementer\");\n    }\n\n    /**\n     * @dev Returns whether `tokenId` exists.\n     *\n     * Tokens can be managed by their owner or approved accounts via {approve} or {setApprovalForAll}.\n     *\n     * Tokens start existing when they are minted (`_mint`),\n     * and stop existing when they are burned (`_burn`).\n     */\n    function _exists(uint256 tokenId) internal view returns (bool) {\n        return _tokenOwners.contains(tokenId);\n    }\n\n    /**\n     * @dev Returns whether `spender` is allowed to manage `tokenId`.\n     *\n     * Requirements:\n     *\n     * - `tokenId` must exist.\n     */\n    function _isApprovedOrOwner(address spender, uint256 tokenId) internal view returns (bool) {\n        require(_exists(tokenId), \"ERC721: operator query for nonexistent token\");\n        address owner = ownerOf(tokenId);\n        return (spender == owner || getApproved(tokenId) == spender || isApprovedForAll(owner, spender));\n    }\n\n    /**\n     * @dev Safely mints `tokenId` and transfers it to `to`.\n     *\n     * Requirements:\n     d*\n     * - `tokenId` must not exist.\n     * - If `to` refers to a smart contract, it must implement {IERC721Receiver-onERC721Received}, which is called upon a safe transfer.\n     *\n     * Emits a {Transfer} event.\n     */\n    function _safeMint(address to, uint256 tokenId) internal virtual {\n        _safeMint(to, tokenId, \"\");\n    }\n\n    /**\n     * @dev Same as {xref-ERC721-_safeMint-address-uint256-}[`_safeMint`], with an additional `data` parameter which is\n     * forwarded in {IERC721Receiver-onERC721Received} to contract recipients.\n     */\n    function _safeMint(address to, uint256 tokenId, bytes memory _data) internal virtual {\n        _mint(to, tokenId);\n        require(_checkOnERC721Received(address(0), to, tokenId, _data), \"ERC721: transfer to non ERC721Receiver implementer\");\n    }\n\n    /**\n     * @dev Mints `tokenId` and transfers it to `to`.\n     *\n     * WARNING: Usage of this method is discouraged, use {_safeMint} whenever possible\n     *\n     * Requirements:\n     *\n     * - `tokenId` must not exist.\n     * - `to` cannot be the zero address.\n     *\n     * Emits a {Transfer} event.\n     */\n    function _mint(address to, uint256 tokenId) internal virtual {\n        require(to != address(0), \"ERC721: mint to the zero address\");\n        require(!_exists(tokenId), \"ERC721: token already minted\");\n\n        _beforeTokenTransfer(address(0), to, tokenId);\n\n        _holderNFT[to].add(tokenId);\n\n        _tokenMBTGeneratingMultiplier[tokenId] = initMBTMultiplier();\n\n        _tokenOwners.set(tokenId, to);\n\n        emit Transfer(address(0), to, tokenId);\n    }\n\n\n    /**\n     * @dev Burns `tokenId`. See {ERC721-_burn}.\n     *\n     * Requirements:\n     *\n     * - The caller must own `tokenId` or be an approved operator.\n     */\n    function burn(uint256 tokenId) onlyTokenOwner(tokenId) public virtual {\n        require(_exists(tokenId), \"ERC721: cannot burn for nonexistent token\");\n        require(_isApprovedOrOwner(_msgSender(), tokenId), \"ERC721Burnable: caller is not owner nor approved\");\n        require(block.timestamp >= BURN_START_TIMESTAMP, \"Burn is available yet\");\n\n        IERC20(_mbtAddress).transferFrom(msg.sender, address(this), BURN_PRICE);\n        IERC20(_mbtAddress).burn(BURN_PRICE);\n\n        _burn(tokenId);\n        (bool sent, bytes memory data) = msg.sender.call{value: BurnRewards}(\"\");\n\n        require(sent, \"Failed to reward BNB\");\n        emit Burn(tokenId, _msgSender());\n    }\n\n    /**\n     * @dev Destroys `tokenId`.\n     * The approval is cleared when the token is burned.\n     *\n     * Requirements:\n     *\n     * - `tokenId` must exist.\n     *\n     * Emits a {Transfer} event.\n     */\n    function _burn(uint256 tokenId) internal virtual {\n        address owner = ownerOf(tokenId);\n\n        _beforeTokenTransfer(owner, address(0), tokenId);\n\n        // Clear approvals\n        _approve(address(0), tokenId);\n\n        _holderNFT[owner].remove(tokenId);\n\n        _tokenOwners.remove(tokenId);\n\n        emit Transfer(owner, address(0), tokenId);\n    }\n\n    /**\n     * @dev Transfers `tokenId` from `from` to `to`.\n     *  As opposed to {transferFrom}, this imposes no restrictions on msg.sender.\n     *\n     * Requirements:\n     *\n     * - `to` cannot be the zero address.\n     * - `tokenId` token must be owned by `from`.\n     *\n     * Emits a {Transfer} event.\n     */\n    function _transfer(address from, address to, uint256 tokenId) internal virtual {\n        require(ownerOf(tokenId) == from, \"ERC721: transfer of token that is not own\");\n        require(to != address(0), \"ERC721: transfer to the zero address\");\n\n        _beforeTokenTransfer(from, to, tokenId);\n\n        // Clear approvals from the previous owner\n        _approve(address(0), tokenId);\n\n        _holderNFT[from].remove(tokenId);\n        _holderNFT[to].add(tokenId);\n\n        _tokenOwners.set(tokenId, to);\n\n        emit Transfer(from, to, tokenId);\n    }\n\n\n    /**\n     * @dev Internal function to invoke {IERC721Receiver-onERC721Received} on a target address.\n     * The call is not executed if the target address is not a contract.\n     *\n     * @param from address representing the previous owner of the given token ID\n     * @param to target address that will receive the tokens\n     * @param tokenId uint256 ID of the token to be transferred\n     * @param _data bytes optional data to send along with the call\n     * @return bool whether the call correctly returned the expected magic value\n     */\n    function _checkOnERC721Received(address from, address to, uint256 tokenId, bytes memory _data)\n    private returns (bool)\n    {\n        if (!to.isContract()) {\n            return true;\n        }\n        bytes memory returndata = to.functionCall(abi.encodeWithSelector(\n                IERC721Receiver(to).onERC721Received.selector,\n                _msgSender(),\n                from,\n                tokenId,\n                _data\n            ), \"ERC721: transfer to non ERC721Receiver implementer\");\n        bytes4 retval = abi.decode(returndata, (bytes4));\n        return (retval == _ERC721_RECEIVED);\n    }\n\n    function _approve(address to, uint256 tokenId) private {\n        _tokenApprovals[tokenId] = to;\n        emit Approval(ownerOf(tokenId), to, tokenId);\n    }\n\n    /**\n     * @dev Hook that is called before any token transfer. This includes minting\n     * and burning.\n     *\n     * Calling conditions:\n     *\n     * - When `from` and `to` are both non-zero, ``from``'s `tokenId` will be\n     * transferred to `to`.\n     * - When `from` is zero, `tokenId` will be minted for `to`.\n     * - When `to` is zero, ``from``'s `tokenId` will be burned.\n     * - `from` cannot be the zero address.\n     * - `to` cannot be the zero address.\n     *\n     * To learn more about hooks, head to xref:ROOT:extending-contracts.adoc#using-hooks[Using Hooks].\n     */\n    function _beforeTokenTransfer(address from, address to, uint256 tokenId) internal virtual { }\n\n    /**\n     * @dev Reserves the name if isReserve is set to true, de-reserves if set to false\n     */\n    function toggleReserveName(string memory str, bool isReserve) internal {\n        _nameReserved[toLower(str)] = isReserve;\n    }\n\n    /**\n     * @dev Check if the name string is valid (Alphanumeric and spaces without leading or trailing space)\n     */\n    function validateName(string memory str) public pure returns (bool){\n        bytes memory b = bytes(str);\n        if(b.length < 1) return false;\n        if(b.length > 25) return false; // Cannot be longer than 25 characters\n        if(b[0] == 0x20) return false; // Leading space\n        if (b[b.length - 1] == 0x20) return false; // Trailing space\n\n        bytes1 lastChar = b[0];\n\n        for(uint i; i<b.length; i++){\n            bytes1 char = b[i];\n\n            if (char == 0x20 && lastChar == 0x20) return false; // Cannot contain continous spaces\n\n            if(\n                !(char >= 0x30 && char <= 0x39) && //9-0\n            !(char >= 0x41 && char <= 0x5A) && //A-Z\n            !(char >= 0x61 && char <= 0x7A) && //a-z\n            !(char == 0x20) //space\n            )\n                return false;\n\n            lastChar = char;\n        }\n\n        return true;\n    }\n\n    /**\n     * @dev Check if the description string is valid (Alphanumeric and spaces without leading or trailing space)\n     */\n    function validateDescription(string memory str) public pure returns (bool){\n        bytes memory b = bytes(str);\n        if(b.length < 1) return false;\n        if(b.length > 200) return false; // Cannot be longer than 25 characters\n        if(b[0] == 0x20) return false; // Leading space\n        if (b[b.length - 1] == 0x20) return false; // Trailing space\n\n        bytes1 lastChar = b[0];\n\n        for(uint i; i<b.length; i++){\n            bytes1 char = b[i];\n\n            if (char == 0x20 && lastChar == 0x20) return false; // Cannot contain continous spaces\n\n            if(\n                !(char >= 0x30 && char <= 0x39) && //9-0\n            !(char >= 0x41 && char <= 0x5A) && //A-Z\n            !(char >= 0x61 && char <= 0x7A) && //a-z\n            !(char == 0x20) //space\n            )\n                return false;\n\n            lastChar = char;\n        }\n\n        return true;\n    }\n\n    /**\n     * @dev Converts the string to lowercase\n     */\n    function toLower(string memory str) public pure returns (string memory){\n        bytes memory bStr = bytes(str);\n        bytes memory bLower = new bytes(bStr.length);\n        for (uint i = 0; i < bStr.length; i++) {\n            // Uppercase character\n            if ((uint8(bStr[i]) >= 65) && (uint8(bStr[i]) <= 90)) {\n                bLower[i] = bytes1(uint8(bStr[i]) + 32);\n            } else {\n                bLower[i] = bStr[i];\n            }\n        }\n        return string(bLower);\n    }\n}\n",
  "sourcePath": "/Users/andychen/projects/bearnbear/contracts/BearNBearToken.sol",
  "compiler": {
    "name": "solc",
    "version": "0.7.0+commit.9e61f92b.Emscripten.clang"
  },
  "schemaVersion": "3.3.4",
  "updatedAt": "2021-03-04T07:40:15.625Z",
  "networkType": "ethereum",
  "devdoc": {
    "details": "Extends ERC721 Non-Fungible Token Standard basic implementation",
    "kind": "dev",
    "methods": {
      "approve(address,uint256)": {
        "details": "See {IERC721-approve}."
      },
      "balanceOf(address)": {
        "details": "See {IERC721-balanceOf}."
      },
      "burn(uint256)": {
        "details": "Burns `tokenId`. See {ERC721-_burn}. Requirements: - The caller must own `tokenId` or be an approved operator."
      },
      "changeDescription(uint256,string)": {
        "details": "Changes the description for BearNBear tokenId"
      },
      "changeName(uint256,string)": {
        "details": "Changes the name for BearNBear tokenId"
      },
      "constructor": {
        "details": "Initializes the contract by setting a `name` and a `symbol` to the token collection."
      },
      "finalizeStartingIndexAndBurnRewards()": {
        "details": "End the sale: 1. finalize startingIndex 2. set BurnRewards"
      },
      "getApproved(uint256)": {
        "details": "See {IERC721-getApproved}."
      },
      "initGrantedMBT()": {
        "details": "Returns initial granted MBT amount"
      },
      "initMBTMultiplier()": {
        "details": "Init MBT generation multiplier"
      },
      "initNFTPrice()": {
        "details": "Init BearNBear initial price"
      },
      "isApprovedForAll(address,address)": {
        "details": "See {IERC721-isApprovedForAll}."
      },
      "isMintedWithBonusMBT(uint256)": {
        "details": "Returns if the NFT has bonus MBTs"
      },
      "isNameReserved(string)": {
        "details": "Returns if the name has been reserved."
      },
      "mintNFT(uint256)": {
        "details": "Buy/Mints NFT"
      },
      "name()": {
        "details": "See {IERC721Metadata-name}."
      },
      "owner()": {
        "details": "Returns the address of the current owner."
      },
      "ownerOf(uint256)": {
        "details": "See {IERC721-ownerOf}."
      },
      "pokeCommunityTakeHomeRate()": {
        "details": "everyone can poke to decay communityTakeHomeRate"
      },
      "renounceOwnership()": {
        "details": "Leaves the contract without owner. It will not be possible to call `onlyOwner` functions anymore. Can only be called by the current owner. NOTE: Renouncing ownership will leave the contract without an owner, thereby removing any functionality that is only available to the owner."
      },
      "safeTransferFrom(address,address,uint256)": {
        "details": "See {IERC721-safeTransferFrom}."
      },
      "safeTransferFrom(address,address,uint256,bytes)": {
        "details": "See {IERC721-safeTransferFrom}."
      },
      "setApprovalForAll(address,bool)": {
        "details": "See {IERC721-setApprovalForAll}."
      },
      "supportsInterface(bytes4)": {
        "details": "See {IERC165-supportsInterface}. Time complexity O(1), guaranteed to always use less than 30 000 gas."
      },
      "symbol()": {
        "details": "See {IERC721Metadata-symbol}."
      },
      "toLower(string)": {
        "details": "Converts the string to lowercase"
      },
      "tokenByIndex(uint256)": {
        "details": "See {IERC721Enumerable-tokenByIndex}."
      },
      "tokenDescriptionByIndex(uint256)": {
        "details": "Returns description of the NFT at index."
      },
      "tokenMBTGeneratingMultiplierByIndex(uint256)": {
        "details": "Gets face's MBT generation multiplier"
      },
      "tokenNameByIndex(uint256)": {
        "details": "Returns name of the NFT at index."
      },
      "tokenOfOwnerByIndex(address,uint256)": {
        "details": "See {IERC721Enumerable-tokenOfOwnerByIndex}."
      },
      "totalSupply()": {
        "details": "See {IERC721Enumerable-totalSupply}."
      },
      "transferFrom(address,address,uint256)": {
        "details": "See {IERC721-transferFrom}."
      },
      "transferOwnership(address)": {
        "details": "Transfers ownership of the contract to a new account (`newOwner`). Can only be called by the current owner."
      },
      "validateDescription(string)": {
        "details": "Check if the description string is valid (Alphanumeric and spaces without leading or trailing space)"
      },
      "validateName(string)": {
        "details": "Check if the name string is valid (Alphanumeric and spaces without leading or trailing space)"
      },
      "withdraw()": {
        "details": "Withdraw ether from this contract (Callable by owner)"
      }
    },
    "title": "BearNBear contract",
    "version": 1
  },
  "userdoc": {
    "kind": "user",
    "methods": {},
    "version": 1
  }
}