{
  "contractName": "BearNBearToken",
  "abi": [
    {
      "inputs": [
        {
          "internalType": "string",
          "name": "name",
          "type": "string"
        },
        {
          "internalType": "string",
          "name": "symbol",
          "type": "string"
        },
        {
          "internalType": "address",
          "name": "mbtAddress",
          "type": "address"
        },
        {
          "internalType": "uint256",
          "name": "saleStartTimestamp",
          "type": "uint256"
        },
        {
          "internalType": "uint256",
          "name": "maxSupply",
          "type": "uint256"
        },
        {
          "internalType": "uint256",
          "name": "base_price",
          "type": "uint256"
        }
      ],
      "stateMutability": "nonpayable",
      "type": "constructor"
    },
    {
      "anonymous": false,
      "inputs": [
        {
          "indexed": true,
          "internalType": "address",
          "name": "owner",
          "type": "address"
        },
        {
          "indexed": true,
          "internalType": "address",
          "name": "approved",
          "type": "address"
        },
        {
          "indexed": true,
          "internalType": "uint256",
          "name": "tokenId",
          "type": "uint256"
        }
      ],
      "name": "Approval",
      "type": "event"
    },
    {
      "anonymous": false,
      "inputs": [
        {
          "indexed": true,
          "internalType": "address",
          "name": "owner",
          "type": "address"
        },
        {
          "indexed": true,
          "internalType": "address",
          "name": "operator",
          "type": "address"
        },
        {
          "indexed": false,
          "internalType": "bool",
          "name": "approved",
          "type": "bool"
        }
      ],
      "name": "ApprovalForAll",
      "type": "event"
    },
    {
      "anonymous": false,
      "inputs": [
        {
          "indexed": true,
          "internalType": "uint256",
          "name": "tokenIdtokenId",
          "type": "uint256"
        },
        {
          "indexed": true,
          "internalType": "address",
          "name": "user",
          "type": "address"
        },
        {
          "indexed": false,
          "internalType": "uint256",
          "name": "bnbAmount",
          "type": "uint256"
        }
      ],
      "name": "BnbRewards",
      "type": "event"
    },
    {
      "anonymous": false,
      "inputs": [
        {
          "indexed": true,
          "internalType": "uint256",
          "name": "tokenId",
          "type": "uint256"
        },
        {
          "indexed": true,
          "internalType": "address",
          "name": "user",
          "type": "address"
        }
      ],
      "name": "Burn",
      "type": "event"
    },
    {
      "anonymous": false,
      "inputs": [
        {
          "indexed": false,
          "internalType": "uint256",
          "name": "contractBalance",
          "type": "uint256"
        },
        {
          "indexed": false,
          "internalType": "uint256",
          "name": "burnRewardPool",
          "type": "uint256"
        },
        {
          "indexed": false,
          "internalType": "uint256",
          "name": "totalSupply",
          "type": "uint256"
        },
        {
          "indexed": false,
          "internalType": "uint256",
          "name": "burnRewards",
          "type": "uint256"
        },
        {
          "indexed": false,
          "internalType": "uint256",
          "name": "emissionStart",
          "type": "uint256"
        }
      ],
      "name": "BurnRewardsInitialized",
      "type": "event"
    },
    {
      "anonymous": false,
      "inputs": [
        {
          "indexed": true,
          "internalType": "uint256",
          "name": "tokenId",
          "type": "uint256"
        },
        {
          "indexed": false,
          "internalType": "string",
          "name": "newDescription",
          "type": "string"
        }
      ],
      "name": "DescriptionChange",
      "type": "event"
    },
    {
      "anonymous": false,
      "inputs": [
        {
          "indexed": true,
          "internalType": "uint256",
          "name": "tokenId",
          "type": "uint256"
        },
        {
          "indexed": true,
          "internalType": "address",
          "name": "user",
          "type": "address"
        }
      ],
      "name": "Mint",
      "type": "event"
    },
    {
      "anonymous": false,
      "inputs": [
        {
          "indexed": true,
          "internalType": "uint256",
          "name": "tokenId",
          "type": "uint256"
        },
        {
          "indexed": false,
          "internalType": "string",
          "name": "newName",
          "type": "string"
        }
      ],
      "name": "NameChange",
      "type": "event"
    },
    {
      "anonymous": false,
      "inputs": [
        {
          "indexed": true,
          "internalType": "address",
          "name": "previousOwner",
          "type": "address"
        },
        {
          "indexed": true,
          "internalType": "address",
          "name": "newOwner",
          "type": "address"
        }
      ],
      "name": "OwnershipTransferred",
      "type": "event"
    },
    {
      "anonymous": false,
      "inputs": [
        {
          "indexed": false,
          "internalType": "uint256",
          "name": "amount",
          "type": "uint256"
        },
        {
          "indexed": true,
          "internalType": "address",
          "name": "user",
          "type": "address"
        }
      ],
      "name": "Refund",
      "type": "event"
    },
    {
      "anonymous": false,
      "inputs": [
        {
          "indexed": true,
          "internalType": "address",
          "name": "from",
          "type": "address"
        },
        {
          "indexed": true,
          "internalType": "address",
          "name": "to",
          "type": "address"
        },
        {
          "indexed": true,
          "internalType": "uint256",
          "name": "tokenId",
          "type": "uint256"
        }
      ],
      "name": "Transfer",
      "type": "event"
    },
    {
      "inputs": [],
      "name": "BASE_PRICE",
      "outputs": [
        {
          "internalType": "uint256",
          "name": "",
          "type": "uint256"
        }
      ],
      "stateMutability": "view",
      "type": "function",
      "constant": true
    },
    {
      "inputs": [],
      "name": "BURN_PRICE",
      "outputs": [
        {
          "internalType": "uint256",
          "name": "",
          "type": "uint256"
        }
      ],
      "stateMutability": "view",
      "type": "function",
      "constant": true
    },
    {
      "inputs": [],
      "name": "DESCRIPTION_CHANGE_PRICE",
      "outputs": [
        {
          "internalType": "uint256",
          "name": "",
          "type": "uint256"
        }
      ],
      "stateMutability": "view",
      "type": "function",
      "constant": true
    },
    {
      "inputs": [],
      "name": "IPFS_PROVENANCE",
      "outputs": [
        {
          "internalType": "string",
          "name": "",
          "type": "string"
        }
      ],
      "stateMutability": "view",
      "type": "function",
      "constant": true
    },
    {
      "inputs": [],
      "name": "MAX_NFT_SUPPLY",
      "outputs": [
        {
          "internalType": "uint256",
          "name": "",
          "type": "uint256"
        }
      ],
      "stateMutability": "view",
      "type": "function",
      "constant": true
    },
    {
      "inputs": [],
      "name": "MBT_BONUS_END_TIMESTAMP",
      "outputs": [
        {
          "internalType": "uint256",
          "name": "",
          "type": "uint256"
        }
      ],
      "stateMutability": "view",
      "type": "function",
      "constant": true
    },
    {
      "inputs": [],
      "name": "NAME_CHANGE_PRICE",
      "outputs": [
        {
          "internalType": "uint256",
          "name": "",
          "type": "uint256"
        }
      ],
      "stateMutability": "view",
      "type": "function",
      "constant": true
    },
    {
      "inputs": [],
      "name": "REVEAL_TIMESTAMP",
      "outputs": [
        {
          "internalType": "uint256",
          "name": "",
          "type": "uint256"
        }
      ],
      "stateMutability": "view",
      "type": "function",
      "constant": true
    },
    {
      "inputs": [],
      "name": "SALE_START_TIMESTAMP",
      "outputs": [
        {
          "internalType": "uint256",
          "name": "",
          "type": "uint256"
        }
      ],
      "stateMutability": "view",
      "type": "function",
      "constant": true
    },
    {
      "inputs": [],
      "name": "burnRewardPool",
      "outputs": [
        {
          "internalType": "uint256",
          "name": "",
          "type": "uint256"
        }
      ],
      "stateMutability": "view",
      "type": "function",
      "constant": true
    },
    {
      "inputs": [],
      "name": "burnRewardPoolLastUpdatedTimestamp",
      "outputs": [
        {
          "internalType": "uint256",
          "name": "",
          "type": "uint256"
        }
      ],
      "stateMutability": "view",
      "type": "function",
      "constant": true
    },
    {
      "inputs": [],
      "name": "burnRewards",
      "outputs": [
        {
          "internalType": "uint256",
          "name": "",
          "type": "uint256"
        }
      ],
      "stateMutability": "view",
      "type": "function",
      "constant": true
    },
    {
      "inputs": [],
      "name": "depreciationDecayRatePerDay",
      "outputs": [
        {
          "internalType": "uint256",
          "name": "",
          "type": "uint256"
        }
      ],
      "stateMutability": "view",
      "type": "function",
      "constant": true
    },
    {
      "inputs": [],
      "name": "owner",
      "outputs": [
        {
          "internalType": "address",
          "name": "",
          "type": "address"
        }
      ],
      "stateMutability": "view",
      "type": "function",
      "constant": true
    },
    {
      "inputs": [],
      "name": "renounceOwnership",
      "outputs": [],
      "stateMutability": "nonpayable",
      "type": "function"
    },
    {
      "inputs": [],
      "name": "startingIndex",
      "outputs": [
        {
          "internalType": "uint256",
          "name": "",
          "type": "uint256"
        }
      ],
      "stateMutability": "view",
      "type": "function",
      "constant": true
    },
    {
      "inputs": [],
      "name": "startingIndexBlock",
      "outputs": [
        {
          "internalType": "uint256",
          "name": "",
          "type": "uint256"
        }
      ],
      "stateMutability": "view",
      "type": "function",
      "constant": true
    },
    {
      "inputs": [
        {
          "internalType": "bytes4",
          "name": "interfaceId",
          "type": "bytes4"
        }
      ],
      "name": "supportsInterface",
      "outputs": [
        {
          "internalType": "bool",
          "name": "",
          "type": "bool"
        }
      ],
      "stateMutability": "view",
      "type": "function",
      "constant": true
    },
    {
      "inputs": [
        {
          "internalType": "address",
          "name": "newOwner",
          "type": "address"
        }
      ],
      "name": "transferOwnership",
      "outputs": [],
      "stateMutability": "nonpayable",
      "type": "function"
    },
    {
      "inputs": [
        {
          "internalType": "address",
          "name": "owner",
          "type": "address"
        }
      ],
      "name": "balanceOf",
      "outputs": [
        {
          "internalType": "uint256",
          "name": "",
          "type": "uint256"
        }
      ],
      "stateMutability": "view",
      "type": "function",
      "constant": true
    },
    {
      "inputs": [
        {
          "internalType": "uint256",
          "name": "tokenId",
          "type": "uint256"
        }
      ],
      "name": "ownerOf",
      "outputs": [
        {
          "internalType": "address",
          "name": "",
          "type": "address"
        }
      ],
      "stateMutability": "view",
      "type": "function",
      "constant": true
    },
    {
      "inputs": [],
      "name": "name",
      "outputs": [
        {
          "internalType": "string",
          "name": "",
          "type": "string"
        }
      ],
      "stateMutability": "view",
      "type": "function",
      "constant": true
    },
    {
      "inputs": [],
      "name": "symbol",
      "outputs": [
        {
          "internalType": "string",
          "name": "",
          "type": "string"
        }
      ],
      "stateMutability": "view",
      "type": "function",
      "constant": true
    },
    {
      "inputs": [
        {
          "internalType": "address",
          "name": "owner",
          "type": "address"
        },
        {
          "internalType": "uint256",
          "name": "index",
          "type": "uint256"
        }
      ],
      "name": "tokenOfOwnerByIndex",
      "outputs": [
        {
          "internalType": "uint256",
          "name": "",
          "type": "uint256"
        }
      ],
      "stateMutability": "view",
      "type": "function",
      "constant": true
    },
    {
      "inputs": [],
      "name": "totalSupply",
      "outputs": [
        {
          "internalType": "uint256",
          "name": "",
          "type": "uint256"
        }
      ],
      "stateMutability": "view",
      "type": "function",
      "constant": true
    },
    {
      "inputs": [
        {
          "internalType": "uint256",
          "name": "index",
          "type": "uint256"
        }
      ],
      "name": "tokenByIndex",
      "outputs": [
        {
          "internalType": "uint256",
          "name": "",
          "type": "uint256"
        }
      ],
      "stateMutability": "view",
      "type": "function",
      "constant": true
    },
    {
      "inputs": [
        {
          "internalType": "uint256",
          "name": "index",
          "type": "uint256"
        }
      ],
      "name": "tokenNameByIndex",
      "outputs": [
        {
          "internalType": "string",
          "name": "",
          "type": "string"
        }
      ],
      "stateMutability": "view",
      "type": "function",
      "constant": true
    },
    {
      "inputs": [
        {
          "internalType": "uint256",
          "name": "index",
          "type": "uint256"
        }
      ],
      "name": "tokenDescriptionByIndex",
      "outputs": [
        {
          "internalType": "string",
          "name": "",
          "type": "string"
        }
      ],
      "stateMutability": "view",
      "type": "function",
      "constant": true
    },
    {
      "inputs": [
        {
          "internalType": "uint256",
          "name": "index",
          "type": "uint256"
        }
      ],
      "name": "tokenMBTGeneratingMultiplierByIndex",
      "outputs": [
        {
          "internalType": "uint256",
          "name": "",
          "type": "uint256"
        }
      ],
      "stateMutability": "view",
      "type": "function",
      "constant": true
    },
    {
      "inputs": [
        {
          "internalType": "string",
          "name": "nameString",
          "type": "string"
        }
      ],
      "name": "isNameReserved",
      "outputs": [
        {
          "internalType": "bool",
          "name": "",
          "type": "bool"
        }
      ],
      "stateMutability": "view",
      "type": "function",
      "constant": true
    },
    {
      "inputs": [
        {
          "internalType": "uint256",
          "name": "index",
          "type": "uint256"
        }
      ],
      "name": "isMintedWithBonusMBT",
      "outputs": [
        {
          "internalType": "bool",
          "name": "",
          "type": "bool"
        }
      ],
      "stateMutability": "view",
      "type": "function",
      "constant": true
    },
    {
      "inputs": [],
      "name": "initGrantedMBT",
      "outputs": [
        {
          "internalType": "uint256",
          "name": "",
          "type": "uint256"
        }
      ],
      "stateMutability": "pure",
      "type": "function",
      "constant": true
    },
    {
      "inputs": [],
      "name": "initNFTPrice",
      "outputs": [
        {
          "internalType": "uint256",
          "name": "",
          "type": "uint256"
        }
      ],
      "stateMutability": "view",
      "type": "function",
      "constant": true
    },
    {
      "inputs": [],
      "name": "initMBTMultiplier",
      "outputs": [
        {
          "internalType": "uint256",
          "name": "",
          "type": "uint256"
        }
      ],
      "stateMutability": "view",
      "type": "function",
      "constant": true
    },
    {
      "inputs": [],
      "name": "updateBurnRewardPool",
      "outputs": [],
      "stateMutability": "nonpayable",
      "type": "function"
    },
    {
      "inputs": [
        {
          "internalType": "uint256",
          "name": "numberOfNfts",
          "type": "uint256"
        }
      ],
      "name": "mintBBT",
      "outputs": [],
      "stateMutability": "payable",
      "type": "function",
      "payable": true
    },
    {
      "inputs": [],
      "name": "finalize",
      "outputs": [],
      "stateMutability": "nonpayable",
      "type": "function"
    },
    {
      "inputs": [
        {
          "internalType": "uint256",
          "name": "tokenId",
          "type": "uint256"
        },
        {
          "internalType": "string",
          "name": "newName",
          "type": "string"
        }
      ],
      "name": "changeName",
      "outputs": [],
      "stateMutability": "nonpayable",
      "type": "function"
    },
    {
      "inputs": [
        {
          "internalType": "uint256",
          "name": "tokenId",
          "type": "uint256"
        },
        {
          "internalType": "string",
          "name": "newDescription",
          "type": "string"
        }
      ],
      "name": "changeDescription",
      "outputs": [],
      "stateMutability": "nonpayable",
      "type": "function"
    },
    {
      "inputs": [],
      "name": "withdraw",
      "outputs": [],
      "stateMutability": "nonpayable",
      "type": "function"
    },
    {
      "inputs": [
        {
          "internalType": "address",
          "name": "to",
          "type": "address"
        },
        {
          "internalType": "uint256",
          "name": "tokenId",
          "type": "uint256"
        }
      ],
      "name": "approve",
      "outputs": [],
      "stateMutability": "nonpayable",
      "type": "function"
    },
    {
      "inputs": [
        {
          "internalType": "uint256",
          "name": "tokenId",
          "type": "uint256"
        }
      ],
      "name": "getApproved",
      "outputs": [
        {
          "internalType": "address",
          "name": "",
          "type": "address"
        }
      ],
      "stateMutability": "view",
      "type": "function",
      "constant": true
    },
    {
      "inputs": [
        {
          "internalType": "address",
          "name": "operator",
          "type": "address"
        },
        {
          "internalType": "bool",
          "name": "approved",
          "type": "bool"
        }
      ],
      "name": "setApprovalForAll",
      "outputs": [],
      "stateMutability": "nonpayable",
      "type": "function"
    },
    {
      "inputs": [
        {
          "internalType": "address",
          "name": "owner",
          "type": "address"
        },
        {
          "internalType": "address",
          "name": "operator",
          "type": "address"
        }
      ],
      "name": "isApprovedForAll",
      "outputs": [
        {
          "internalType": "bool",
          "name": "",
          "type": "bool"
        }
      ],
      "stateMutability": "view",
      "type": "function",
      "constant": true
    },
    {
      "inputs": [
        {
          "internalType": "address",
          "name": "from",
          "type": "address"
        },
        {
          "internalType": "address",
          "name": "to",
          "type": "address"
        },
        {
          "internalType": "uint256",
          "name": "tokenId",
          "type": "uint256"
        }
      ],
      "name": "transferFrom",
      "outputs": [],
      "stateMutability": "nonpayable",
      "type": "function"
    },
    {
      "inputs": [
        {
          "internalType": "address",
          "name": "from",
          "type": "address"
        },
        {
          "internalType": "address",
          "name": "to",
          "type": "address"
        },
        {
          "internalType": "uint256",
          "name": "tokenId",
          "type": "uint256"
        }
      ],
      "name": "safeTransferFrom",
      "outputs": [],
      "stateMutability": "nonpayable",
      "type": "function"
    },
    {
      "inputs": [
        {
          "internalType": "address",
          "name": "from",
          "type": "address"
        },
        {
          "internalType": "address",
          "name": "to",
          "type": "address"
        },
        {
          "internalType": "uint256",
          "name": "tokenId",
          "type": "uint256"
        },
        {
          "internalType": "bytes",
          "name": "_data",
          "type": "bytes"
        }
      ],
      "name": "safeTransferFrom",
      "outputs": [],
      "stateMutability": "nonpayable",
      "type": "function"
    },
    {
      "inputs": [
        {
          "internalType": "uint256",
          "name": "tokenId",
          "type": "uint256"
        }
      ],
      "name": "burn",
      "outputs": [],
      "stateMutability": "nonpayable",
      "type": "function"
    },
    {
      "inputs": [
        {
          "internalType": "string",
          "name": "str",
          "type": "string"
        }
      ],
      "name": "validateName",
      "outputs": [
        {
          "internalType": "bool",
          "name": "",
          "type": "bool"
        }
      ],
      "stateMutability": "pure",
      "type": "function",
      "constant": true
    },
    {
      "inputs": [
        {
          "internalType": "string",
          "name": "str",
          "type": "string"
        }
      ],
      "name": "validateDescription",
      "outputs": [
        {
          "internalType": "bool",
          "name": "",
          "type": "bool"
        }
      ],
      "stateMutability": "pure",
      "type": "function",
      "constant": true
    },
    {
      "inputs": [
        {
          "internalType": "string",
          "name": "str",
          "type": "string"
        }
      ],
      "name": "toLower",
      "outputs": [
        {
          "internalType": "string",
          "name": "",
          "type": "string"
        }
      ],
      "stateMutability": "pure",
      "type": "function",
      "constant": true
    }
  ],
  "bytecode": "0x6080604052670de0b6b3a764000060025560035462278d008101600455624f1a0081016005556143016006556709b6e64a8ec6000060075560085560006009553480156200004c57600080fd5b5060405162004b6338038062004b63833981810160405260c08110156200007257600080fd5b81019080805160405193929190846401000000008211156200009357600080fd5b908301906020820185811115620000a957600080fd5b8251640100000000811182820188101715620000c457600080fd5b82525081516020918201929091019080838360005b83811015620000f3578181015183820152602001620000d9565b50505050905090810190601f168015620001215780820380516001836020036101000a031916815260200191505b50604052602001805160405193929190846401000000008211156200014557600080fd5b9083019060208201858111156200015b57600080fd5b82516401000000008111828201881017156200017657600080fd5b82525081516020918201929091019080838360005b83811015620001a55781810151838201526020016200018b565b50505050905090810190601f168015620001d35780820380516001836020036101000a031916815260200191505b506040908152602082015190820151606083015160809093015191945092506000620001fe62000309565b600080546001600160a01b0319166001600160a01b0383169081178255604051929350917f8be0079c531659141344cd1fd0a4f28419497f9722a3daafe3b4186f6b6457e0908290a3506200025a6301ffc9a760e01b6200030d565b85516200026f90601690602089019062000395565b5084516200028590601790602088019062000395565b50601880546001600160a01b0319166001600160a01b03861617905560068290556002819055600383905562278d008301600455624f1a0083016005556008839055620002d96380ac58cd60e01b6200030d565b620002eb634992a2a160e11b6200030d565b620002fd63780e9d6360e01b6200030d565b50505050505062000431565b3390565b6001600160e01b031980821614156200036d576040805162461bcd60e51b815260206004820152601c60248201527f4552433136353a20696e76616c696420696e7465726661636520696400000000604482015290519081900360640190fd5b6001600160e01b0319166000908152600160208190526040909120805460ff19169091179055565b828054600181600116156101000203166002900490600052602060002090601f016020900481019282601f10620003d857805160ff191683800117855562000408565b8280016001018555821562000408579182015b8281111562000408578251825591602001919060010190620003eb565b50620004169291506200041a565b5090565b5b808211156200041657600081556001016200041b565b61472280620004416000396000f3fe6080604052600436106102e45760003560e01c80637478e94411610190578063b88d4fde116100dc578063e2bc64c411610095578063e95e1a0a1161006f578063e95e1a0a14610d89578063e985e9c514610da6578063f2fde38b14610de1578063f86325ed14610e14576102e4565b8063e2bc64c414610d35578063e36d649814610d5f578063e5ce323814610d74576102e4565b8063b88d4fde14610ab5578063c39cbef114610b86578063c878fad814610c3e578063c8ed64fe14610c53578063cb774d4714610c68578063de6a06ed14610c7d576102e4565b806395d89b4111610149578063a69722de11610123578063a69722de146109c5578063b25d095c14610a76578063b5077f4414610a8b578063b6c3133e14610aa0576102e4565b806395d89b41146108c45780639ffdb65a146108d9578063a22cb4651461098a576102e4565b80637478e944146107aa5780637c5ea595146107bf5780638d44cac5146107d45780638da5cb5b146107e95780639416b423146107fe578063946807fd146108af576102e4565b806342842e0e1161024f578063563245b7116102085780636352211e116101e25780636352211e1461070e5780636d5224181461073857806370a0823114610762578063715018a614610795576102e4565b8063563245b7146106ba5780635693b4b4146106cf578063606987eb146106e4576102e4565b806342842e0e146105f957806342966c681461063c5780634bb278f3146106665780634caf30101461067b5780634f6ccce71461069057806354b6f1611461067b576102e4565b806318e20a38116102a157806318e20a381461051457806323b872dd146105295780632ab32ce91461056c5780632f745c59146105965780633ccfd60b146105cf5780633f4af712146105e4576102e4565b806301ffc9a7146102e957806306fdde0314610331578063081812fc146103bb578063095ea7b31461040157806315b56d101461043c57806318160ddd146104ed575b600080fd5b3480156102f557600080fd5b5061031d6004803603602081101561030c57600080fd5b50356001600160e01b031916610e29565b604080519115158252519081900360200190f35b34801561033d57600080fd5b50610346610e4c565b6040805160208082528351818301528351919283929083019185019080838360005b83811015610380578181015183820152602001610368565b50505050905090810190601f1680156103ad5780820380516001836020036101000a031916815260200191505b509250505060405180910390f35b3480156103c757600080fd5b506103e5600480360360208110156103de57600080fd5b5035610ee3565b604080516001600160a01b039092168252519081900360200190f35b34801561040d57600080fd5b5061043a6004803603604081101561042457600080fd5b506001600160a01b038135169060200135610f45565b005b34801561044857600080fd5b5061031d6004803603602081101561045f57600080fd5b810190602081018135600160201b81111561047957600080fd5b82018360208201111561048b57600080fd5b803590602001918460018302840111600160201b831117156104ac57600080fd5b91908080601f016020809104026020016040519081016040528093929190818152602001838380828437600092019190915250929550611020945050505050565b3480156104f957600080fd5b50610502611093565b60408051918252519081900360200190f35b34801561052057600080fd5b506105026110a4565b34801561053557600080fd5b5061043a6004803603606081101561054c57600080fd5b506001600160a01b038135811691602081013590911690604001356110aa565b34801561057857600080fd5b506103466004803603602081101561058f57600080fd5b5035611101565b3480156105a257600080fd5b50610502600480360360408110156105b957600080fd5b506001600160a01b0381351690602001356111a2565b3480156105db57600080fd5b5061043a6111cd565b3480156105f057600080fd5b50610346611291565b34801561060557600080fd5b5061043a6004803603606081101561061c57600080fd5b506001600160a01b038135811691602081013590911690604001356112ad565b34801561064857600080fd5b5061043a6004803603602081101561065f57600080fd5b50356112c8565b34801561067257600080fd5b5061043a61166d565b34801561068757600080fd5b506105026118c3565b34801561069c57600080fd5b50610502600480360360208110156106b357600080fd5b50356118d0565b3480156106c657600080fd5b506105026118e6565b3480156106db57600080fd5b506105026118f4565b3480156106f057600080fd5b506105026004803603602081101561070757600080fd5b50356118fa565b34801561071a57600080fd5b506103e56004803603602081101561073157600080fd5b503561190c565b34801561074457600080fd5b506103466004803603602081101561075b57600080fd5b5035611934565b34801561076e57600080fd5b506105026004803603602081101561078557600080fd5b50356001600160a01b031661199e565b3480156107a157600080fd5b5061043a611a06565b3480156107b657600080fd5b50610502611aba565b3480156107cb57600080fd5b50610502611c00565b3480156107e057600080fd5b50610502611c06565b3480156107f557600080fd5b506103e5611c0c565b34801561080a57600080fd5b506103466004803603602081101561082157600080fd5b810190602081018135600160201b81111561083b57600080fd5b82018360208201111561084d57600080fd5b803590602001918460018302840111600160201b8311171561086e57600080fd5b91908080601f016020809104026020016040519081016040528093929190818152602001838380828437600092019190915250929550611c1b945050505050565b3480156108bb57600080fd5b50610502611d3d565b3480156108d057600080fd5b50610346611d43565b3480156108e557600080fd5b5061031d600480360360208110156108fc57600080fd5b810190602081018135600160201b81111561091657600080fd5b82018360208201111561092857600080fd5b803590602001918460018302840111600160201b8311171561094957600080fd5b91908080601f016020809104026020016040519081016040528093929190818152602001838380828437600092019190915250929550611da4945050505050565b34801561099657600080fd5b5061043a600480360360408110156109ad57600080fd5b506001600160a01b0381351690602001351515611f8f565b3480156109d157600080fd5b5061031d600480360360208110156109e857600080fd5b810190602081018135600160201b811115610a0257600080fd5b820183602082011115610a1457600080fd5b803590602001918460018302840111600160201b83111715610a3557600080fd5b91908080601f016020809104026020016040519081016040528093929190818152602001838380828437600092019190915250929550612094945050505050565b348015610a8257600080fd5b50610502612274565b348015610a9757600080fd5b50610502612280565b348015610aac57600080fd5b50610502612286565b348015610ac157600080fd5b5061043a60048036036080811015610ad857600080fd5b6001600160a01b03823581169260208101359091169160408201359190810190608081016060820135600160201b811115610b1257600080fd5b820183602082011115610b2457600080fd5b803590602001918460018302840111600160201b83111715610b4557600080fd5b91908080601f01602080910402602001604051908101604052809392919081815260200183838082843760009201919091525092955061228c945050505050565b348015610b9257600080fd5b5061043a60048036036040811015610ba957600080fd5b81359190810190604081016020820135600160201b811115610bca57600080fd5b820183602082011115610bdc57600080fd5b803590602001918460018302840111600160201b83111715610bfd57600080fd5b91908080601f0160208091040260200160405190810160405280939291908181526020018383808284376000920191909152509295506122e4945050505050565b348015610c4a57600080fd5b5061050261281b565b348015610c5f57600080fd5b5061050261294a565b348015610c7457600080fd5b50610502612957565b348015610c8957600080fd5b5061043a60048036036040811015610ca057600080fd5b81359190810190604081016020820135600160201b811115610cc157600080fd5b820183602082011115610cd357600080fd5b803590602001918460018302840111600160201b83111715610cf457600080fd5b91908080601f01602080910402602001604051908101604052809392919081815260200183838082843760009201919091525092955061295d945050505050565b348015610d4157600080fd5b5061031d60048036036020811015610d5857600080fd5b5035612d33565b348015610d6b57600080fd5b50610502612d48565b348015610d8057600080fd5b5061043a612d4e565b61043a60048036036020811015610d9f57600080fd5b5035612ea1565b348015610db257600080fd5b5061031d60048036036040811015610dc957600080fd5b506001600160a01b038135811691602001351661324a565b348015610ded57600080fd5b5061043a60048036036020811015610e0457600080fd5b50356001600160a01b0316613278565b348015610e2057600080fd5b50610502613382565b6001600160e01b0319811660009081526001602052604090205460ff165b919050565b60168054604080516020601f6002600019610100600188161502019095169490940493840181900481028201810190925282815260609390929091830182828015610ed85780601f10610ead57610100808354040283529160200191610ed8565b820191906000526020600020905b815481529060010190602001808311610ebb57829003601f168201915b505050505090505b90565b6000610eee82613388565b610f295760405162461bcd60e51b815260040180806020018281038252602c81526020018061458a602c913960400191505060405180910390fd5b506000908152600f60205260409020546001600160a01b031690565b6000610f508261190c565b9050806001600160a01b0316836001600160a01b03161415610fa35760405162461bcd60e51b815260040180806020018281038252602181526020018061462b6021913960400191505060405180910390fd5b806001600160a01b0316610fb5613395565b6001600160a01b03161480610fd65750610fd681610fd1613395565b61324a565b6110115760405162461bcd60e51b81526004018080602001828103825260388152602001806144bc6038913960400191505060405180910390fd5b61101b8383613399565b505050565b6000601361102d83611c1b565b6040518082805190602001908083835b6020831061105c5780518252601f19909201916020918201910161103d565b51815160209384036101000a600019018019909216911617905292019485525060405193849003019092205460ff16949350505050565b600061109f600d613407565b905090565b60055481565b6110bb6110b5613395565b82613412565b6110f65760405162461bcd60e51b815260040180806020018281038252603181526020018061464c6031913960400191505060405180910390fd5b61101b8383836134b6565b60008181526011602090815260409182902080548351601f60026000196101006001861615020190931692909204918201849004840281018401909452808452606093928301828280156111965780601f1061116b57610100808354040283529160200191611196565b820191906000526020600020905b81548152906001019060200180831161117957829003601f168201915b50505050509050919050565b6001600160a01b0382166000908152600c602052604081206111c49083613602565b90505b92915050565b6111d5613395565b6000546001600160a01b03908116911614611237576040805162461bcd60e51b815260206004820181905260248201527f4f776e61626c653a2063616c6c6572206973206e6f7420746865206f776e6572604482015290519081900360640190fd5b6000670de0b6b3a76400006007548161124c57fe5b0460010347029050336001600160a01b03166108fc829081150290604051600060405180830381858888f1935050505015801561128d573d6000803e3d6000fd5b5050565b6040518060600160405280604081526020016146ad6040913981565b61101b8383836040518060200160405280600081525061228c565b8060006112d48261190c565b9050806001600160a01b03166112e8613395565b6001600160a01b031614611343576040805162461bcd60e51b815260206004820152601f60248201527f63616c6c6572206973206e6f742074686520746f6b656e2773206f776e657200604482015290519081900360640190fd5b61134c83613388565b6113875760405162461bcd60e51b81526004018080602001828103825260298152602001806145df6029913960400191505060405180910390fd5b611398611392613395565b84613412565b6113d35760405162461bcd60e51b815260040180806020018281038252603081526020018061467d6030913960400191505060405180910390fd5b600b54611427576040805162461bcd60e51b815260206004820152601960248201527f4275726e20726577617264732061726520616c6c20676f6e6500000000000000604482015290519081900360640190fd5b601854604080516323b872dd60e01b815233600482015230602482015269028a857425466f800000604482015290516001600160a01b03909216916323b872dd916064808201926020929091908290030181600087803b15801561148a57600080fd5b505af115801561149e573d6000803e3d6000fd5b505050506040513d60208110156114b457600080fd5b505060185460408051630852cd8d60e31b815269028a857425466f800000600482015290516001600160a01b03909216916342966c68916024808201926020929091908290030181600087803b15801561150d57600080fd5b505af1158015611521573d6000803e3d6000fd5b505050506040513d602081101561153757600080fd5b5061154390508361360e565b600b546040516000916060913391908481818185875af1925050503d806000811461158a576040519150601f19603f3d011682016040523d82523d6000602084013e61158f565b606091505b5091509150816115dd576040805162461bcd60e51b81526020600482015260146024820152732330b4b632b2103a37903932bbb0b9321021272160611b604482015290519081900360640190fd5b6115e5613395565b6001600160a01b0316857ff6554c3a5d28e08c120b5a69c7edbaf52f935bd2596a60b8a18e282cd257cddb60405160405180910390a3611623613395565b6001600160a01b0316857ff813d5880c9fafb09d54acba1a6f7ba2eca437d3cae8d6edd6f022b90534f777600b546040518082815260200191505060405180910390a35050505050565b6009546116c1576040805162461bcd60e51b815260206004820181905260248201527f5374617274696e6720696e64657820626c6f636b206d75737420626520736574604482015290519081900360640190fd5b600a5415611716576040805162461bcd60e51b815260206004820152601d60248201527f5374617274696e6720696e64657820697320616c726561647920736574000000604482015290519081900360640190fd5b600b5415611764576040805162461bcd60e51b815260206004820152601660248201527514995dd85c991cc81a5cc8185b1c9958591e481cd95d60521b604482015290519081900360640190fd5b600654600954408161177257fe5b06600a5560095460ff9061178790439061369d565b11156117a2576006546000194301408161179d57fe5b06600a555b600a546117bb57600a546117b79060016136fa565b600a555b600b5461185d576117fc60646117f6607d6117f0670de0b6b3a76400006117f66007546117f06117e9611093565b4790613754565b906137bb565b90613754565b600b556007547f66442cbf405e46e8d60760c2133e2eef6030c63b9c942026e199d96b66ca181790479061182e611093565b600b54604080519485526020850193909352838301919091526060830152426080830152519081900360a00190a15b6018546040805163f82e580560e01b815242600482015290516001600160a01b039092169163f82e58059160248082019260009290919082900301818387803b1580156118a957600080fd5b505af11580156118bd573d6000803e3d6000fd5b50505050565b686c6b935b8bbd40000081565b6000806118de600d84613814565b509392505050565b69028a857425466f80000081565b600b5481565b60009081526012602052604090205490565b60006111c78260405180606001604052806029815260200161451e60299139600d9190613830565b60008181526010602090815260409182902080548351601f60026000196101006001861615020190931692909204918201849004840281018401909452808452606093928301828280156111965780601f1061116b57610100808354040283529160200191611196565b60006001600160a01b0382166119e55760405162461bcd60e51b815260040180806020018281038252602a8152602001806144f4602a913960400191505060405180910390fd5b6001600160a01b0382166000908152600c602052604090206111c790613407565b611a0e613395565b6000546001600160a01b03908116911614611a70576040805162461bcd60e51b815260206004820181905260248201527f4f776e61626c653a2063616c6c6572206973206e6f7420746865206f776e6572604482015290519081900360640190fd5b600080546040516001600160a01b03909116907f8be0079c531659141344cd1fd0a4f28419497f9722a3daafe3b4186f6b6457e0908390a3600080546001600160a01b0319169055565b6000600354421015611b0a576040805162461bcd60e51b815260206004820152601460248201527314d85b19481a185cc81b9bdd081cdd185c9d195960621b604482015290519081900360640190fd5b600654611b15611093565b1115611b61576040805162461bcd60e51b815260206004820152601660248201527514d85b19481a185cc8185b1c9958591e48195b99195960521b604482015290519081900360640190fd5b6000611b6b611093565b90506142fe8110611b845750506002546103e802610ee0565b61429a8110611b9a575050600254606402610ee0565b6135e88110611bb0575050600254601802610ee0565b6129048110611bc6575050600254600c02610ee0565b611bbc8110611bdc575050600254600602610ee0565b610e108110611bf2575050600254600302610ee0565b5050600254610ee0565b5090565b60045481565b60085481565b6000546001600160a01b031690565b6060808290506060815167ffffffffffffffff81118015611c3b57600080fd5b506040519080825280601f01601f191660200182016040528015611c66576020820181803683370190505b50905060005b82518110156118de576041838281518110611c8357fe5b016020015160f81c10801590611cad5750605a838281518110611ca257fe5b016020015160f81c11155b15611cfa57828181518110611cbe57fe5b602001015160f81c60f81b60f81c60200160f81b828281518110611cde57fe5b60200101906001600160f81b031916908160001a905350611d35565b828181518110611d0657fe5b602001015160f81c60f81b828281518110611d1d57fe5b60200101906001600160f81b031916908160001a9053505b600101611c6c565b60035481565b60178054604080516020601f6002600019610100600188161502019095169490940493840181900481028201810190925282815260609390929091830182828015610ed85780601f10610ead57610100808354040283529160200191610ed8565b60006060829050600181511015611dbf576000915050610e47565b601981511115611dd3576000915050610e47565b80600081518110611de057fe5b6020910101516001600160f81b031916600160fd1b1415611e05576000915050610e47565b80600182510381518110611e1557fe5b6020910101516001600160f81b031916600160fd1b1415611e3a576000915050610e47565b600081600081518110611e4957fe5b01602001516001600160f81b031916905060005b8251811015611f84576000838281518110611e7457fe5b01602001516001600160f81b0319169050600160fd1b81148015611ea55750600160fd1b6001600160f81b03198416145b15611eb7576000945050505050610e47565b600360fc1b6001600160f81b0319821610801590611ee35750603960f81b6001600160f81b0319821611155b158015611f195750604160f81b6001600160f81b0319821610801590611f175750602d60f91b6001600160f81b0319821611155b155b8015611f4e5750606160f81b6001600160f81b0319821610801590611f4c5750603d60f91b6001600160f81b0319821611155b155b8015611f685750600160fd1b6001600160f81b0319821614155b15611f7a576000945050505050610e47565b9150600101611e5d565b506001949350505050565b611f97613395565b6001600160a01b0316826001600160a01b03161415611ffd576040805162461bcd60e51b815260206004820152601960248201527f4552433732313a20617070726f766520746f2063616c6c657200000000000000604482015290519081900360640190fd5b806015600061200a613395565b6001600160a01b03908116825260208083019390935260409182016000908120918716808252919093529120805460ff19169215159290921790915561204e613395565b6001600160a01b03167f17307eab39ab6107e8899845ad3d59bd9653f200f220920489ca2b5937696c318360405180821515815260200191505060405180910390a35050565b600060608290506001815110156120af576000915050610e47565b60c8815111156120c3576000915050610e47565b806000815181106120d057fe5b6020910101516001600160f81b031916600160fd1b14156120f5576000915050610e47565b8060018251038151811061210557fe5b6020910101516001600160f81b031916600160fd1b141561212a576000915050610e47565b60008160008151811061213957fe5b01602001516001600160f81b031916905060005b8251811015611f8457600083828151811061216457fe5b01602001516001600160f81b0319169050600160fd1b811480156121955750600160fd1b6001600160f81b03198416145b156121a7576000945050505050610e47565b600360fc1b6001600160f81b03198216108015906121d35750603960f81b6001600160f81b0319821611155b1580156122095750604160f81b6001600160f81b03198216108015906122075750602d60f91b6001600160f81b0319821611155b155b801561223e5750606160f81b6001600160f81b031982161080159061223c5750603d60f91b6001600160f81b0319821611155b155b80156122585750600160fd1b6001600160f81b0319821614155b1561226a576000945050505050610e47565b915060010161214d565b670dae0ecdfeac332081565b60065481565b60075481565b61229d612297613395565b83613412565b6122d85760405162461bcd60e51b815260040180806020018281038252603181526020018061464c6031913960400191505060405180910390fd5b6118bd84848484613847565b8160006122f08261190c565b9050806001600160a01b0316612304613395565b6001600160a01b03161461235f576040805162461bcd60e51b815260206004820152601f60248201527f63616c6c6572206973206e6f742074686520746f6b656e2773206f776e657200604482015290519081900360640190fd5b61236883611da4565b15156001146123b5576040805162461bcd60e51b81526020600482015260146024820152734e6f7420612076616c6964206e6577206e616d6560601b604482015290519081900360640190fd5b60026010600086815260200190815260200160002060405180828054600181600116156101000203166002900480156124255780601f10612403576101008083540402835291820191612425565b820191906000526020600020905b815481529060010190602001808311612411575b5050915050602060405180830381855afa158015612447573d6000803e3d6000fd5b5050506040513d602081101561245c57600080fd5b505160405184516002918691819060208401908083835b602083106124925780518252601f199092019160209182019101612473565b51815160209384036101000a60001901801990921691161790526040519190930194509192505080830381855afa1580156124d1573d6000803e3d6000fd5b5050506040513d60208110156124e657600080fd5b505114156125255760405162461bcd60e51b81526004018080602001828103825260238152602001806146086023913960400191505060405180910390fd5b61252e83611020565b15612578576040805162461bcd60e51b815260206004820152601560248201527413985b5948185b1c9958591e481c995cd95c9d9959605a1b604482015290519081900360640190fd5b601854604080516323b872dd60e01b8152336004820152306024820152686c6b935b8bbd400000604482015290516001600160a01b03909216916323b872dd916064808201926020929091908290030181600087803b1580156125da57600080fd5b505af11580156125ee573d6000803e3d6000fd5b505050506040513d602081101561260457600080fd5b505060008481526010602052604090205460026000196101006001841615020190911604156126cf5760008481526010602090815260409182902080548351601f600260001961010060018616150201909316929092049182018490048402810184019094528084526126cf93928301828280156126c35780601f10612698576101008083540402835291602001916126c3565b820191906000526020600020905b8154815290600101906020018083116126a657829003601f168201915b50505050506000613899565b6126da836001613899565b600084815260106020908152604090912084516126f9928601906142c1565b5060185460408051630852cd8d60e31b8152686c6b935b8bbd400000600482015290516001600160a01b03909216916342966c68916024808201926020929091908290030181600087803b15801561275057600080fd5b505af1158015612764573d6000803e3d6000fd5b505050506040513d602081101561277a57600080fd5b5050604080516020808252855182820152855187937f7e632a301794d8d4a81ea7e20f37d1947158d36e66403af04ba85dd194b66f1b9388939092839283019185019080838360005b838110156127db5781810151838201526020016127c3565b50505050905090810190601f1680156128085780820380516001836020036101000a031916815260200191505b509250505060405180910390a250505050565b600060035442101561286b576040805162461bcd60e51b815260206004820152601460248201527314d85b19481a185cc81b9bdd081cdd185c9d195960621b604482015290519081900360640190fd5b600654612876611093565b11156128c2576040805162461bcd60e51b815260206004820152601660248201527514d85b19481a185cc8185b1c9958591e48195b99195960521b604482015290519081900360640190fd5b60006128cc611093565b90506142fe81106128e1576010915050610ee0565b61429a81106128f457600f915050610ee0565b6135e8811061290757600e915050610ee0565b612904811061291a57600d915050610ee0565b611bbc811061292d57600c915050610ee0565b610e10811061294057600b915050610ee0565b600a915050610ee0565b68e20e600a64a2e8000090565b600a5481565b8160006129698261190c565b9050806001600160a01b031661297d613395565b6001600160a01b0316146129d8576040805162461bcd60e51b815260206004820152601f60248201527f63616c6c6572206973206e6f742074686520746f6b656e2773206f776e657200604482015290519081900360640190fd5b6129e183612094565b1515600114612a37576040805162461bcd60e51b815260206004820152601b60248201527f4e6f7420612076616c6964206e6577206465736372697074696f6e0000000000604482015290519081900360640190fd5b6002601160008681526020019081526020016000206040518082805460018160011615610100020316600290048015612aa75780601f10612a85576101008083540402835291820191612aa7565b820191906000526020600020905b815481529060010190602001808311612a93575b5050915050602060405180830381855afa158015612ac9573d6000803e3d6000fd5b5050506040513d6020811015612ade57600080fd5b505160405184516002918691819060208401908083835b60208310612b145780518252601f199092019160209182019101612af5565b51815160209384036101000a60001901801990921691161790526040519190930194509192505080830381855afa158015612b53573d6000803e3d6000fd5b5050506040513d6020811015612b6857600080fd5b50511415612ba75760405162461bcd60e51b81526004018080602001828103825260238152602001806146086023913960400191505060405180910390fd5b601854604080516323b872dd60e01b8152336004820152306024820152686c6b935b8bbd400000604482015290516001600160a01b03909216916323b872dd916064808201926020929091908290030181600087803b158015612c0957600080fd5b505af1158015612c1d573d6000803e3d6000fd5b505050506040513d6020811015612c3357600080fd5b505060008481526011602090815260409091208451612c54928601906142c1565b5060185460408051630852cd8d60e31b8152686c6b935b8bbd400000600482015290516001600160a01b03909216916342966c68916024808201926020929091908290030181600087803b158015612cab57600080fd5b505af1158015612cbf573d6000803e3d6000fd5b505050506040513d6020811015612cd557600080fd5b5050604080516020808252855181830152855187937fc08f00439f67ede4cd3bf3516b07a5934614481602463c4c4ad2a0be58badf5c93889390928392830191850190808383600083156127db5781810151838201526020016127c3565b60009081526014602052604090205460ff1690565b60095481565b600354421015612d9c576040805162461bcd60e51b815260206004820152601460248201527314d85b19481a185cc81b9bdd081cdd185c9d195960621b604482015290519081900360640190fd5b600654612da7611093565b1115612df3576040805162461bcd60e51b815260206004820152601660248201527514d85b19481a185cc8185b1c9958591e48195b99195960521b604482015290519081900360640190fd5b6005544210158015612e0f5750600754670429d069189e000014155b15612e2557670429d069189e0000600755612e9f565b6003544210158015612e38575060055442105b15612e9f57600062015180600854420381612e4f57fe5b0490505b60018110612e9d57612e84670de0b6b3a76400006117f6670dae0ecdfeac33206007546137bb90919063ffffffff16565b60075542600855612e9681600161369d565b9050612e53565b505b565b600354421015612eef576040805162461bcd60e51b815260206004820152601460248201527314d85b19481a185cc81b9bdd081cdd185c9d195960621b604482015290519081900360640190fd5b600654612efa611093565b1115612f46576040805162461bcd60e51b815260206004820152601660248201527514d85b19481a185cc8185b1c9958591e48195b99195960521b604482015290519081900360640190fd5b60008111612f9b576040805162461bcd60e51b815260206004820152601860248201527f6e756d6265724f664e6674732063616e6e6f7420626520300000000000000000604482015290519081900360640190fd5b601e811115612fdb5760405162461bcd60e51b81526004018080602001828103825260298152602001806143c26029913960400191505060405180910390fd5b600654612ff082612fea611093565b906136fa565b111561303c576040805162461bcd60e51b815260206004820152601660248201527545786365656473204d41585f4e46545f535550504c5960501b604482015290519081900360640190fd5b34613045611aba565b811015613099576040805162461bcd60e51b815260206004820152601860248201527f424e422076616c7565206973206e6f7420656e6f756768740000000000000000604482015290519081900360640190fd5b6000821180156130b057506130ac611aba565b8110155b156131085760006130bf611093565b90506005544210156130e5576000818152601460205260409020805460ff191660011790555b600019909201916130f4611aba565b820391506131023382613915565b50613099565b8015613211573481111561314d5760405162461bcd60e51b81526004018080602001828103825260358152602001806144116035913960400191505060405180910390fd5b604051600090606090339084908481818185875af1925050503d8060008114613192576040519150601f19603f3d011682016040523d82523d6000602084013e613197565b606091505b5091509150816131d85760405162461bcd60e51b81526004018080602001828103825260228152602001806143a06022913960400191505060405180910390fd5b60408051848152905133917f510b82fea70ff89a8cc73cd7f29db2d7b480134c160cb52a258797b42d1989ad919081900360200190a250505b613219612d4e565b60095415801561323d575060065461322f611093565b148061323d57506005544210155b1561128d57436009555050565b6001600160a01b03918216600090815260156020908152604080832093909416825291909152205460ff1690565b613280613395565b6000546001600160a01b039081169116146132e2576040805162461bcd60e51b815260206004820181905260248201527f4f776e61626c653a2063616c6c6572206973206e6f7420746865206f776e6572604482015290519081900360640190fd5b6001600160a01b0381166133275760405162461bcd60e51b81526004018080602001828103825260268152602001806143eb6026913960400191505060405180910390fd5b600080546040516001600160a01b03808516939216917f8be0079c531659141344cd1fd0a4f28419497f9722a3daafe3b4186f6b6457e091a3600080546001600160a01b0319166001600160a01b0392909216919091179055565b60025481565b60006111c7600d8361392f565b3390565b6000818152600f6020526040902080546001600160a01b0319166001600160a01b03841690811790915581906133ce8261190c565b6001600160a01b03167f8c5be1e5ebec7d5bd14f71427d1e84f3dd0314c0f7b2291e5b200ac8c7c3b92560405160405180910390a45050565b60006111c78261393b565b600061341d82613388565b6134585760405162461bcd60e51b815260040180806020018281038252602c815260200180614490602c913960400191505060405180910390fd5b60006134638361190c565b9050806001600160a01b0316846001600160a01b0316148061349e5750836001600160a01b031661349384610ee3565b6001600160a01b0316145b806134ae57506134ae818561324a565b949350505050565b826001600160a01b03166134c98261190c565b6001600160a01b03161461350e5760405162461bcd60e51b81526004018080602001828103825260298152602001806145b66029913960400191505060405180910390fd5b6001600160a01b0382166135535760405162461bcd60e51b81526004018080602001828103825260248152602001806144466024913960400191505060405180910390fd5b61355e83838361101b565b613569600082613399565b6001600160a01b0383166000908152600c6020526040902061358b908261393f565b506001600160a01b0382166000908152600c602052604090206135ae908261394b565b506135bb600d8284613957565b5080826001600160a01b0316846001600160a01b03167fddf252ad1be2c89b69c2b068fc378daa952ba7f163c4a11628f55a4df523b3ef60405160405180910390a4505050565b60006111c4838361396d565b60006136198261190c565b90506136278160008461101b565b613632600083613399565b6001600160a01b0381166000908152600c60205260409020613654908361393f565b50613660600d836139d1565b5060405182906000906001600160a01b038416907fddf252ad1be2c89b69c2b068fc378daa952ba7f163c4a11628f55a4df523b3ef908390a45050565b6000828211156136f4576040805162461bcd60e51b815260206004820152601e60248201527f536166654d6174683a207375627472616374696f6e206f766572666c6f770000604482015290519081900360640190fd5b50900390565b6000828201838110156111c4576040805162461bcd60e51b815260206004820152601b60248201527f536166654d6174683a206164646974696f6e206f766572666c6f770000000000604482015290519081900360640190fd5b60008082116137aa576040805162461bcd60e51b815260206004820152601a60248201527f536166654d6174683a206469766973696f6e206279207a65726f000000000000604482015290519081900360640190fd5b8183816137b357fe5b049392505050565b6000826137ca575060006111c7565b828202828482816137d757fe5b04146111c45760405162461bcd60e51b81526004018080602001828103825260218152602001806145696021913960400191505060405180910390fd5b600080808061382386866139dd565b9097909650945050505050565b600061383d848484613a58565b90505b9392505050565b6138528484846134b6565b61385e84848484613b22565b6118bd5760405162461bcd60e51b815260040180806020018281038252603281526020018061436e6032913960400191505060405180910390fd5b8060136138a584611c1b565b6040518082805190602001908083835b602083106138d45780518252601f1990920191602091820191016138b5565b51815160209384036101000a60001901801990921691161790529201948552506040519384900301909220805460ff19169315159390931790925550505050565b61128d828260405180602001604052806000815250613c8a565b60006111c48383613cdc565b5490565b60006111c48383613cf4565b60006111c48383613dba565b600061383d84846001600160a01b038516613e04565b815460009082106139af5760405162461bcd60e51b815260040180806020018281038252602281526020018061434c6022913960400191505060405180910390fd5b8260000182815481106139be57fe5b9060005260206000200154905092915050565b60006111c48383613e9b565b815460009081908310613a215760405162461bcd60e51b81526004018080602001828103825260228152602001806145476022913960400191505060405180910390fd5b6000846000018481548110613a3257fe5b906000526020600020906002020190508060000154816001015492509250509250929050565b60008281526001840160205260408120548281613af35760405162461bcd60e51b81526004018080602001828103825283818151815260200191508051906020019080838360005b83811015613ab8578181015183820152602001613aa0565b50505050905090810190601f168015613ae55780820380516001836020036101000a031916815260200191505b509250505060405180910390fd5b50846000016001820381548110613b0657fe5b9060005260206000209060020201600101549150509392505050565b6000613b36846001600160a01b0316613f6f565b613b42575060016134ae565b6060613c50630a85bd0160e11b613b57613395565b88878760405160240180856001600160a01b03168152602001846001600160a01b0316815260200183815260200180602001828103825283818151815260200191508051906020019080838360005b83811015613bbe578181015183820152602001613ba6565b50505050905090810190601f168015613beb5780820380516001836020036101000a031916815260200191505b5095505050505050604051602081830303815290604052906001600160e01b0319166020820180516001600160e01b03838183161783525050505060405180606001604052806032815260200161436e603291396001600160a01b0388169190613f75565b90506000818060200190516020811015613c6957600080fd5b50516001600160e01b031916630a85bd0160e11b1492505050949350505050565b613c948383613f84565b613ca16000848484613b22565b61101b5760405162461bcd60e51b815260040180806020018281038252603281526020018061436e6032913960400191505060405180910390fd5b60009081526001919091016020526040902054151590565b60008181526001830160205260408120548015613db05783546000198083019190810190600090879083908110613d2757fe5b9060005260206000200154905080876000018481548110613d4457fe5b600091825260208083209091019290925582815260018981019092526040902090840190558654879080613d7457fe5b600190038181906000526020600020016000905590558660010160008781526020019081526020016000206000905560019450505050506111c7565b60009150506111c7565b6000613dc68383613cdc565b613dfc575081546001818101845560008481526020808220909301849055845484825282860190935260409020919091556111c7565b5060006111c7565b600082815260018401602052604081205480613e69575050604080518082018252838152602080820184815286546001818101895560008981528481209551600290930290950191825591519082015586548684528188019092529290912055613840565b82856000016001830381548110613e7c57fe5b9060005260206000209060020201600101819055506000915050613840565b60008181526001830160205260408120548015613db05783546000198083019190810190600090879083908110613ece57fe5b9060005260206000209060020201905080876000018481548110613eee57fe5b600091825260208083208454600290930201918255600193840154918401919091558354825289830190526040902090840190558654879080613f2d57fe5b60008281526020808220600260001990940193840201828155600190810183905592909355888152898201909252604082209190915594506111c79350505050565b3b151590565b606061383d84846000856140ff565b6001600160a01b038216613fdf576040805162461bcd60e51b815260206004820181905260248201527f4552433732313a206d696e7420746f20746865207a65726f2061646472657373604482015290519081900360640190fd5b613fe881613388565b1561403a576040805162461bcd60e51b815260206004820152601c60248201527f4552433732313a20746f6b656e20616c7265616479206d696e74656400000000604482015290519081900360640190fd5b6140466000838361101b565b6001600160a01b0382166000908152600c60205260409020614068908261394b565b5061407161281b565b60008281526012602052604090205561408c600d8284613957565b506040516001600160a01b0383169082907ff3cea5493d790af0133817606f7350a91d7f154ea52eaa79d179d4d231e5010290600090a360405181906001600160a01b038416906000907fddf252ad1be2c89b69c2b068fc378daa952ba7f163c4a11628f55a4df523b3ef908290a45050565b6060824710156141405760405162461bcd60e51b815260040180806020018281038252602681526020018061446a6026913960400191505060405180910390fd5b61414985613f6f565b61419a576040805162461bcd60e51b815260206004820152601d60248201527f416464726573733a2063616c6c20746f206e6f6e2d636f6e7472616374000000604482015290519081900360640190fd5b60006060866001600160a01b031685876040518082805190602001908083835b602083106141d95780518252601f1990920191602091820191016141ba565b6001836020036101000a03801982511681845116808217855250505050505090500191505060006040518083038185875af1925050503d806000811461423b576040519150601f19603f3d011682016040523d82523d6000602084013e614240565b606091505b509150915061425082828661425b565b979650505050505050565b6060831561426a575081613840565b82511561427a5782518084602001fd5b60405162461bcd60e51b8152602060048201818152845160248401528451859391928392604401919085019080838360008315613ab8578181015183820152602001613aa0565b828054600181600116156101000203166002900490600052602060002090601f016020900481019282601f1061430257805160ff191683800117855561432f565b8280016001018555821561432f579182015b8281111561432f578251825591602001919060010190614314565b50611bfc9291505b80821115611bfc576000815560010161433756fe456e756d657261626c655365743a20696e646578206f7574206f6620626f756e64734552433732313a207472616e7366657220746f206e6f6e20455243373231526563656976657220696d706c656d656e7465724661696c656420746f20726566756e6420424e42206166746572206d696e74696e67596f75206d6179206e6f7420627579206d6f7265207468616e203330204e465473206174206f6e63654f776e61626c653a206e6577206f776e657220697320746865207a65726f206164647265737343616e6e6f7420726566756e64206d6f7265207468616e20776861742074686520627579657220696e697469616c6c792073656e744552433732313a207472616e7366657220746f20746865207a65726f2061646472657373416464726573733a20696e73756666696369656e742062616c616e636520666f722063616c6c4552433732313a206f70657261746f7220717565727920666f72206e6f6e6578697374656e7420746f6b656e4552433732313a20617070726f76652063616c6c6572206973206e6f74206f776e6572206e6f7220617070726f76656420666f7220616c6c4552433732313a2062616c616e636520717565727920666f7220746865207a65726f20616464726573734552433732313a206f776e657220717565727920666f72206e6f6e6578697374656e7420746f6b656e456e756d657261626c654d61703a20696e646578206f7574206f6620626f756e6473536166654d6174683a206d756c7469706c69636174696f6e206f766572666c6f774552433732313a20617070726f76656420717565727920666f72206e6f6e6578697374656e7420746f6b656e4552433732313a207472616e73666572206f6620746f6b656e2074686174206973206e6f74206f776e4552433732313a2063616e6e6f74206275726e20666f72206e6f6e6578697374656e7420746f6b656e4e6577206e616d652069732073616d65206173207468652063757272656e74206f6e654552433732313a20617070726f76616c20746f2063757272656e74206f776e65724552433732313a207472616e736665722063616c6c6572206973206e6f74206f776e6572206e6f7220617070726f7665644552433732314275726e61626c653a2063616c6c6572206973206e6f74206f776e6572206e6f7220617070726f76656464663736306337373161643030366561636530643730353338336237343135383936376537386336653938306233356636373032343962353832323468617368a264697066735822122055a36d9224a6eeb643c45745fec5bee9ce7072762b08361bc5d2a3512434d04664736f6c63430007000033",
  "immutableReferences": {},
  "source": "// SPDX-License-Identifier: UNLICENSED\npragma solidity ^0.7.0;\n\nimport \"./ERC165/IERC165.sol\";\nimport \"./ERC165/ERC165.sol\";\nimport \"./utils/Address.sol\";\nimport \"./utils/EnumerableMap.sol\";\nimport \"./utils/EnumerableSet.sol\";\nimport \"./utils/Strings.sol\";\nimport \"./math/SafeMath.sol\";\nimport \"./utils/Context.sol\";\nimport \"./utils/Ownable.sol\";\nimport \"./ERC20/IERC20.sol\";\nimport \"./IBearNBearToken.sol\";\nimport \"./ERC721/IERC721Enumerable.sol\";\nimport \"./IMiniBearToken.sol\";\n\n/**\n * @title ERC-721 Non-Fungible Token Standard, optional metadata extension\n * @dev See https://eips.ethereum.org/EIPS/eip-721\n */\ninterface IERC721Metadata is IERC721 {\n\n    /**\n     * @dev Returns the token collection name.\n     */\n    function name() external view returns (string memory);\n\n    /**\n     * @dev Returns the token collection symbol.\n     */\n    function symbol() external view returns (string memory);\n}\n\n/**\n * @title ERC721 token receiver interface\n * @dev Interface for any contract that wants to support safeTransfers\n * from ERC721 asset contracts.\n */\ninterface IERC721Receiver {\n    /**\n     * @dev Whenever an {IERC721} `tokenId` token is transferred to this contract via {IERC721-safeTransferFrom}\n     * by `operator` from `from`, this function is called.\n     *\n     * It must return its Solidity selector to confirm the token transfer.\n     * If any other value is returned or the interface is not implemented by the recipient, the transfer will be reverted.\n     *\n     * The selector can be obtained in Solidity with `IERC721.onERC721Received.selector`.\n     */\n    function onERC721Received(address operator, address from, uint256 tokenId, bytes calldata data) external returns (bytes4);\n}\n\n/**\n * @title BearNBear contract\n * @dev Extends ERC721 Non-Fungible Token Standard basic implementation\n */\ncontract BearNBearToken is Context, Ownable, ERC165, IBearNBearToken, IERC721Metadata {\n    using SafeMath for uint256;\n    using Address for address;\n    using EnumerableSet for EnumerableSet.UintSet;\n    using EnumerableMap for EnumerableMap.UintToAddressMap;\n    using Strings for uint256;\n\n    uint constant PRECISION = 10 ** 18;\n    uint public BASE_PRICE = 1 * PRECISION;\n\n    // This is the provenance record of all artworks in existence\n    string public constant IPFS_PROVENANCE = \"df760c771ad006eace0d705383b74158967e78c6e980b35f670249b58224hash\";\n\n    // IMPORTANT TIMESTMAPS:\n    uint256 public SALE_START_TIMESTAMP; // only set by constructor\n    uint256 public MBT_BONUS_END_TIMESTAMP = SALE_START_TIMESTAMP + 30 days; // Time when bonus mBT ends\n    uint256 public REVEAL_TIMESTAMP = SALE_START_TIMESTAMP + 30 days + 30 days; // Time when sale starts\n\n    // IMPORTANT PRICES:\n    uint256 public constant NAME_CHANGE_PRICE = 2000 * PRECISION; // price to change name\n    uint256 public constant DESCRIPTION_CHANGE_PRICE = 2000 * PRECISION; // price to change description\n    uint256 public constant BURN_PRICE = (NAME_CHANGE_PRICE + DESCRIPTION_CHANGE_PRICE) * 3; // price to burn BBT\n\n    // BASIC INFORMATION\n    uint256 public MAX_NFT_SUPPLY = 17153; // only set by constructor, default to 17153\n    uint256 public constant depreciationDecayRatePerDay = 985741646344500000;\n\n    uint256 public burnRewardPool = 700000000000000000; // start from 70%\n    uint256 public burnRewardPoolLastUpdatedTimestamp = SALE_START_TIMESTAMP; // last updated at\n\n    // IMPORTANT VARIABLES\n    uint256 public startingIndexBlock = 0;\n    uint256 public startingIndex; // set by mint when sale ends at\n    uint256 public burnRewards; // set by finalize\n\n    // Equals to `bytes4(keccak256(\"onERC721Received(address,address,uint256,bytes)\"))`\n    // which can be also obtained as `IERC721Receiver(0).onERC721Received.selector`\n    bytes4 private constant _ERC721_RECEIVED = 0x150b7a02;\n\n    // IMPORTANT DATA STRUCTURES\n    mapping (address => EnumerableSet.UintSet) private _holderNFT; // Mapping from holder address to their (enumerable) set of owned NFT\n    EnumerableMap.UintToAddressMap private _tokenOwners; // Enumerable mapping from token ids to their owners\n\n    // BBT token informations\n\n    mapping (uint256 => address) private _tokenApprovals; // Mapping from token ID to approved address\n    mapping (uint256 => string) private _tokenName; // Mapping from token ID to name\n    mapping (uint256 => string) private _tokenDescription; // Mapping from token ID to description\n    mapping (uint256 => uint256) private _tokenMBTGeneratingMultiplier; // Mapping from token ID to MBT generating multiplier\n\n    // utility informations\n    mapping (string => bool) private _nameReserved; // Mapping if certain name string has already been reserved\n    mapping (uint256 => bool) private _mintedWithBonusMBT; // Mapping from token ID to whether the Hashmask was minted before reveal\n    mapping (address => mapping (address => bool)) private _operatorApprovals; // Mapping from owner to operator approvals\n\n    // contract basic information\n    string private _name; // BearNBearToken\n    string private _symbol; // BBT\n    address private _mbtAddress; // miniBearToken token address\n\n    /*\n     *     bytes4(keccak256('balanceOf(address)')) == 0x70a08231\n     *     bytes4(keccak256('ownerOf(uint256)')) == 0x6352211e\n     *     bytes4(keccak256('approve(address,uint256)')) == 0x095ea7b3\n     *     bytes4(keccak256('getApproved(uint256)')) == 0x081812fc\n     *     bytes4(keccak256('setApprovalForAll(address,bool)')) == 0xa22cb465\n     *     bytes4(keccak256('isApprovedForAll(address,address)')) == 0xe985e9c5\n     *     bytes4(keccak256('transferFrom(address,address,uint256)')) == 0x23b872dd\n     *     bytes4(keccak256('safeTransferFrom(address,address,uint256)')) == 0x42842e0e\n     *     bytes4(keccak256('safeTransferFrom(address,address,uint256,bytes)')) == 0xb88d4fde\n     *\n     *     => 0x70a08231 ^ 0x6352211e ^ 0x095ea7b3 ^ 0x081812fc ^\n     *        0xa22cb465 ^ 0xe985e9c5 ^ 0x23b872dd ^ 0x42842e0e ^ 0xb88d4fde == 0x80ac58cd\n     */\n    bytes4 private constant _INTERFACE_ID_ERC721 = 0x80ac58cd;\n\n    /*\n     *     bytes4(keccak256('name()')) == 0x06fdde03\n     *     bytes4(keccak256('symbol()')) == 0x95d89b41\n     *\n     *     => 0x06fdde03 ^ 0x95d89b41 == 0x93254542\n     */\n    bytes4 private constant _INTERFACE_ID_ERC721_METADATA = 0x93254542;\n\n    /*\n     *     bytes4(keccak256('totalSupply()')) == 0x18160ddd\n     *     bytes4(keccak256('tokenOfOwnerByIndex(address,uint256)')) == 0x2f745c59\n     *     bytes4(keccak256('tokenByIndex(uint256)')) == 0x4f6ccce7\n     *\n     *     => 0x18160ddd ^ 0x2f745c59 ^ 0x4f6ccce7 == 0x780e9d63\n     */\n    bytes4 private constant _INTERFACE_ID_ERC721_ENUMERABLE = 0x780e9d63;\n\n    // Events\n    event Mint (uint256 indexed tokenId, address indexed user);\n    event Refund (uint256 amount, address indexed user);\n    event NameChange (uint256 indexed tokenId, string newName);\n    event DescriptionChange (uint256 indexed tokenId, string newDescription);\n    event Burn (uint256 indexed tokenId, address indexed user);\n    event BnbRewards (uint256 indexed tokenIdtokenId, address indexed user, uint256 bnbAmount);\n    event BurnRewardsInitialized(uint256 contractBalance, uint256 burnRewardPool, uint256 totalSupply, uint256 burnRewards, uint256 emissionStart);\n\n    // check if the caller is the tokenId's owner\n    modifier onlyTokenOwner(uint256 tokenId) {\n        address owner = ownerOf(tokenId);\n        require(_msgSender() == owner, \"caller is not the token's owner\");\n        _;\n    }\n    /**\n     * @dev Initializes the contract by setting a `name` and a `symbol` to the token collection.\n     */\n    constructor (string memory name, string memory symbol, address mbtAddress, uint256 saleStartTimestamp, uint256 maxSupply, uint base_price) {\n        _name = name;\n        _symbol = symbol;\n        _mbtAddress = mbtAddress;\n\n        MAX_NFT_SUPPLY = maxSupply;\n        BASE_PRICE = base_price;\n\n        SALE_START_TIMESTAMP       = saleStartTimestamp; // set by constructor\n        MBT_BONUS_END_TIMESTAMP    = SALE_START_TIMESTAMP + 30 days;\n        REVEAL_TIMESTAMP           = SALE_START_TIMESTAMP + 30 days + 30 days;\n\n        burnRewardPoolLastUpdatedTimestamp = SALE_START_TIMESTAMP;\n\n        // register the supported interfaces to conform to ERC721 via ERC165\n        _registerInterface(_INTERFACE_ID_ERC721);\n        _registerInterface(_INTERFACE_ID_ERC721_METADATA);\n        _registerInterface(_INTERFACE_ID_ERC721_ENUMERABLE);\n    }\n\n    /**\n     * @dev See {IERC721-balanceOf}.\n     */\n    function balanceOf(address owner) public view override returns (uint256) {\n        require(owner != address(0), \"ERC721: balance query for the zero address\");\n\n        return _holderNFT[owner].length();\n    }\n\n    /**\n     * @dev See {IERC721-ownerOf}.\n     */\n    function ownerOf(uint256 tokenId) public view override returns (address) {\n        return _tokenOwners.get(tokenId, \"ERC721: owner query for nonexistent token\");\n    }\n\n    /**\n     * @dev See {IERC721Metadata-name}.\n     */\n    function name() public view override returns (string memory) {\n        return _name;\n    }\n\n    /**\n     * @dev See {IERC721Metadata-symbol}.\n     */\n    function symbol() public view override returns (string memory) {\n        return _symbol;\n    }\n\n    /**\n     * @dev See {IERC721Enumerable-tokenOfOwnerByIndex}.\n     */\n    function tokenOfOwnerByIndex(address owner, uint256 index) public view override returns (uint256) {\n        return _holderNFT[owner].at(index);\n    }\n\n    /**\n     * @dev See {IERC721Enumerable-totalSupply}.\n     */\n    function totalSupply() public view override returns (uint256) {\n        // _tokenOwners are indexed by tokenIds, so .length() returns the number of tokenIds\n        return _tokenOwners.length();\n    }\n\n    /**\n     * @dev See {IERC721Enumerable-tokenByIndex}.\n     */\n    function tokenByIndex(uint256 index) public view override returns (uint256) {\n        (uint256 tokenId, ) = _tokenOwners.at(index);\n        return tokenId;\n    }\n\n    /**\n     * @dev Returns name of the NFT at index.\n     */\n    function tokenNameByIndex(uint256 index) public view returns (string memory) {\n        return _tokenName[index];\n    }\n\n    /**\n     * @dev Returns description of the NFT at index.\n     */\n    function tokenDescriptionByIndex(uint256 index) public view returns (string memory) {\n        return _tokenDescription[index];\n    }\n\n    /**\n     * @dev Gets face's MBT generation multiplier\n     */\n    function tokenMBTGeneratingMultiplierByIndex(uint256 index) public view override returns (uint256) {\n        return _tokenMBTGeneratingMultiplier[index];\n    }\n\n    /**\n     * @dev Returns if the name has been reserved.\n     */\n    function isNameReserved(string memory nameString) public view returns (bool) {\n        return _nameReserved[toLower(nameString)];\n    }\n\n    /**\n     * @dev Returns if the NFT has bonus MBTs\n     */\n    function isMintedWithBonusMBT(uint256 index) public view override returns (bool) {\n        return _mintedWithBonusMBT[index];\n    }\n\n    /**\n     * @dev Returns initial granted MBT amount\n     */\n    function initGrantedMBT() public pure override returns (uint256) {\n        return NAME_CHANGE_PRICE + DESCRIPTION_CHANGE_PRICE + 170 * PRECISION; // a little bit more :)\n    }\n\n    /**\n     * @dev Init BearNBear initial price\n     */\n    function initNFTPrice() public view returns (uint256) {\n        require(block.timestamp >= SALE_START_TIMESTAMP, \"Sale has not started\");\n        require(totalSupply() <= MAX_NFT_SUPPLY, \"Sale has already ended\");\n\n        uint currentSupply = totalSupply();\n\n        if (currentSupply >= 17150) {\n            // 17151 - 17153 // 3 pieces\n            // 100.00 BNB\n            return 1000*BASE_PRICE;\n        } else if (currentSupply >= 17050) {\n            // 17050 - 17150\n            // 10.0 BNB\n            return 100*BASE_PRICE;\n        } else if (currentSupply >= 13800) {\n            // 13800 - 17049\n            // 2.4 BNB\n            return 24*BASE_PRICE;\n        } else if (currentSupply >= 10500) {\n            // 10500 - 13799\n            // 1.2 BNB\n            return 12*BASE_PRICE;\n        } else if (currentSupply >= 7100) {\n            // 7100 - 10499\n            // 0.6 BNB\n            return 6*BASE_PRICE;\n        } else if (currentSupply >= 3600) {\n            // 3600 - 7099\n            // 0.3 BNB\n            return 3*BASE_PRICE;\n        } else {\n            // 0 - 3599\n            // 0.1 BNB\n            return 1*BASE_PRICE;\n        }\n    }\n\n    /**\n     * @dev Init MBT generation multiplier\n     */\n    function initMBTMultiplier() public view returns (uint256) {\n        require(block.timestamp >= SALE_START_TIMESTAMP, \"Sale has not started\");\n        require(totalSupply() <= MAX_NFT_SUPPLY, \"Sale has already ended\");\n\n        uint currentSupply = totalSupply();\n\n        if (currentSupply >= 17150) {\n            // 17150 - 17153\n            return 16;\n        } else if (currentSupply >= 17050) {\n            // 17050 - 17150\n            return 15;\n        } else if (currentSupply >= 13800) {\n            // 13800 - 17049\n            return 14;\n        } else if (currentSupply >= 10500) {\n            // 10500 - 13799\n            return 13;\n        } else if (currentSupply >= 7100) {\n            // 7100 - 10499\n            return 12;\n        } else if (currentSupply >= 3600) {\n            // 3600 - 7099\n            return 11;\n        } else {\n            // 0 - 3599\n            // generate 10 MBT per day\n            return 10;\n        }\n    }\n\n    /**\n    * @dev everyone can poke to decay burnRewardPool\n    */\n    function updateBurnRewardPool() public {\n        require(block.timestamp >= SALE_START_TIMESTAMP, \"Sale has not started\");\n        require(totalSupply() <= MAX_NFT_SUPPLY, \"Sale has already ended\");\n\n        if(block.timestamp >= REVEAL_TIMESTAMP && burnRewardPool != 300000000000000000) {\n            // if NFT is not sold out before REVEAL_TIMESTAMP\n            // community can take up to 30% of total BNB accumulated in the first 60 days\n            // hard code 30% to reduce confusion\n            burnRewardPool = 300000000000000000;\n        } else if (block.timestamp >= SALE_START_TIMESTAMP && block.timestamp < REVEAL_TIMESTAMP) {\n            // between DECAY_COMMUNITY_TAKE_HOME_RATE_THRESHOLD and REVEAL_TIMESTAMP\n            uint256 timeToDecay = (block.timestamp - burnRewardPoolLastUpdatedTimestamp) / 1 days;\n            // to decay the burnRewardPool\n            while (timeToDecay >= 1) {\n                burnRewardPool = burnRewardPool.mul(depreciationDecayRatePerDay).div(PRECISION);\n                burnRewardPoolLastUpdatedTimestamp = block.timestamp;\n                timeToDecay = timeToDecay.sub(1);\n            }\n        }\n    }\n\n    /**\n    * @dev Buy/mint BBTs\n    */\n    function mintBBT(uint256 numberOfNfts) public payable {\n        require(block.timestamp >= SALE_START_TIMESTAMP, \"Sale has not started\");\n        require(totalSupply() <= MAX_NFT_SUPPLY, \"Sale has already ended\");\n        require(numberOfNfts > 0, \"numberOfNfts cannot be 0\");\n        require(numberOfNfts <= 30, \"You may not buy more than 30 NFTs at once\");\n        require(totalSupply().add(numberOfNfts) <= MAX_NFT_SUPPLY, \"Exceeds MAX_NFT_SUPPLY\");\n        // require(initNFTPrice().mul(numberOfNfts) == msg.value, \"BNB value sent is not correct\");\n\n        uint256 senderValue = msg.value;\n        require(senderValue >= initNFTPrice(), \"BNB value is not enought\");\n        while(numberOfNfts>0 && senderValue >= initNFTPrice()) {\n            uint mintIndex = totalSupply();\n            if (block.timestamp < REVEAL_TIMESTAMP) {\n                _mintedWithBonusMBT[mintIndex] = true;\n            }\n            numberOfNfts--;\n            senderValue -= initNFTPrice();\n            _safeMint(msg.sender, mintIndex);\n        }\n        if(senderValue>0){\n            // sanity check\n            require(senderValue <= msg.value, \"Cannot refund more than what the buyer initially sent\");\n            // refund BNB back to the buyer\n            (bool sent, bytes memory data) = msg.sender.call{value: senderValue}(\"\");\n            require(sent, \"Failed to refund BNB after minting\");\n            emit Refund(senderValue, msg.sender);\n        }\n\n        updateBurnRewardPool();\n\n        /**\n        * Source of randomness. Theoretical miner withhold manipulation possible but should be sufficient in a pragmatic sense\n        */\n        if (startingIndexBlock == 0 && (totalSupply() == MAX_NFT_SUPPLY || block.timestamp >= REVEAL_TIMESTAMP)) {\n            startingIndexBlock = block.number;\n        }\n    }\n\n    /**\n     * @dev to completely end the sale:\n            1. finalize startingIndex\n            2. set burnRewards\n            3. set emissionStart of MiniBearToken contract\n     */\n    function finalize() public {\n        require(startingIndexBlock != 0, \"Starting index block must be set\");\n        require(startingIndex == 0, \"Starting index is already set\");\n        require(burnRewards == 0, \"Rewards is already set\");\n\n        startingIndex = uint(blockhash(startingIndexBlock)) % MAX_NFT_SUPPLY;\n        // Just a sanity case in the worst case if this function is called late (EVM only stores last 256 block hashes)\n        if (block.number.sub(startingIndexBlock) > 255) {\n            startingIndex = uint(blockhash(block.number-1)) % MAX_NFT_SUPPLY;\n        }\n        // Prevent default sequence\n        if (startingIndex == 0) {\n            startingIndex = startingIndex.add(1);\n        }\n\n        // set how many BNB be rewarded for burning a BearNBear(BBT) token\n        if(burnRewards == 0) {\n            // burn rewards set as 125% of everage BNB redistribution\n            // lead to up to 80% of BBT will be/can be burned at the end of the extinction of the BNB rewards pool\n            burnRewards = address(this).balance.div(totalSupply()).mul(burnRewardPool).div(PRECISION).mul(125).div(100);\n            emit BurnRewardsInitialized(address(this).balance, burnRewardPool, totalSupply(), burnRewards, block.timestamp);\n        }\n\n        IMiniBearToken(_mbtAddress).setEmissionStart(block.timestamp);\n    }\n\n    /**\n     * @dev Changes the name for BearNBear tokenId\n     */\n    function changeName(uint256 tokenId, string memory newName) onlyTokenOwner(tokenId) public {\n        require(validateName(newName) == true, \"Not a valid new name\");\n        require(sha256(bytes(newName)) != sha256(bytes(_tokenName[tokenId])), \"New name is same as the current one\");\n        require(isNameReserved(newName) == false, \"Name already reserved\");\n\n        IERC20(_mbtAddress).transferFrom(msg.sender, address(this), NAME_CHANGE_PRICE);\n        // If already named, dereserve old name\n        if (bytes(_tokenName[tokenId]).length > 0) {\n            toggleReserveName(_tokenName[tokenId], false);\n        }\n        toggleReserveName(newName, true);\n        _tokenName[tokenId] = newName;\n        IERC20(_mbtAddress).burn(NAME_CHANGE_PRICE);\n        emit NameChange(tokenId, newName);\n    }\n\n    /**\n     * @dev Changes the description for BearNBear tokenId\n     */\n    function changeDescription(uint256 tokenId, string memory newDescription) onlyTokenOwner(tokenId) public {\n        require(validateDescription(newDescription) == true, \"Not a valid new description\");\n        require(sha256(bytes(newDescription)) != sha256(bytes(_tokenDescription[tokenId])), \"New name is same as the current one\");\n\n        IERC20(_mbtAddress).transferFrom(msg.sender, address(this), DESCRIPTION_CHANGE_PRICE);\n        _tokenDescription[tokenId] = newDescription;\n        IERC20(_mbtAddress).burn(DESCRIPTION_CHANGE_PRICE);\n        emit DescriptionChange(tokenId, newDescription);\n    }\n\n    /**\n     * @dev Withdraw ether from this contract (Callable by owner)\n    */\n    function withdraw() onlyOwner public {\n        uint balance = address(this).balance * (1 - burnRewardPool/PRECISION);\n        msg.sender.transfer(balance);\n    }\n\n    /**\n     * @dev See {IERC721-approve}.\n     */\n    function approve(address to, uint256 tokenId) public virtual override {\n        address owner = ownerOf(tokenId);\n        require(to != owner, \"ERC721: approval to current owner\");\n\n        require(_msgSender() == owner || isApprovedForAll(owner, _msgSender()),\n            \"ERC721: approve caller is not owner nor approved for all\"\n        );\n\n        _approve(to, tokenId);\n    }\n\n    /**\n     * @dev See {IERC721-getApproved}.\n     */\n    function getApproved(uint256 tokenId) public view override returns (address) {\n        require(_exists(tokenId), \"ERC721: approved query for nonexistent token\");\n\n        return _tokenApprovals[tokenId];\n    }\n\n    /**\n     * @dev See {IERC721-setApprovalForAll}.\n     */\n    function setApprovalForAll(address operator, bool approved) public virtual override {\n        require(operator != _msgSender(), \"ERC721: approve to caller\");\n\n        _operatorApprovals[_msgSender()][operator] = approved;\n        emit ApprovalForAll(_msgSender(), operator, approved);\n    }\n\n    /**\n     * @dev See {IERC721-isApprovedForAll}.\n     */\n    function isApprovedForAll(address owner, address operator) public view override returns (bool) {\n        return _operatorApprovals[owner][operator];\n    }\n\n    /**\n     * @dev See {IERC721-transferFrom}.\n     */\n    function transferFrom(address from, address to, uint256 tokenId) public virtual override {\n        //solhint-disable-next-line max-line-length\n        require(_isApprovedOrOwner(_msgSender(), tokenId), \"ERC721: transfer caller is not owner nor approved\");\n\n        _transfer(from, to, tokenId);\n    }\n\n    /**\n     * @dev See {IERC721-safeTransferFrom}.\n     */\n    function safeTransferFrom(address from, address to, uint256 tokenId) public virtual override {\n        safeTransferFrom(from, to, tokenId, \"\");\n    }\n\n    /**\n     * @dev See {IERC721-safeTransferFrom}.\n     */\n    function safeTransferFrom(address from, address to, uint256 tokenId, bytes memory _data) public virtual override {\n        require(_isApprovedOrOwner(_msgSender(), tokenId), \"ERC721: transfer caller is not owner nor approved\");\n        _safeTransfer(from, to, tokenId, _data);\n    }\n\n    /**\n     * @dev Safely transfers `tokenId` token from `from` to `to`, checking first that contract recipients\n     * are aware of the ERC721 protocol to prevent tokens from being forever locked.\n     *\n     * `_data` is additional data, it has no specified format and it is sent in call to `to`.\n     *\n     * This internal function is equivalent to {safeTransferFrom}, and can be used to e.g.\n     * implement alternative mechanisms to perform token transfer, such as signature-based.\n     *\n     * Requirements:\n     *\n     * - `from` cannot be the zero address.\n     * - `to` cannot be the zero address.\n     * - `tokenId` token must exist and be owned by `from`.\n     * - If `to` refers to a smart contract, it must implement {IERC721Receiver-onERC721Received}, which is called upon a safe transfer.\n     *\n     * Emits a {Transfer} event.\n     */\n    function _safeTransfer(address from, address to, uint256 tokenId, bytes memory _data) internal virtual {\n        _transfer(from, to, tokenId);\n        require(_checkOnERC721Received(from, to, tokenId, _data), \"ERC721: transfer to non ERC721Receiver implementer\");\n    }\n\n    /**\n     * @dev Returns whether `tokenId` exists.\n     *\n     * Tokens can be managed by their owner or approved accounts via {approve} or {setApprovalForAll}.\n     *\n     * Tokens start existing when they are minted (`_mint`),\n     * and stop existing when they are burned (`_burn`).\n     */\n    function _exists(uint256 tokenId) internal view returns (bool) {\n        return _tokenOwners.contains(tokenId);\n    }\n\n    /**\n     * @dev Returns whether `spender` is allowed to manage `tokenId`.\n     *\n     * Requirements:\n     *\n     * - `tokenId` must exist.\n     */\n    function _isApprovedOrOwner(address spender, uint256 tokenId) internal view returns (bool) {\n        require(_exists(tokenId), \"ERC721: operator query for nonexistent token\");\n        address owner = ownerOf(tokenId);\n        return (spender == owner || getApproved(tokenId) == spender || isApprovedForAll(owner, spender));\n    }\n\n    /**\n     * @dev Safely mints `tokenId` and transfers it to `to`.\n     *\n     * Requirements:\n     d*\n     * - `tokenId` must not exist.\n     * - If `to` refers to a smart contract, it must implement {IERC721Receiver-onERC721Received}, which is called upon a safe transfer.\n     *\n     * Emits a {Transfer} event.\n     */\n    function _safeMint(address to, uint256 tokenId) internal virtual {\n        _safeMint(to, tokenId, \"\");\n    }\n\n    /**\n     * @dev Same as {xref-ERC721-_safeMint-address-uint256-}[`_safeMint`], with an additional `data` parameter which is\n     * forwarded in {IERC721Receiver-onERC721Received} to contract recipients.\n     */\n    function _safeMint(address to, uint256 tokenId, bytes memory _data) internal virtual {\n        _mint(to, tokenId);\n        require(_checkOnERC721Received(address(0), to, tokenId, _data), \"ERC721: transfer to non ERC721Receiver implementer\");\n    }\n\n    /**\n     * @dev Mints `tokenId` and transfers it to `to`.\n     *\n     * WARNING: Usage of this method is discouraged, use {_safeMint} whenever possible\n     *\n     * Requirements:\n     *\n     * - `tokenId` must not exist.\n     * - `to` cannot be the zero address.\n     *\n     * Emits a {Transfer} event.\n     */\n    function _mint(address to, uint256 tokenId) internal virtual {\n        require(to != address(0), \"ERC721: mint to the zero address\");\n        require(!_exists(tokenId), \"ERC721: token already minted\");\n\n        _beforeTokenTransfer(address(0), to, tokenId);\n\n        _holderNFT[to].add(tokenId);\n\n        _tokenMBTGeneratingMultiplier[tokenId] = initMBTMultiplier();\n\n        _tokenOwners.set(tokenId, to);\n\n        emit Mint(tokenId, to);\n        emit Transfer(address(0), to, tokenId);\n    }\n\n\n    /**\n     * @dev Burns `tokenId`. See {ERC721-_burn}.\n     *\n     * Requirements:\n     *\n     * - The caller must own `tokenId` or be an approved operator.\n     */\n    function burn(uint256 tokenId) onlyTokenOwner(tokenId) public virtual {\n        require(_exists(tokenId), \"ERC721: cannot burn for nonexistent token\");\n        require(_isApprovedOrOwner(_msgSender(), tokenId), \"ERC721Burnable: caller is not owner nor approved\");\n        require(burnRewards != 0, \"Burn rewards are all gone\");\n\n        IERC20(_mbtAddress).transferFrom(msg.sender, address(this), BURN_PRICE);\n        IERC20(_mbtAddress).burn(BURN_PRICE);\n\n        _burn(tokenId);\n        (bool sent, bytes memory data) = msg.sender.call{value: burnRewards}(\"\");\n        require(sent, \"Failed to reward BNB\");\n        emit Burn(tokenId, _msgSender());\n        emit BnbRewards(tokenId, _msgSender(), burnRewards);\n    }\n\n    /**\n     * @dev Destroys `tokenId`.\n     * The approval is cleared when the token is burned.\n     *\n     * Requirements:\n     *\n     * - `tokenId` must exist.\n     *\n     * Emits a {Transfer} event.\n     */\n    function _burn(uint256 tokenId) internal virtual {\n        address owner = ownerOf(tokenId);\n\n        _beforeTokenTransfer(owner, address(0), tokenId);\n\n        // Clear approvals\n        _approve(address(0), tokenId);\n\n        _holderNFT[owner].remove(tokenId);\n\n        _tokenOwners.remove(tokenId);\n\n        emit Transfer(owner, address(0), tokenId);\n    }\n\n    /**\n     * @dev Transfers `tokenId` from `from` to `to`.\n     *  As opposed to {transferFrom}, this imposes no restrictions on msg.sender.\n     *\n     * Requirements:\n     *\n     * - `to` cannot be the zero address.\n     * - `tokenId` token must be owned by `from`.\n     *\n     * Emits a {Transfer} event.\n     */\n    function _transfer(address from, address to, uint256 tokenId) internal virtual {\n        require(ownerOf(tokenId) == from, \"ERC721: transfer of token that is not own\");\n        require(to != address(0), \"ERC721: transfer to the zero address\");\n\n        _beforeTokenTransfer(from, to, tokenId);\n\n        // Clear approvals from the previous owner\n        _approve(address(0), tokenId);\n\n        _holderNFT[from].remove(tokenId);\n        _holderNFT[to].add(tokenId);\n\n        _tokenOwners.set(tokenId, to);\n\n        emit Transfer(from, to, tokenId);\n    }\n\n\n    /**\n     * @dev Internal function to invoke {IERC721Receiver-onERC721Received} on a target address.\n     * The call is not executed if the target address is not a contract.\n     *\n     * @param from address representing the previous owner of the given token ID\n     * @param to target address that will receive the tokens\n     * @param tokenId uint256 ID of the token to be transferred\n     * @param _data bytes optional data to send along with the call\n     * @return bool whether the call correctly returned the expected magic value\n     */\n    function _checkOnERC721Received(address from, address to, uint256 tokenId, bytes memory _data)\n    private returns (bool)\n    {\n        if (!to.isContract()) {\n            return true;\n        }\n        bytes memory returndata = to.functionCall(abi.encodeWithSelector(\n                IERC721Receiver(to).onERC721Received.selector,\n                _msgSender(),\n                from,\n                tokenId,\n                _data\n            ), \"ERC721: transfer to non ERC721Receiver implementer\");\n        bytes4 retval = abi.decode(returndata, (bytes4));\n        return (retval == _ERC721_RECEIVED);\n    }\n\n    function _approve(address to, uint256 tokenId) private {\n        _tokenApprovals[tokenId] = to;\n        emit Approval(ownerOf(tokenId), to, tokenId);\n    }\n\n    /**\n     * @dev Hook that is called before any token transfer. This includes minting\n     * and burning.\n     *\n     * Calling conditions:\n     *\n     * - When `from` and `to` are both non-zero, ``from``'s `tokenId` will be\n     * transferred to `to`.\n     * - When `from` is zero, `tokenId` will be minted for `to`.\n     * - When `to` is zero, ``from``'s `tokenId` will be burned.\n     * - `from` cannot be the zero address.\n     * - `to` cannot be the zero address.\n     *\n     * To learn more about hooks, head to xref:ROOT:extending-contracts.adoc#using-hooks[Using Hooks].\n     */\n    function _beforeTokenTransfer(address from, address to, uint256 tokenId) internal virtual { }\n\n    /**\n     * @dev Reserves the name if isReserve is set to true, de-reserves if set to false\n     */\n    function toggleReserveName(string memory str, bool isReserve) internal {\n        _nameReserved[toLower(str)] = isReserve;\n    }\n\n    /**\n     * @dev Check if the name string is valid (Alphanumeric and spaces without leading or trailing space)\n     */\n    function validateName(string memory str) public pure returns (bool){\n        bytes memory b = bytes(str);\n        if(b.length < 1) return false;\n        if(b.length > 25) return false; // Cannot be longer than 25 characters\n        if(b[0] == 0x20) return false; // Leading space\n        if (b[b.length - 1] == 0x20) return false; // Trailing space\n\n        bytes1 lastChar = b[0];\n\n        for(uint i; i<b.length; i++){\n            bytes1 char = b[i];\n\n            if (char == 0x20 && lastChar == 0x20) return false; // Cannot contain continous spaces\n\n            if(\n                !(char >= 0x30 && char <= 0x39) && //9-0\n            !(char >= 0x41 && char <= 0x5A) && //A-Z\n            !(char >= 0x61 && char <= 0x7A) && //a-z\n            !(char == 0x20) //space\n            )\n                return false;\n\n            lastChar = char;\n        }\n\n        return true;\n    }\n\n    /**\n     * @dev Check if the description string is valid (Alphanumeric and spaces without leading or trailing space)\n     */\n    function validateDescription(string memory str) public pure returns (bool){\n        bytes memory b = bytes(str);\n        if(b.length < 1) return false;\n        if(b.length > 200) return false; // Cannot be longer than 25 characters\n        if(b[0] == 0x20) return false; // Leading space\n        if (b[b.length - 1] == 0x20) return false; // Trailing space\n\n        bytes1 lastChar = b[0];\n\n        for(uint i; i<b.length; i++){\n            bytes1 char = b[i];\n\n            if (char == 0x20 && lastChar == 0x20) return false; // Cannot contain continous spaces\n\n            if(\n                !(char >= 0x30 && char <= 0x39) && //9-0\n            !(char >= 0x41 && char <= 0x5A) && //A-Z\n            !(char >= 0x61 && char <= 0x7A) && //a-z\n            !(char == 0x20) //space\n            )\n                return false;\n\n            lastChar = char;\n        }\n\n        return true;\n    }\n\n    /**\n     * @dev Converts the string to lowercase\n     */\n    function toLower(string memory str) public pure returns (string memory){\n        bytes memory bStr = bytes(str);\n        bytes memory bLower = new bytes(bStr.length);\n        for (uint i = 0; i < bStr.length; i++) {\n            // Uppercase character\n            if ((uint8(bStr[i]) >= 65) && (uint8(bStr[i]) <= 90)) {\n                bLower[i] = bytes1(uint8(bStr[i]) + 32);\n            } else {\n                bLower[i] = bStr[i];\n            }\n        }\n        return string(bLower);\n    }\n}\n",
  "sourcePath": "/Users/andychen/projects/benarnbear/contracts/contracts/BearNBearToken.sol",
  "compiler": {
    "name": "solc",
    "version": "0.7.0+commit.9e61f92b.Emscripten.clang"
  },
  "schemaVersion": "3.3.4",
  "updatedAt": "2021-03-10T07:03:43.081Z",
  "networkType": "ethereum",
  "devdoc": {
    "details": "Extends ERC721 Non-Fungible Token Standard basic implementation",
    "kind": "dev",
    "methods": {
      "approve(address,uint256)": {
        "details": "See {IERC721-approve}."
      },
      "balanceOf(address)": {
        "details": "See {IERC721-balanceOf}."
      },
      "burn(uint256)": {
        "details": "Burns `tokenId`. See {ERC721-_burn}. Requirements: - The caller must own `tokenId` or be an approved operator."
      },
      "changeDescription(uint256,string)": {
        "details": "Changes the description for BearNBear tokenId"
      },
      "changeName(uint256,string)": {
        "details": "Changes the name for BearNBear tokenId"
      },
      "constructor": {
        "details": "Initializes the contract by setting a `name` and a `symbol` to the token collection."
      },
      "finalize()": {
        "details": "to completely end the sale: 1. finalize startingIndex 2. set burnRewards 3. set emissionStart of MiniBearToken contract"
      },
      "getApproved(uint256)": {
        "details": "See {IERC721-getApproved}."
      },
      "initGrantedMBT()": {
        "details": "Returns initial granted MBT amount"
      },
      "initMBTMultiplier()": {
        "details": "Init MBT generation multiplier"
      },
      "initNFTPrice()": {
        "details": "Init BearNBear initial price"
      },
      "isApprovedForAll(address,address)": {
        "details": "See {IERC721-isApprovedForAll}."
      },
      "isMintedWithBonusMBT(uint256)": {
        "details": "Returns if the NFT has bonus MBTs"
      },
      "isNameReserved(string)": {
        "details": "Returns if the name has been reserved."
      },
      "mintBBT(uint256)": {
        "details": "Buy/mint BBTs"
      },
      "name()": {
        "details": "See {IERC721Metadata-name}."
      },
      "owner()": {
        "details": "Returns the address of the current owner."
      },
      "ownerOf(uint256)": {
        "details": "See {IERC721-ownerOf}."
      },
      "renounceOwnership()": {
        "details": "Leaves the contract without owner. It will not be possible to call `onlyOwner` functions anymore. Can only be called by the current owner. NOTE: Renouncing ownership will leave the contract without an owner, thereby removing any functionality that is only available to the owner."
      },
      "safeTransferFrom(address,address,uint256)": {
        "details": "See {IERC721-safeTransferFrom}."
      },
      "safeTransferFrom(address,address,uint256,bytes)": {
        "details": "See {IERC721-safeTransferFrom}."
      },
      "setApprovalForAll(address,bool)": {
        "details": "See {IERC721-setApprovalForAll}."
      },
      "supportsInterface(bytes4)": {
        "details": "See {IERC165-supportsInterface}. Time complexity O(1), guaranteed to always use less than 30 000 gas."
      },
      "symbol()": {
        "details": "See {IERC721Metadata-symbol}."
      },
      "toLower(string)": {
        "details": "Converts the string to lowercase"
      },
      "tokenByIndex(uint256)": {
        "details": "See {IERC721Enumerable-tokenByIndex}."
      },
      "tokenDescriptionByIndex(uint256)": {
        "details": "Returns description of the NFT at index."
      },
      "tokenMBTGeneratingMultiplierByIndex(uint256)": {
        "details": "Gets face's MBT generation multiplier"
      },
      "tokenNameByIndex(uint256)": {
        "details": "Returns name of the NFT at index."
      },
      "tokenOfOwnerByIndex(address,uint256)": {
        "details": "See {IERC721Enumerable-tokenOfOwnerByIndex}."
      },
      "totalSupply()": {
        "details": "See {IERC721Enumerable-totalSupply}."
      },
      "transferFrom(address,address,uint256)": {
        "details": "See {IERC721-transferFrom}."
      },
      "transferOwnership(address)": {
        "details": "Transfers ownership of the contract to a new account (`newOwner`). Can only be called by the current owner."
      },
      "updateBurnRewardPool()": {
        "details": "everyone can poke to decay burnRewardPool"
      },
      "validateDescription(string)": {
        "details": "Check if the description string is valid (Alphanumeric and spaces without leading or trailing space)"
      },
      "validateName(string)": {
        "details": "Check if the name string is valid (Alphanumeric and spaces without leading or trailing space)"
      },
      "withdraw()": {
        "details": "Withdraw ether from this contract (Callable by owner)"
      }
    },
    "title": "BearNBear contract",
    "version": 1
  },
  "userdoc": {
    "kind": "user",
    "methods": {},
    "version": 1
  }
}