{
  "contractName": "MiniBearToken",
  "abi": [
    {
      "inputs": [
        {
          "internalType": "string",
          "name": "name",
          "type": "string"
        },
        {
          "internalType": "string",
          "name": "symbol",
          "type": "string"
        },
        {
          "internalType": "uint256",
          "name": "emissionStartTimestamp",
          "type": "uint256"
        }
      ],
      "stateMutability": "nonpayable",
      "type": "constructor"
    },
    {
      "anonymous": false,
      "inputs": [
        {
          "indexed": true,
          "internalType": "address",
          "name": "owner",
          "type": "address"
        },
        {
          "indexed": true,
          "internalType": "address",
          "name": "spender",
          "type": "address"
        },
        {
          "indexed": false,
          "internalType": "uint256",
          "name": "value",
          "type": "uint256"
        }
      ],
      "name": "Approval",
      "type": "event"
    },
    {
      "anonymous": false,
      "inputs": [
        {
          "indexed": true,
          "internalType": "address",
          "name": "previousOwner",
          "type": "address"
        },
        {
          "indexed": true,
          "internalType": "address",
          "name": "newOwner",
          "type": "address"
        }
      ],
      "name": "OwnershipTransferred",
      "type": "event"
    },
    {
      "anonymous": false,
      "inputs": [
        {
          "indexed": true,
          "internalType": "address",
          "name": "from",
          "type": "address"
        },
        {
          "indexed": true,
          "internalType": "address",
          "name": "to",
          "type": "address"
        },
        {
          "indexed": false,
          "internalType": "uint256",
          "name": "value",
          "type": "uint256"
        }
      ],
      "name": "Transfer",
      "type": "event"
    },
    {
      "inputs": [],
      "name": "PRE_REVEAL_MULTIPLIER",
      "outputs": [
        {
          "internalType": "uint256",
          "name": "",
          "type": "uint256"
        }
      ],
      "stateMutability": "view",
      "type": "function",
      "constant": true
    },
    {
      "inputs": [],
      "name": "SECONDS_IN_A_DAY",
      "outputs": [
        {
          "internalType": "uint256",
          "name": "",
          "type": "uint256"
        }
      ],
      "stateMutability": "view",
      "type": "function",
      "constant": true
    },
    {
      "inputs": [],
      "name": "emissionEnd",
      "outputs": [
        {
          "internalType": "uint256",
          "name": "",
          "type": "uint256"
        }
      ],
      "stateMutability": "view",
      "type": "function",
      "constant": true
    },
    {
      "inputs": [],
      "name": "emissionPerDay",
      "outputs": [
        {
          "internalType": "uint256",
          "name": "",
          "type": "uint256"
        }
      ],
      "stateMutability": "view",
      "type": "function",
      "constant": true
    },
    {
      "inputs": [],
      "name": "emissionStart",
      "outputs": [
        {
          "internalType": "uint256",
          "name": "",
          "type": "uint256"
        }
      ],
      "stateMutability": "view",
      "type": "function",
      "constant": true
    },
    {
      "inputs": [],
      "name": "owner",
      "outputs": [
        {
          "internalType": "address",
          "name": "",
          "type": "address"
        }
      ],
      "stateMutability": "view",
      "type": "function",
      "constant": true
    },
    {
      "inputs": [],
      "name": "renounceOwnership",
      "outputs": [],
      "stateMutability": "nonpayable",
      "type": "function"
    },
    {
      "inputs": [
        {
          "internalType": "address",
          "name": "newOwner",
          "type": "address"
        }
      ],
      "name": "transferOwnership",
      "outputs": [],
      "stateMutability": "nonpayable",
      "type": "function"
    },
    {
      "inputs": [],
      "name": "name",
      "outputs": [
        {
          "internalType": "string",
          "name": "",
          "type": "string"
        }
      ],
      "stateMutability": "view",
      "type": "function",
      "constant": true
    },
    {
      "inputs": [],
      "name": "symbol",
      "outputs": [
        {
          "internalType": "string",
          "name": "",
          "type": "string"
        }
      ],
      "stateMutability": "view",
      "type": "function",
      "constant": true
    },
    {
      "inputs": [],
      "name": "decimals",
      "outputs": [
        {
          "internalType": "uint8",
          "name": "",
          "type": "uint8"
        }
      ],
      "stateMutability": "view",
      "type": "function",
      "constant": true
    },
    {
      "inputs": [],
      "name": "totalSupply",
      "outputs": [
        {
          "internalType": "uint256",
          "name": "",
          "type": "uint256"
        }
      ],
      "stateMutability": "view",
      "type": "function",
      "constant": true
    },
    {
      "inputs": [
        {
          "internalType": "address",
          "name": "account",
          "type": "address"
        }
      ],
      "name": "balanceOf",
      "outputs": [
        {
          "internalType": "uint256",
          "name": "",
          "type": "uint256"
        }
      ],
      "stateMutability": "view",
      "type": "function",
      "constant": true
    },
    {
      "inputs": [
        {
          "internalType": "uint256",
          "name": "tokenIndex",
          "type": "uint256"
        }
      ],
      "name": "lastClaim",
      "outputs": [
        {
          "internalType": "uint256",
          "name": "",
          "type": "uint256"
        }
      ],
      "stateMutability": "view",
      "type": "function",
      "constant": true
    },
    {
      "inputs": [
        {
          "internalType": "uint256",
          "name": "tokenIndex",
          "type": "uint256"
        }
      ],
      "name": "accumulated",
      "outputs": [
        {
          "internalType": "uint256",
          "name": "",
          "type": "uint256"
        }
      ],
      "stateMutability": "view",
      "type": "function",
      "constant": true
    },
    {
      "inputs": [
        {
          "internalType": "address",
          "name": "bbtAddress",
          "type": "address"
        }
      ],
      "name": "setBBTAddress",
      "outputs": [],
      "stateMutability": "nonpayable",
      "type": "function"
    },
    {
      "inputs": [
        {
          "internalType": "uint256",
          "name": "timestamp",
          "type": "uint256"
        }
      ],
      "name": "setEmissionStart",
      "outputs": [],
      "stateMutability": "nonpayable",
      "type": "function"
    },
    {
      "inputs": [
        {
          "internalType": "uint256[]",
          "name": "tokenIndices",
          "type": "uint256[]"
        }
      ],
      "name": "claim",
      "outputs": [
        {
          "internalType": "uint256",
          "name": "",
          "type": "uint256"
        }
      ],
      "stateMutability": "nonpayable",
      "type": "function"
    },
    {
      "inputs": [
        {
          "internalType": "address",
          "name": "recipient",
          "type": "address"
        },
        {
          "internalType": "uint256",
          "name": "amount",
          "type": "uint256"
        }
      ],
      "name": "transfer",
      "outputs": [
        {
          "internalType": "bool",
          "name": "",
          "type": "bool"
        }
      ],
      "stateMutability": "nonpayable",
      "type": "function"
    },
    {
      "inputs": [
        {
          "internalType": "address",
          "name": "owner",
          "type": "address"
        },
        {
          "internalType": "address",
          "name": "spender",
          "type": "address"
        }
      ],
      "name": "allowance",
      "outputs": [
        {
          "internalType": "uint256",
          "name": "",
          "type": "uint256"
        }
      ],
      "stateMutability": "view",
      "type": "function",
      "constant": true
    },
    {
      "inputs": [
        {
          "internalType": "address",
          "name": "spender",
          "type": "address"
        },
        {
          "internalType": "uint256",
          "name": "amount",
          "type": "uint256"
        }
      ],
      "name": "approve",
      "outputs": [
        {
          "internalType": "bool",
          "name": "",
          "type": "bool"
        }
      ],
      "stateMutability": "nonpayable",
      "type": "function"
    },
    {
      "inputs": [
        {
          "internalType": "address",
          "name": "sender",
          "type": "address"
        },
        {
          "internalType": "address",
          "name": "recipient",
          "type": "address"
        },
        {
          "internalType": "uint256",
          "name": "amount",
          "type": "uint256"
        }
      ],
      "name": "transferFrom",
      "outputs": [
        {
          "internalType": "bool",
          "name": "",
          "type": "bool"
        }
      ],
      "stateMutability": "nonpayable",
      "type": "function"
    },
    {
      "inputs": [
        {
          "internalType": "address",
          "name": "spender",
          "type": "address"
        },
        {
          "internalType": "uint256",
          "name": "addedValue",
          "type": "uint256"
        }
      ],
      "name": "increaseAllowance",
      "outputs": [
        {
          "internalType": "bool",
          "name": "",
          "type": "bool"
        }
      ],
      "stateMutability": "nonpayable",
      "type": "function"
    },
    {
      "inputs": [
        {
          "internalType": "uint256",
          "name": "burnQuantity",
          "type": "uint256"
        }
      ],
      "name": "burn",
      "outputs": [
        {
          "internalType": "bool",
          "name": "",
          "type": "bool"
        }
      ],
      "stateMutability": "nonpayable",
      "type": "function"
    },
    {
      "inputs": [
        {
          "internalType": "address",
          "name": "spender",
          "type": "address"
        },
        {
          "internalType": "uint256",
          "name": "subtractedValue",
          "type": "uint256"
        }
      ],
      "name": "decreaseAllowance",
      "outputs": [
        {
          "internalType": "bool",
          "name": "",
          "type": "bool"
        }
      ],
      "stateMutability": "nonpayable",
      "type": "function"
    }
  ],
  "bytecode": "0x608060405262015180600155670de0b6b3a76400006004553480156200002457600080fd5b5060405162001ff838038062001ff8833981810160405260608110156200004a57600080fd5b81019080805160405193929190846401000000008211156200006b57600080fd5b9083019060208201858111156200008157600080fd5b82516401000000008111828201881017156200009c57600080fd5b82525081516020918201929091019080838360005b83811015620000cb578181015183820152602001620000b1565b50505050905090810190601f168015620000f95780820380516001836020036101000a031916815260200191505b50604052602001805160405193929190846401000000008211156200011d57600080fd5b9083019060208201858111156200013357600080fd5b82516401000000008111828201881017156200014e57600080fd5b82525081516020918201929091019080838360005b838110156200017d57818101518382015260200162000163565b50505050905090810190601f168015620001ab5780820380516001836020036101000a031916815260200191505b5060405260200151915060009050620001c36200025d565b600080546001600160a01b0319166001600160a01b0383169081178255604051929350917f8be0079c531659141344cd1fd0a4f28419497f9722a3daafe3b4186f6b6457e0908290a35082516200022290600990602086019062000261565b5081516200023890600a90602085019062000261565b50600b805460ff1916601217905560028190556312cc03000160035550620002fd9050565b3390565b828054600181600116156101000203166002900490600052602060002090601f016020900481019282601f10620002a457805160ff1916838001178555620002d4565b82800160010185558215620002d4579182015b82811115620002d4578251825591602001919060010190620002b7565b50620002e2929150620002e6565b5090565b5b80821115620002e25760008155600101620002e7565b611ceb806200030d6000396000f3fe608060405234801561001057600080fd5b50600436106101735760003560e01c806373422b31116100de578063a9059cbb11610097578063dd62ed3e11610071578063dd62ed3e146104c3578063f2fde38b146104f1578063f82e580514610517578063f9cfa06f1461053457610173565b8063a9059cbb14610472578063b551b82f1461049e578063c607cde7146104a657610173565b806373422b31146103e45780638368909c146103ec5780638da5cb5b146103f45780638e31586c1461041857806395d89b411461043e578063a457c2d71461044657610173565b80633d3728b5116101305780633d3728b5146102cf57806342966c68146102ec578063513da948146103095780636ba4c1381461031157806370a08231146103b4578063715018a6146103da57610173565b806306fdde0314610178578063095ea7b3146101f557806318160ddd1461023557806323b872dd1461024f578063313ce5671461028557806339509351146102a3575b600080fd5b61018061053c565b6040805160208082528351818301528351919283929083019185019080838360005b838110156101ba5781810151838201526020016101a2565b50505050905090810190601f1680156101e75780820380516001836020036101000a031916815260200191505b509250505060405180910390f35b6102216004803603604081101561020b57600080fd5b506001600160a01b0381351690602001356105d2565b604080519115158252519081900360200190f35b61023d6105f0565b60408051918252519081900360200190f35b6102216004803603606081101561026557600080fd5b506001600160a01b038135811691602081013590911690604001356105f6565b61028d610694565b6040805160ff9092168252519081900360200190f35b610221600480360360408110156102b957600080fd5b506001600160a01b03813516906020013561069d565b61023d600480360360208110156102e557600080fd5b50356106eb565b6102216004803603602081101561030257600080fd5b50356108af565b61023d6108c3565b61023d6004803603602081101561032757600080fd5b81019060208101813564010000000081111561034257600080fd5b82018360208201111561035457600080fd5b8035906020019184602083028401116401000000008311171561037657600080fd5b9190808060200260200160405190810160405280939291908181526020018383602002808284376000920191909152509295506108c9945050505050565b61023d600480360360208110156103ca57600080fd5b50356001600160a01b0316610c26565b6103e2610c41565b005b61023d610cf5565b61023d610cfa565b6103fc610d00565b604080516001600160a01b039092168252519081900360200190f35b6103e26004803603602081101561042e57600080fd5b50356001600160a01b0316610d0f565b610180610e04565b6102216004803603604081101561045c57600080fd5b506001600160a01b038135169060200135610e65565b6102216004803603604081101561048857600080fd5b506001600160a01b038135169060200135610ecd565b61023d610ee1565b61023d600480360360208110156104bc57600080fd5b5035610ee7565b61023d600480360360408110156104d957600080fd5b506001600160a01b03813581169160200135166112f6565b6103e26004803603602081101561050757600080fd5b50356001600160a01b0316611321565b6103e26004803603602081101561052d57600080fd5b503561142b565b61023d61147e565b60098054604080516020601f60026000196101006001881615020190951694909404938401819004810282018101909252828152606093909290918301828280156105c85780601f1061059d576101008083540402835291602001916105c8565b820191906000526020600020905b8154815290600101906020018083116105ab57829003601f168201915b5050505050905090565b60006105e66105df611484565b8484611488565b5060015b92915050565b60085490565b6000610603848484611574565b600b5461010090046001600160a01b0316331461068a5761068a84610626611484565b61068585604051806060016040528060288152602001611bff602891396001600160a01b038a16600090815260066020526040812090610664611484565b6001600160a01b0316815260208101919091526040016000205491906116d1565b611488565b5060019392505050565b600b5460ff1690565b60006105e66106aa611484565b8461068585600660006106bb611484565b6001600160a01b03908116825260208083019390935260409182016000908120918c168152925290205490611768565b600b54604080516331a9108f60e11b815260048101849052905160009283926101009091046001600160a01b031691636352211e91602480820192602092909190829003018186803b15801561074057600080fd5b505afa158015610754573d6000803e3d6000fd5b505050506040513d602081101561076a57600080fd5b50516001600160a01b031614156107c4576040805162461bcd60e51b81526020600482015260196024820152784f776e65722063616e6e6f742062652030206164647265737360381b604482015290519081900360640190fd5b600b60019054906101000a90046001600160a01b03166001600160a01b03166318160ddd6040518163ffffffff1660e01b815260040160206040518083038186803b15801561081257600080fd5b505afa158015610826573d6000803e3d6000fd5b505050506040513d602081101561083c57600080fd5b5051821061087b5760405162461bcd60e51b8152600401808060200182810382526024815260200180611b1f6024913960400191505060405180910390fd5b600082815260076020526040812054610896576002546108a6565b6000838152600760205260409020545b9150505b919050565b60006108bb33836117c9565b506001919050565b60025481565b60006002544211610921576040805162461bcd60e51b815260206004820152601c60248201527f456d697373696f6e20686173206e6f7420737461727465642079657400000000604482015290519081900360640190fd5b6000805b8351811015610bc957600b60019054906101000a90046001600160a01b03166001600160a01b03166318160ddd6040518163ffffffff1660e01b815260040160206040518083038186803b15801561097c57600080fd5b505afa158015610990573d6000803e3d6000fd5b505050506040513d60208110156109a657600080fd5b505184518590839081106109b657fe5b6020026020010151106109fa5760405162461bcd60e51b8152600401808060200182810382526024815260200180611b1f6024913960400191505060405180910390fd5b600181015b8451811015610a8b57848181518110610a1457fe5b6020026020010151858381518110610a2857fe5b60200260200101511415610a83576040805162461bcd60e51b815260206004820152601960248201527f546f6b656e20696e646578206973206475706c69636174656400000000000000604482015290519081900360640190fd5b6001016109ff565b506000848281518110610a9a57fe5b60200260200101519050336001600160a01b0316600b60019054906101000a90046001600160a01b03166001600160a01b0316636352211e836040518263ffffffff1660e01b81526004018082815260200191505060206040518083038186803b158015610b0757600080fd5b505afa158015610b1b573d6000803e3d6000fd5b505050506040513d6020811015610b3157600080fd5b50516001600160a01b031614610b8e576040805162461bcd60e51b815260206004820152601a60248201527f4e6f6e2d6f776e65722063616e6e6f7420636c61696d204d4254000000000000604482015290519081900360640190fd5b6000610b9982610ee7565b90508015610bbf57610bab8482611768565b600083815260076020526040902042905593505b5050600101610925565b5080610c1c576040805162461bcd60e51b815260206004820152601f60248201527f4e6f204d425420617661696c61626c6520617420746865206d6f6d656e742e00604482015290519081900360640190fd5b6105ea33826118c5565b6001600160a01b031660009081526005602052604090205490565b610c49611484565b6000546001600160a01b03908116911614610cab576040805162461bcd60e51b815260206004820181905260248201527f4f776e61626c653a2063616c6c6572206973206e6f7420746865206f776e6572604482015290519081900360640190fd5b600080546040516001600160a01b03909116907f8be0079c531659141344cd1fd0a4f28419497f9722a3daafe3b4186f6b6457e0908390a3600080546001600160a01b0319169055565b600281565b60035481565b6000546001600160a01b031690565b610d17611484565b6000546001600160a01b03908116911614610d79576040805162461bcd60e51b815260206004820181905260248201527f4f776e61626c653a2063616c6c6572206973206e6f7420746865206f776e6572604482015290519081900360640190fd5b600b5461010090046001600160a01b031615610ddc576040805162461bcd60e51b815260206004820152601a60248201527f424254206164647265737320697320616c726561647920736574000000000000604482015290519081900360640190fd5b600b80546001600160a01b0390921661010002610100600160a81b0319909216919091179055565b600a8054604080516020601f60026000196101006001881615020190951694909404938401819004810282018101909252828152606093909290918301828280156105c85780601f1061059d576101008083540402835291602001916105c8565b60006105e6610e72611484565b8461068585604051806060016040528060258152602001611c916025913960066000610e9c611484565b6001600160a01b03908116825260208083019390935260409182016000908120918d168152925290205491906116d1565b60006105e6610eda611484565b8484611574565b60045481565b60006002544211610f3f576040805162461bcd60e51b815260206004820152601c60248201527f456d697373696f6e20686173206e6f7420737461727465642079657400000000604482015290519081900360640190fd5b600b54604080516331a9108f60e11b815260048101859052905160009261010090046001600160a01b031691636352211e916024808301926020929190829003018186803b158015610f9057600080fd5b505afa158015610fa4573d6000803e3d6000fd5b505050506040513d6020811015610fba57600080fd5b50516001600160a01b03161415611014576040805162461bcd60e51b81526020600482015260196024820152784f776e65722063616e6e6f742062652030206164647265737360381b604482015290519081900360640190fd5b600b60019054906101000a90046001600160a01b03166001600160a01b03166318160ddd6040518163ffffffff1660e01b815260040160206040518083038186803b15801561106257600080fd5b505afa158015611076573d6000803e3d6000fd5b505050506040513d602081101561108c57600080fd5b505182106110cb5760405162461bcd60e51b8152600401808060200182810382526024815260200180611b1f6024913960400191505060405180910390fd5b60006110d6836106eb565b905060035481106110eb5760009150506108aa565b600060035442106110fe57600354611100565b425b90506000600b60019054906101000a90046001600160a01b03166001600160a01b031663606987eb866040518263ffffffff1660e01b81526004018082815260200191505060206040518083038186803b15801561115d57600080fd5b505afa158015611171573d6000803e3d6000fd5b505050506040513d602081101561118757600080fd5b50516001546004549192506000916111b891906111b29085906111ac9081898b6119b7565b90611a14565b90611a6d565b90506002548414156112ed576000600b60019054906101000a90046001600160a01b03166001600160a01b031663c8ed64fe6040518163ffffffff1660e01b815260040160206040518083038186803b15801561121457600080fd5b505afa158015611228573d6000803e3d6000fd5b505050506040513d602081101561123e57600080fd5b5051600b54604080516338af193160e21b8152600481018b905290519293506000926101009092046001600160a01b03169163e2bc64c491602480820192602092909190829003018186803b15801561129657600080fd5b505afa1580156112aa573d6000803e3d6000fd5b505050506040513d60208110156112c057600080fd5b505115156001146112d157816112dc565b6112dc826002611a14565b90506112e88382611768565b925050505b95945050505050565b6001600160a01b03918216600090815260066020908152604080832093909416825291909152205490565b611329611484565b6000546001600160a01b0390811691161461138b576040805162461bcd60e51b815260206004820181905260248201527f4f776e61626c653a2063616c6c6572206973206e6f7420746865206f776e6572604482015290519081900360640190fd5b6001600160a01b0381166113d05760405162461bcd60e51b8152600401808060200182810382526026815260200180611b436026913960400191505060405180910390fd5b600080546040516001600160a01b03808516939216917f8be0079c531659141344cd1fd0a4f28419497f9722a3daafe3b4186f6b6457e091a3600080546001600160a01b0319166001600160a01b0392909216919091179055565b600b5461010090046001600160a01b031633146114795760405162461bcd60e51b815260040180806020018281038252602d815260200180611bb1602d913960400191505060405180910390fd5b600255565b60015481565b3390565b6001600160a01b0383166114cd5760405162461bcd60e51b8152600401808060200182810382526024815260200180611c6d6024913960400191505060405180910390fd5b6001600160a01b0382166115125760405162461bcd60e51b8152600401808060200182810382526022815260200180611b696022913960400191505060405180910390fd5b6001600160a01b03808416600081815260066020908152604080832094871680845294825291829020859055815185815291517f8c5be1e5ebec7d5bd14f71427d1e84f3dd0314c0f7b2291e5b200ac8c7c3b9259281900390910190a3505050565b6001600160a01b0383166115b95760405162461bcd60e51b8152600401808060200182810382526025815260200180611c486025913960400191505060405180910390fd5b6001600160a01b0382166115fe5760405162461bcd60e51b8152600401808060200182810382526023815260200180611ada6023913960400191505060405180910390fd5b611609838383611ad4565b61164681604051806060016040528060268152602001611b8b602691396001600160a01b03861660009081526005602052604090205491906116d1565b6001600160a01b0380851660009081526005602052604080822093909355908416815220546116759082611768565b6001600160a01b0380841660008181526005602090815260409182902094909455805185815290519193928716927fddf252ad1be2c89b69c2b068fc378daa952ba7f163c4a11628f55a4df523b3ef92918290030190a3505050565b600081848411156117605760405162461bcd60e51b81526004018080602001828103825283818151815260200191508051906020019080838360005b8381101561172557818101518382015260200161170d565b50505050905090810190601f1680156117525780820380516001836020036101000a031916815260200191505b509250505060405180910390fd5b505050900390565b6000828201838110156117c2576040805162461bcd60e51b815260206004820152601b60248201527f536166654d6174683a206164646974696f6e206f766572666c6f770000000000604482015290519081900360640190fd5b9392505050565b6001600160a01b03821661180e5760405162461bcd60e51b8152600401808060200182810382526021815260200180611c276021913960400191505060405180910390fd5b61181a82600083611ad4565b61185781604051806060016040528060228152602001611afd602291396001600160a01b03851660009081526005602052604090205491906116d1565b6001600160a01b03831660009081526005602052604090205560085461187d90826119b7565b6008556040805182815290516000916001600160a01b038516917fddf252ad1be2c89b69c2b068fc378daa952ba7f163c4a11628f55a4df523b3ef9181900360200190a35050565b6001600160a01b038216611920576040805162461bcd60e51b815260206004820152601f60248201527f45524332303a206d696e7420746f20746865207a65726f206164647265737300604482015290519081900360640190fd5b61192c60008383611ad4565b6008546119399082611768565b6008556001600160a01b03821660009081526005602052604090205461195f9082611768565b6001600160a01b03831660008181526005602090815260408083209490945583518581529351929391927fddf252ad1be2c89b69c2b068fc378daa952ba7f163c4a11628f55a4df523b3ef9281900390910190a35050565b600082821115611a0e576040805162461bcd60e51b815260206004820152601e60248201527f536166654d6174683a207375627472616374696f6e206f766572666c6f770000604482015290519081900360640190fd5b50900390565b600082611a23575060006105ea565b82820282848281611a3057fe5b04146117c25760405162461bcd60e51b8152600401808060200182810382526021815260200180611bde6021913960400191505060405180910390fd5b6000808211611ac3576040805162461bcd60e51b815260206004820152601a60248201527f536166654d6174683a206469766973696f6e206279207a65726f000000000000604482015290519081900360640190fd5b818381611acc57fe5b049392505050565b50505056fe45524332303a207472616e7366657220746f20746865207a65726f206164647265737345524332303a206275726e20616d6f756e7420657863656564732062616c616e63654e465420617420696e64657820686173206e6f74206265656e206d696e746564207965744f776e61626c653a206e6577206f776e657220697320746865207a65726f206164647265737345524332303a20617070726f766520746f20746865207a65726f206164647265737345524332303a207472616e7366657220616d6f756e7420657863656564732062616c616e63654f6e6c792042425420636f6e74726163742063616e206f766572777269746520656d697373696f6e5374617274536166654d6174683a206d756c7469706c69636174696f6e206f766572666c6f7745524332303a207472616e7366657220616d6f756e74206578636565647320616c6c6f77616e636545524332303a206275726e2066726f6d20746865207a65726f206164647265737345524332303a207472616e736665722066726f6d20746865207a65726f206164647265737345524332303a20617070726f76652066726f6d20746865207a65726f206164647265737345524332303a2064656372656173656420616c6c6f77616e63652062656c6f77207a65726fa264697066735822122022f1d59edd77fe72e668c9485500e889a54a7f6b4a37593fe2c90c8b4cb3926a64736f6c63430007000033",
  "immutableReferences": {},
  "source": "// SPDX-License-Identifier: UNLICENSED\npragma solidity ^0.7.0;\n\nimport \"./ERC165/IERC165.sol\";\nimport \"./math/SafeMath.sol\";\nimport \"./ERC20/IERC20.sol\";\nimport \"./IBearNBearToken.sol\";\nimport \"./utils/Context.sol\";\nimport \"./utils/Ownable.sol\";\n\n/**\n *\n * MiniBearToken Contract (The native token of BearNBear)\n * @dev Extends standard ERC20 contract\n */\ncontract MiniBearToken is Context, Ownable, IERC20 {\n    using SafeMath for uint256;\n\n    // Constants\n    uint256 public SECONDS_IN_A_DAY = 86400;\n\n    // Public variables\n    uint256 public emissionStart;\n\n    uint256 public emissionEnd;\n\n    uint256 public emissionPerDay = 1 * (10 ** 18); // multiple by the mutiplier\n\n    uint256 public constant PRE_REVEAL_MULTIPLIER = 2;\n\n    mapping (address => uint256) private _balances;\n\n    mapping (address => mapping (address => uint256)) private _allowances;\n\n    mapping(uint256 => uint256) private _lastClaim;\n\n    uint256 private _totalSupply;\n\n    string private _name;\n    string private _symbol;\n    uint8 private _decimals;\n    address private _bbtAddress;\n\n    /**\n     * @dev Sets the values for {name} and {symbol}, initializes {decimals} with\n     * a default value of 18. Also initalizes {emissionStart}\n     *\n     * To select a different value for {decimals}, use {_setupDecimals}.\n     *\n     * All three of these values are immutable: they can only be set once during\n     * construction.\n     */\n    constructor (string memory name, string memory symbol, uint256 emissionStartTimestamp) {\n        _name = name;\n        _symbol = symbol;\n        _decimals = 18;\n        emissionStart = emissionStartTimestamp;\n        emissionEnd = emissionStartTimestamp + (86400 * 365 * 10);\n    }\n\n    /**\n     * @dev Returns the name of the token.\n     */\n    function name() public view returns (string memory) {\n        return _name;\n    }\n\n    /**\n     * @dev Returns the symbol of the token, usually a shorter version of the\n     * name.\n     */\n    function symbol() public view returns (string memory) {\n        return _symbol;\n    }\n\n    /**\n     * @dev Returns the number of decimals used to get its user representation.\n     * For example, if `decimals` equals `2`, a balance of `505` tokens should\n     * be displayed to a user as `5,05` (`505 / 10 ** 2`).\n     *\n     * Tokens usually opt for a value of 18, imitating the relationship between\n     * Ether and Wei. This is the value {ERC20} uses, unless {_setupDecimals} is\n     * called.\n     *\n     * NOTE: This information is only used for _display_ purposes: it in\n     * no way affects any of the arithmetic of the contract, including\n     * {IERC20-balanceOf} and {IERC20-transfer}.\n     */\n    function decimals() public view returns (uint8) {\n        return _decimals;\n    }\n\n    /**\n     * @dev See {IERC20-totalSupply}.\n     */\n    function totalSupply() public view override returns (uint256) {\n        return _totalSupply;\n    }\n\n    /**\n     * @dev See {IERC20-balanceOf}.\n     */\n    function balanceOf(address account) public view override returns (uint256) {\n        return _balances[account];\n    }\n\n    /**\n     * @dev When accumulated MBT have last been claimed for a BearNBear index\n     */\n    function lastClaim(uint256 tokenIndex) public view returns (uint256) {\n        require(IBearNBearToken(_bbtAddress).ownerOf(tokenIndex) != address(0), \"Owner cannot be 0 address\");\n        require(tokenIndex < IBearNBearToken(_bbtAddress).totalSupply(), \"NFT at index has not been minted yet\");\n\n        uint256 lastClaimed = uint256(_lastClaim[tokenIndex]) != 0 ? uint256(_lastClaim[tokenIndex]) : emissionStart;\n        return lastClaimed;\n    }\n\n    /**\n     * @dev Accumulated MBT tokens for a BearNBear token index.\n     */\n    function accumulated(uint256 tokenIndex) public view returns (uint256) {\n        require(block.timestamp > emissionStart, \"Emission has not started yet\");\n        require(IBearNBearToken(_bbtAddress).ownerOf(tokenIndex) != address(0), \"Owner cannot be 0 address\");\n        require(tokenIndex < IBearNBearToken(_bbtAddress).totalSupply(), \"NFT at index has not been minted yet\");\n\n        uint256 lastClaimed = lastClaim(tokenIndex); // return emissionStart if claim havs't been done before\n\n        // If emission ends, no MBT can be claimed\n        if (lastClaimed >= emissionEnd) return 0;\n\n        uint256 accumulationPeriod = block.timestamp < emissionEnd ? block.timestamp : emissionEnd; // Getting the min(block.timestamp, emissionEnd)\n        uint256 emissionPerDayMutiplier = IBearNBearToken(_bbtAddress).tokenMBTGeneratingMultiplierByIndex(tokenIndex);\n        uint256 totalAccumulated = accumulationPeriod.sub(lastClaimed).mul(emissionPerDay).mul(emissionPerDayMutiplier).div(SECONDS_IN_A_DAY);\n\n        // If claim hasn't been done before, add initial MBT\n        if (lastClaimed == emissionStart) {\n            uint256 INIT_GRANTED_MBT = IBearNBearToken(_bbtAddress).initGrantedMBT();\n            // bonus MBT if it's been minted in the first 30 days of the sale event\n            uint256 initialAllotment = IBearNBearToken(_bbtAddress).isMintedWithBonusMBT(tokenIndex) == true ? INIT_GRANTED_MBT.mul(PRE_REVEAL_MULTIPLIER) : INIT_GRANTED_MBT;\n            totalAccumulated = totalAccumulated.add(initialAllotment);\n        }\n\n        return totalAccumulated;\n    }\n\n    /**\n     * @dev Permissioning not added because it is only callable once. It is set right after deployment and verified.\n     */\n    function setBBTAddress(address bbtAddress) onlyOwner external {\n        require(_bbtAddress == address(0), \"BBT address is already set\");\n\n        _bbtAddress = bbtAddress;\n    }\n\n    /**\n     * @dev overwrite emissionStart timestamp\n     */\n    function setEmissionStart(uint256 timestamp) external {\n        require(msg.sender == _bbtAddress, \"Only BBT contract can overwrite emissionStart\");\n\n        emissionStart = timestamp;\n    }\n\n    /**\n     * @dev Claim MBTs for one or multiple BearNBear token indices at once.\n     */\n    function claim(uint256[] memory tokenIndices) public returns (uint256) {\n        require(block.timestamp > emissionStart, \"Emission has not started yet\");\n\n        uint256 totalClaimQty = 0;\n        for (uint i = 0; i < tokenIndices.length; i++) {\n            // Sanity check for non-minted index\n            require(tokenIndices[i] < IBearNBearToken(_bbtAddress).totalSupply(), \"NFT at index has not been minted yet\");\n            // check if token index is duplicated\n            for (uint j = i + 1; j < tokenIndices.length; j++) {\n                require(tokenIndices[i] != tokenIndices[j], \"Token index is duplicated\");\n            }\n\n            uint tokenIndex = tokenIndices[i];\n            require(IBearNBearToken(_bbtAddress).ownerOf(tokenIndex) == msg.sender, \"Non-owner cannot claim MBT\");\n\n            uint256 claimQty = accumulated(tokenIndex);\n            if (claimQty != 0) {\n                totalClaimQty = totalClaimQty.add(claimQty);\n                _lastClaim[tokenIndex] = block.timestamp;\n            }\n        }\n\n        require(totalClaimQty != 0, \"No MBT available at the moment.\");\n        _mint(msg.sender, totalClaimQty);\n        return totalClaimQty;\n    }\n\n    /**\n     * @dev See {IERC20-transfer}.\n     *\n     * Requirements:\n     *\n     * - `recipient` cannot be the zero address.\n     * - the caller must have a balance of at least `amount`.\n     */\n    function transfer(address recipient, uint256 amount) public virtual override returns (bool) {\n        _transfer(_msgSender(), recipient, amount);\n        return true;\n    }\n\n    /**\n     * @dev See {IERC20-allowance}.\n     */\n    function allowance(address owner, address spender) public view virtual override returns (uint256) {\n        return _allowances[owner][spender];\n    }\n\n    /**\n     * @dev See {IERC20-approve}.\n     *\n     * Requirements:\n     *\n     * - `spender` cannot be the zero address.\n     */\n    function approve(address spender, uint256 amount) public virtual override returns (bool) {\n        _approve(_msgSender(), spender, amount);\n        return true;\n    }\n\n    /**\n     * @dev See {IERC20-transferFrom}.\n     *\n     * Emits an {Approval} event indicating the updated allowance. This is not\n     * required by the EIP. See the note at the beginning of {ERC20}.\n     *\n     * Requirements:\n     *\n     * - `sender` and `recipient` cannot be the zero address.\n     * - `sender` must have a balance of at least `amount`.\n     * - the caller must have allowance for ``sender``'s tokens of at least\n     * `amount`.\n     */\n    function transferFrom(address sender, address recipient, uint256 amount) public virtual override returns (bool) {\n        _transfer(sender, recipient, amount);\n        // Approval check is skipped if the caller of transferFrom is the BearNBear contract. For better UX.\n        if (msg.sender != _bbtAddress) {\n            _approve(sender, _msgSender(), _allowances[sender][_msgSender()].sub(amount, \"ERC20: transfer amount exceeds allowance\"));\n        }\n        return true;\n    }\n\n    /**\n     * @dev Atomically increases the allowance granted to `spender` by the caller.\n     *\n     * This is an alternative to {approve} that can be used as a mitigation for\n     * problems described in {IERC20-approve}.\n     *\n     * Emits an {Approval} event indicating the updated allowance.\n     *\n     * Requirements:\n     *\n     * - `spender` cannot be the zero address.\n     */\n    function increaseAllowance(address spender, uint256 addedValue) public virtual returns (bool) {\n        _approve(_msgSender(), spender, _allowances[_msgSender()][spender].add(addedValue));\n        return true;\n    }\n\n    // ++\n    /**\n     * @dev Burns a quantity of tokens held by the caller.\n     *\n     * Emits an {Transfer} event to 0 address\n     *\n     */\n    function burn(uint256 burnQuantity) public virtual override returns (bool) {\n        _burn(msg.sender, burnQuantity);\n        return true;\n    }\n    // ++\n\n    /**\n     * @dev Atomically decreases the allowance granted to `spender` by the caller.\n     *\n     * This is an alternative to {approve} that can be used as a mitigation for\n     * problems described in {IERC20-approve}.\n     *\n     * Emits an {Approval} event indicating the updated allowance.\n     *\n     * Requirements:\n     *\n     * - `spender` cannot be the zero address.\n     * - `spender` must have allowance for the caller of at least\n     * `subtractedValue`.\n     */\n    function decreaseAllowance(address spender, uint256 subtractedValue) public virtual returns (bool) {\n        _approve(_msgSender(), spender, _allowances[_msgSender()][spender].sub(subtractedValue, \"ERC20: decreased allowance below zero\"));\n        return true;\n    }\n\n    /**\n     * @dev Moves tokens `amount` from `sender` to `recipient`.\n     *\n     * This is internal function is equivalent to {transfer}, and can be used to\n     * e.g. implement automatic token fees, slashing mechanisms, etc.\n     *\n     * Emits a {Transfer} event.\n     *\n     * Requirements:\n     *\n     * - `sender` cannot be the zero address.\n     * - `recipient` cannot be the zero address.\n     * - `sender` must have a balance of at least `amount`.\n     */\n    function _transfer(address sender, address recipient, uint256 amount) internal virtual {\n        require(sender != address(0), \"ERC20: transfer from the zero address\");\n        require(recipient != address(0), \"ERC20: transfer to the zero address\");\n\n        _beforeTokenTransfer(sender, recipient, amount);\n\n        _balances[sender] = _balances[sender].sub(amount, \"ERC20: transfer amount exceeds balance\");\n        _balances[recipient] = _balances[recipient].add(amount);\n        emit Transfer(sender, recipient, amount);\n    }\n\n    /** @dev Creates `amount` tokens and assigns them to `account`, increasing\n     * the total supply.\n     *\n     * Emits a {Transfer} event with `from` set to the zero address.\n     *\n     * Requirements:\n     *\n     * - `to` cannot be the zero address.\n     */\n    function _mint(address account, uint256 amount) internal virtual {\n        require(account != address(0), \"ERC20: mint to the zero address\");\n\n        _beforeTokenTransfer(address(0), account, amount);\n\n        _totalSupply = _totalSupply.add(amount);\n        _balances[account] = _balances[account].add(amount);\n        emit Transfer(address(0), account, amount);\n    }\n\n    /**\n     * @dev Destroys `amount` tokens from `account`, reducing the\n     * total supply.\n     *\n     * Emits a {Transfer} event with `to` set to the zero address.\n     *\n     * Requirements:\n     *\n     * - `account` cannot be the zero address.\n     * - `account` must have at least `amount` tokens.\n     */\n    function _burn(address account, uint256 amount) internal virtual {\n        require(account != address(0), \"ERC20: burn from the zero address\");\n\n        _beforeTokenTransfer(account, address(0), amount);\n\n        _balances[account] = _balances[account].sub(amount, \"ERC20: burn amount exceeds balance\");\n        _totalSupply = _totalSupply.sub(amount);\n        emit Transfer(account, address(0), amount);\n    }\n\n    /**\n     * @dev Sets `amount` as the allowance of `spender` over the `owner` s tokens.\n     *\n     * This internal function is equivalent to `approve`, and can be used to\n     * e.g. set automatic allowances for certain subsystems, etc.\n     *\n     * Emits an {Approval} event.\n     *\n     * Requirements:\n     *\n     * - `owner` cannot be the zero address.\n     * - `spender` cannot be the zero address.\n     */\n    function _approve(address owner, address spender, uint256 amount) internal virtual {\n        require(owner != address(0), \"ERC20: approve from the zero address\");\n        require(spender != address(0), \"ERC20: approve to the zero address\");\n\n        _allowances[owner][spender] = amount;\n        emit Approval(owner, spender, amount);\n    }\n\n    /**\n     * @dev Sets {decimals} to a value other than the default one of 18.\n     *\n     * WARNING: This function should only be called from the constructor. Most\n     * applications that interact with token contracts will not expect\n     * {decimals} to ever change, and may work incorrectly if it does.\n     */\n    function _setupDecimals(uint8 decimals_) internal {\n        _decimals = decimals_;\n    }\n\n    /**\n     * @dev Hook that is called before any transfer of tokens. This includes\n     * minting and burning.\n     *\n     * Calling conditions:\n     *\n     * - when `from` and `to` are both non-zero, `amount` of ``from``'s tokens\n     * will be to transferred to `to`.\n     * - when `from` is zero, `amount` tokens will be minted for `to`.\n     * - when `to` is zero, `amount` of ``from``'s tokens will be burned.\n     * - `from` and `to` are never both zero.\n     *\n     * To learn more about hooks, head to xref:ROOT:extending-contracts.adoc#using-hooks[Using Hooks].\n     */\n    function _beforeTokenTransfer(address from, address to, uint256 amount) internal virtual { }\n}\n",
  "sourcePath": "/Users/andychen/projects/benarnbear/contracts/contracts/MiniBearToken.sol",
  "compiler": {
    "name": "solc",
    "version": "0.7.0+commit.9e61f92b.Emscripten.clang"
  },
  "schemaVersion": "3.3.4",
  "updatedAt": "2021-03-10T07:03:43.102Z",
  "networkType": "ethereum",
  "devdoc": {
    "details": "Extends standard ERC20 contract",
    "kind": "dev",
    "methods": {
      "accumulated(uint256)": {
        "details": "Accumulated MBT tokens for a BearNBear token index."
      },
      "allowance(address,address)": {
        "details": "See {IERC20-allowance}."
      },
      "approve(address,uint256)": {
        "details": "See {IERC20-approve}. Requirements: - `spender` cannot be the zero address."
      },
      "balanceOf(address)": {
        "details": "See {IERC20-balanceOf}."
      },
      "burn(uint256)": {
        "details": "Burns a quantity of tokens held by the caller. Emits an {Transfer} event to 0 address"
      },
      "claim(uint256[])": {
        "details": "Claim MBTs for one or multiple BearNBear token indices at once."
      },
      "constructor": {
        "details": "Sets the values for {name} and {symbol}, initializes {decimals} with a default value of 18. Also initalizes {emissionStart} To select a different value for {decimals}, use {_setupDecimals}. All three of these values are immutable: they can only be set once during construction."
      },
      "decimals()": {
        "details": "Returns the number of decimals used to get its user representation. For example, if `decimals` equals `2`, a balance of `505` tokens should be displayed to a user as `5,05` (`505 / 10 ** 2`). Tokens usually opt for a value of 18, imitating the relationship between Ether and Wei. This is the value {ERC20} uses, unless {_setupDecimals} is called. NOTE: This information is only used for _display_ purposes: it in no way affects any of the arithmetic of the contract, including {IERC20-balanceOf} and {IERC20-transfer}."
      },
      "decreaseAllowance(address,uint256)": {
        "details": "Atomically decreases the allowance granted to `spender` by the caller. This is an alternative to {approve} that can be used as a mitigation for problems described in {IERC20-approve}. Emits an {Approval} event indicating the updated allowance. Requirements: - `spender` cannot be the zero address. - `spender` must have allowance for the caller of at least `subtractedValue`."
      },
      "increaseAllowance(address,uint256)": {
        "details": "Atomically increases the allowance granted to `spender` by the caller. This is an alternative to {approve} that can be used as a mitigation for problems described in {IERC20-approve}. Emits an {Approval} event indicating the updated allowance. Requirements: - `spender` cannot be the zero address."
      },
      "lastClaim(uint256)": {
        "details": "When accumulated MBT have last been claimed for a BearNBear index"
      },
      "name()": {
        "details": "Returns the name of the token."
      },
      "owner()": {
        "details": "Returns the address of the current owner."
      },
      "renounceOwnership()": {
        "details": "Leaves the contract without owner. It will not be possible to call `onlyOwner` functions anymore. Can only be called by the current owner. NOTE: Renouncing ownership will leave the contract without an owner, thereby removing any functionality that is only available to the owner."
      },
      "setBBTAddress(address)": {
        "details": "Permissioning not added because it is only callable once. It is set right after deployment and verified."
      },
      "setEmissionStart(uint256)": {
        "details": "overwrite emissionStart timestamp"
      },
      "symbol()": {
        "details": "Returns the symbol of the token, usually a shorter version of the name."
      },
      "totalSupply()": {
        "details": "See {IERC20-totalSupply}."
      },
      "transfer(address,uint256)": {
        "details": "See {IERC20-transfer}. Requirements: - `recipient` cannot be the zero address. - the caller must have a balance of at least `amount`."
      },
      "transferFrom(address,address,uint256)": {
        "details": "See {IERC20-transferFrom}. Emits an {Approval} event indicating the updated allowance. This is not required by the EIP. See the note at the beginning of {ERC20}. Requirements: - `sender` and `recipient` cannot be the zero address. - `sender` must have a balance of at least `amount`. - the caller must have allowance for ``sender``'s tokens of at least `amount`."
      },
      "transferOwnership(address)": {
        "details": "Transfers ownership of the contract to a new account (`newOwner`). Can only be called by the current owner."
      }
    },
    "version": 1
  },
  "userdoc": {
    "kind": "user",
    "methods": {},
    "notice": "MiniBearToken Contract (The native token of BearNBear)",
    "version": 1
  }
}